{
	"data": {
		"bytecode": {
			"linkReferences": {},
			"object": "608060405234801561001057600080fd5b5061002d61002261003960201b60201c565b61004160201b60201c565b60018081905550610105565b600033905090565b60008060009054906101000a900473ffffffffffffffffffffffffffffffffffffffff169050816000806101000a81548173ffffffffffffffffffffffffffffffffffffffff021916908373ffffffffffffffffffffffffffffffffffffffff1602179055508173ffffffffffffffffffffffffffffffffffffffff168173ffffffffffffffffffffffffffffffffffffffff167f8be0079c531659141344cd1fd0a4f28419497f9722a3daafe3b4186f6b6457e060405160405180910390a35050565b61566a806101146000396000f3fe608060405260043610620000925760003560e01c8063715018a61162000061578063715018a614620001455780638da5cb5b146200015f578063b9f889cc146200018f578063bbcaac3814620001d3578063f2fde38b14620002015762000092565b806320b336291462000097578063476343ee14620000b75780634e76edbb14620000d157806365384f361462000101575b600080fd5b620000b56004803603810190620000af919062000aa6565b6200022f565b005b348015620000c457600080fd5b50620000cf62000368565b005b348015620000de57600080fd5b50620000e96200045d565b604051620000f8919062000e15565b60405180910390f35b3480156200010e57600080fd5b506200012d600480360381019062000127919062000b9c565b62000470565b6040516200013c919062000ca9565b60405180910390f35b3480156200015257600080fd5b506200015d6200048f565b005b3480156200016c57600080fd5b506200017762000520565b60405162000186919062000ca9565b60405180910390f35b3480156200019c57600080fd5b50620001bb6004803603810190620001b5919062000b9c565b62000549565b604051620001ca919062000d92565b60405180910390f35b348015620001e057600080fd5b50620001ff6004803603810190620001f9919062000a74565b62000589565b005b3480156200020e57600080fd5b506200022d600480360381019062000227919062000a42565b62000650565b005b6000308b6040516200024190620009c1565b6200024e92919062000cc6565b604051809103906000f0801580156200026b573d6000803e3d6000fd5b509050620002798162000754565b6007819080600181540180825580915050600190039060005260206000200160009091909190916101000a81548173ffffffffffffffffffffffffffffffffffffffff021916908373ffffffffffffffffffffffffffffffffffffffff1602179055508073ffffffffffffffffffffffffffffffffffffffff16633a54db3a8b8b8b8b8b8b8b8b8b6040518a63ffffffff1660e01b8152600401620003279998979695949392919062000cf3565b600060405180830381600087803b1580156200034257600080fd5b505af115801562000357573d6000803e3d6000fd5b505050505050505050505050505050565b620003726200076e565b73ffffffffffffffffffffffffffffffffffffffff166200039262000520565b73ffffffffffffffffffffffffffffffffffffffff1614620003eb576040517f08c379a0000000000000000000000000000000000000000000000000000000008152600401620003e29062000df3565b60405180910390fd5b6000479050600660009054906101000a900473ffffffffffffffffffffffffffffffffffffffff1673ffffffffffffffffffffffffffffffffffffffff166108fc829081150290604051600060405180830381858888f1935050505015801562000459573d6000803e3d6000fd5b5050565b60006200046b600262000776565b905090565b6000620004888260026200078d90919063ffffffff16565b9050919050565b620004996200076e565b73ffffffffffffffffffffffffffffffffffffffff16620004b962000520565b73ffffffffffffffffffffffffffffffffffffffff161462000512576040517f08c379a0000000000000000000000000000000000000000000000000000000008152600401620005099062000df3565b60405180910390fd5b6200051e6000620007a9565b565b60008060009054906101000a900473ffffffffffffffffffffffffffffffffffffffff16905090565b600781815481106200055a57600080fd5b906000526020600020016000915054906101000a900473ffffffffffffffffffffffffffffffffffffffff1681565b620005936200076e565b73ffffffffffffffffffffffffffffffffffffffff16620005b362000520565b73ffffffffffffffffffffffffffffffffffffffff16146200060c576040517f08c379a0000000000000000000000000000000000000000000000000000000008152600401620006039062000df3565b60405180910390fd5b80600660006101000a81548173ffffffffffffffffffffffffffffffffffffffff021916908373ffffffffffffffffffffffffffffffffffffffff16021790555050565b6200065a6200076e565b73ffffffffffffffffffffffffffffffffffffffff166200067a62000520565b73ffffffffffffffffffffffffffffffffffffffff1614620006d3576040517f08c379a0000000000000000000000000000000000000000000000000000000008152600401620006ca9062000df3565b60405180910390fd5b600073ffffffffffffffffffffffffffffffffffffffff168173ffffffffffffffffffffffffffffffffffffffff16141562000746576040517f08c379a00000000000000000000000000000000000000000000000000000000081526004016200073d9062000dd1565b60405180910390fd5b6200075181620007a9565b50565b6200076a8160026200086d90919063ffffffff16565b5050565b600033905090565b600062000786826000016200089f565b9050919050565b60006200079e8360000183620008b0565b60001c905092915050565b60008060009054906101000a900473ffffffffffffffffffffffffffffffffffffffff169050816000806101000a81548173ffffffffffffffffffffffffffffffffffffffff021916908373ffffffffffffffffffffffffffffffffffffffff1602179055508173ffffffffffffffffffffffffffffffffffffffff168173ffffffffffffffffffffffffffffffffffffffff167f8be0079c531659141344cd1fd0a4f28419497f9722a3daafe3b4186f6b6457e060405160405180910390a35050565b600062000897836000018373ffffffffffffffffffffffffffffffffffffffff1660001b6200092a565b905092915050565b600081600001805490509050919050565b600081836000018054905011620008fe576040517f08c379a0000000000000000000000000000000000000000000000000000000008152600401620008f59062000daf565b60405180910390fd5b82600001828154811062000917576200091662000f35565b5b9060005260206000200154905092915050565b60006200093883836200099e565b6200099357826000018290806001815401808255809150506001900390600052602060002001600090919091909150558260000180549050836001016000848152602001908152602001600020819055506001905062000998565b600090505b92915050565b600080836001016000848152602001908152602001600020541415905092915050565b61458280620010b383390190565b600081359050620009e08162001030565b92915050565b600081359050620009f7816200104a565b92915050565b60008135905062000a0e8162001064565b92915050565b60008135905062000a25816200107e565b92915050565b60008135905062000a3c8162001098565b92915050565b60006020828403121562000a5b5762000a5a62000f64565b5b600062000a6b84828501620009cf565b91505092915050565b60006020828403121562000a8d5762000a8c62000f64565b5b600062000a9d84828501620009e6565b91505092915050565b6000806000806000806000806000806101408b8d03121562000acd5762000acc62000f64565b5b600062000add8d828e01620009e6565b9a5050602062000af08d828e01620009fd565b995050604062000b038d828e0162000a2b565b985050606062000b168d828e0162000a14565b975050608062000b298d828e01620009e6565b96505060a062000b3c8d828e0162000a2b565b95505060c062000b4f8d828e0162000a2b565b94505060e062000b628d828e0162000a2b565b93505061010062000b768d828e0162000a2b565b92505061012062000b8a8d828e0162000a2b565b9150509295989b9194979a5092959850565b60006020828403121562000bb55762000bb462000f64565b5b600062000bc58482850162000a2b565b91505092915050565b62000bd98162000e57565b82525050565b62000bea8162000e43565b82525050565b62000bfb8162000ebd565b82525050565b62000c0c8162000ee5565b82525050565b62000c1d8162000f0d565b82525050565b600062000c3260228362000e32565b915062000c3f8262000f69565b604082019050919050565b600062000c5960268362000e32565b915062000c668262000fb8565b604082019050919050565b600062000c8060208362000e32565b915062000c8d8262001007565b602082019050919050565b62000ca38162000eb3565b82525050565b600060208201905062000cc0600083018462000bdf565b92915050565b600060408201905062000cdd600083018562000bdf565b62000cec602083018462000bce565b9392505050565b60006101208201905062000d0b600083018c62000bf0565b62000d1a602083018b62000c98565b62000d29604083018a62000c01565b62000d38606083018962000bce565b62000d47608083018862000c98565b62000d5660a083018762000c98565b62000d6560c083018662000c98565b62000d7460e083018562000c98565b62000d8461010083018462000c98565b9a9950505050505050505050565b600060208201905062000da9600083018462000c12565b92915050565b6000602082019050818103600083015262000dca8162000c23565b9050919050565b6000602082019050818103600083015262000dec8162000c4a565b9050919050565b6000602082019050818103600083015262000e0e8162000c71565b9050919050565b600060208201905062000e2c600083018462000c98565b92915050565b600082825260208201905092915050565b600062000e508262000e93565b9050919050565b600062000e648262000e93565b9050919050565b600062000e788262000e43565b9050919050565b600062000e8c8262000e43565b9050919050565b600073ffffffffffffffffffffffffffffffffffffffff82169050919050565b6000819050919050565b600062000eca8262000ed1565b9050919050565b600062000ede8262000e93565b9050919050565b600062000ef28262000ef9565b9050919050565b600062000f068262000e93565b9050919050565b600062000f1a8262000f21565b9050919050565b600062000f2e8262000e93565b9050919050565b7f4e487b7100000000000000000000000000000000000000000000000000000000600052603260045260246000fd5b600080fd5b7f456e756d657261626c655365743a20696e646578206f7574206f6620626f756e60008201527f6473000000000000000000000000000000000000000000000000000000000000602082015250565b7f4f776e61626c653a206e6577206f776e657220697320746865207a65726f206160008201527f6464726573730000000000000000000000000000000000000000000000000000602082015250565b7f4f776e61626c653a2063616c6c6572206973206e6f7420746865206f776e6572600082015250565b6200103b8162000e43565b81146200104757600080fd5b50565b620010558162000e57565b81146200106157600080fd5b50565b6200106f8162000e6b565b81146200107b57600080fd5b50565b620010898162000e7f565b81146200109557600080fd5b50565b620010a38162000eb3565b8114620010af57600080fd5b5056fe608060405261dead600460006101000a81548173ffffffffffffffffffffffffffffffffffffffff021916908373ffffffffffffffffffffffffffffffffffffffff1602179055506000602055600060215560006022553480156200006357600080fd5b506040516200458238038062004582833981810160405281019062000089919062000149565b600160008190555081600760006101000a81548173ffffffffffffffffffffffffffffffffffffffff021916908373ffffffffffffffffffffffffffffffffffffffff16021790555080600860006101000a81548173ffffffffffffffffffffffffffffffffffffffff021916908373ffffffffffffffffffffffffffffffffffffffff160217905550505062000211565b6000815190506200012c81620001dd565b92915050565b6000815190506200014381620001f7565b92915050565b60008060408385031215620001635762000162620001d8565b5b600062000173858286016200011b565b9250506020620001868582860162000132565b9150509250929050565b60006200019d82620001b8565b9050919050565b6000620001b182620001b8565b9050919050565b600073ffffffffffffffffffffffffffffffffffffffff82169050919050565b600080fd5b620001e88162000190565b8114620001f457600080fd5b50565b6200020281620001a4565b81146200020e57600080fd5b50565b61436180620002216000396000f3fe60806040526004361061023e5760003560e01c8063703d34831161012e578063ab0ced0e116100ab578063d8770f601161006f578063d8770f60146107a5578063e7e10490146107d0578063f24834cd146107e7578063f6304f4f146107fe578063f8fbea701461082757610245565b8063ab0ced0e146106d6578063b52a585114610713578063b61ec0b71461072a578063bdf3e08814610753578063bfb0a0621461077c57610245565b8063881d86d2116100f2578063881d86d2146106305780638a6f508d1461065b5780638af17466146106845780638d8f2adb1461068e5780639b0fa742146106a557610245565b8063703d34831461057b578063736d0974146105a65780637dca429f146105bd578063826c1f71146105fb57806386f5b62c1461062657610245565b806338e86e6d116101bc5780634be3afac116101805780634be3afac146104a85780634f982637146104d35780635410913c146104ea578063569735ae146105135780636f9170f61461053e57610245565b806338e86e6d146103eb5780633a54db3a14610416578063447296911461043f57806349f3ade4146104685780634b0889661461047f57610245565b806315284acf1161020357806315284acf1461032457806316bb2e5a146103575780631b4048701461038057806336dc901414610397578063387a4ce1146103c057610245565b8062f8762f1461024a5780630589a27c146102735780630baa36ad1461029e57806311059a65146102c957806311f323c6146102f957610245565b3661024557005b600080fd5b34801561025657600080fd5b50610271600480360381019061026c9190613316565b610850565b005b34801561027f57600080fd5b50610288610973565b60405161029591906136ba565b60405180910390f35b3480156102aa57600080fd5b506102b36109a0565b6040516102c091906136ba565b60405180910390f35b3480156102d557600080fd5b506102de6109c6565b6040516102f096959493929190613807565b60405180910390f35b34801561030557600080fd5b5061030e610d20565b60405161031b9190613a92565b60405180910390f35b34801561033057600080fd5b50610339610dd5565b60405161034e9998979695949392919061377a565b60405180910390f35b34801561036357600080fd5b5061037e60048036038101906103799190613229565b610e71565b005b34801561038c57600080fd5b50610395610f11565b005b3480156103a357600080fd5b506103be60048036038101906103b991906130a9565b610fa7565b005b3480156103cc57600080fd5b506103d5611112565b6040516103e29190613a92565b60405180910390f35b3480156103f757600080fd5b5061040061111c565b60405161040d9190613a92565b60405180910390f35b34801561042257600080fd5b5061043d6004803603810190610438919061315f565b6111d1565b005b34801561044b57600080fd5b506104666004803603810190610461919061304f565b611374565b005b34801561047457600080fd5b5061047d6114bf565b005b34801561048b57600080fd5b506104a660048036038101906104a19190613283565b6116a3565b005b3480156104b457600080fd5b506104bd61174e565b6040516104ca9190613a92565b60405180910390f35b3480156104df57600080fd5b506104e8611758565b005b3480156104f657600080fd5b50610511600480360381019061050c919061304f565b611887565b005b34801561051f57600080fd5b5061052861193c565b6040516105359190613a92565b60405180910390f35b34801561054a57600080fd5b506105656004803603810190610560919061304f565b611949565b604051610572919061375f565b60405180910390f35b34801561058757600080fd5b5061059061199f565b60405161059d919061375f565b60405180910390f35b3480156105b257600080fd5b506105bb6119b9565b005b3480156105c957600080fd5b506105e460048036038101906105df919061304f565b611a1d565b6040516105f2929190613aad565b60405180910390f35b34801561060757600080fd5b50610610611a41565b60405161061d9190613a92565b60405180910390f35b61062e611a4e565b005b34801561063c57600080fd5b50610645611d61565b6040516106529190613a92565b60405180910390f35b34801561066757600080fd5b50610682600480360381019061067d9190613283565b611d6b565b005b61068c611e16565b005b34801561069a57600080fd5b506106a3612031565b005b3480156106b157600080fd5b506106ba6121c6565b6040516106cd9796959493929190613ad6565b60405180910390f35b3480156106e257600080fd5b506106fd60048036038101906106f8919061304f565b612210565b60405161070a9190613a92565b60405180910390f35b34801561071f57600080fd5b50610728612261565b005b34801561073657600080fd5b50610751600480360381019061074c9190613132565b61247e565b005b34801561075f57600080fd5b5061077a60048036038101906107759190613132565b61251f565b005b34801561078857600080fd5b506107a3600480360381019061079e919061307c565b6125bc565b005b3480156107b157600080fd5b506107ba612666565b6040516107c79190613a92565b60405180910390f35b3480156107dc57600080fd5b506107e5612670565b005b3480156107f357600080fd5b506107fc61270d565b005b34801561080a57600080fd5b506108256004803603810190610820919061304f565b61288c565b005b34801561083357600080fd5b5061084e600480360381019061084991906130a9565b6129de565b005b3373ffffffffffffffffffffffffffffffffffffffff16600960030160009054906101000a900473ffffffffffffffffffffffffffffffffffffffff1673ffffffffffffffffffffffffffffffffffffffff16146108e3576040517f08c379a00000000000000000000000000000000000000000000000000000000081526004016108da90613a52565b60405180910390fd5b87601260050181905550866012600001819055508560126001018190555084601260020160006101000a81548160ff021916908315150217905550836012600301819055508260126004018190555081601260060160006101000a81548160ff0219169083151502179055508060196005019080519060200190610968929190612df6565b505050505050505050565b6000600960000160009054906101000a900473ffffffffffffffffffffffffffffffffffffffff16905090565b600260009054906101000a900473ffffffffffffffffffffffffffffffffffffffff1681565b60198060000180546109d790613dde565b80601f0160208091040260200160405190810160405280929190818152602001828054610a0390613dde565b8015610a505780601f10610a2557610100808354040283529160200191610a50565b820191906000526020600020905b815481529060010190602001808311610a3357829003601f168201915b505050505090806001018054610a6590613dde565b80601f0160208091040260200160405190810160405280929190818152602001828054610a9190613dde565b8015610ade5780601f10610ab357610100808354040283529160200191610ade565b820191906000526020600020905b815481529060010190602001808311610ac157829003601f168201915b505050505090806002018054610af390613dde565b80601f0160208091040260200160405190810160405280929190818152602001828054610b1f90613dde565b8015610b6c5780601f10610b4157610100808354040283529160200191610b6c565b820191906000526020600020905b815481529060010190602001808311610b4f57829003601f168201915b505050505090806003018054610b8190613dde565b80601f0160208091040260200160405190810160405280929190818152602001828054610bad90613dde565b8015610bfa5780601f10610bcf57610100808354040283529160200191610bfa565b820191906000526020600020905b815481529060010190602001808311610bdd57829003601f168201915b505050505090806004018054610c0f90613dde565b80601f0160208091040260200160405190810160405280929190818152602001828054610c3b90613dde565b8015610c885780601f10610c5d57610100808354040283529160200191610c88565b820191906000526020600020905b815481529060010190602001808311610c6b57829003601f168201915b505050505090806005018054610c9d90613dde565b80601f0160208091040260200160405190810160405280929190818152602001828054610cc990613dde565b8015610d165780601f10610ceb57610100808354040283529160200191610d16565b820191906000526020600020905b815481529060010190602001808311610cf957829003601f168201915b5050505050905086565b6000600960000160009054906101000a900473ffffffffffffffffffffffffffffffffffffffff1673ffffffffffffffffffffffffffffffffffffffff166370a08231306040518263ffffffff1660e01b8152600401610d8091906136ba565b60206040518083038186803b158015610d9857600080fd5b505afa158015610dac573d6000803e3d6000fd5b505050506040513d601f19601f82011682018060405250810190610dd09190613256565b905090565b60098060000160009054906101000a900473ffffffffffffffffffffffffffffffffffffffff16908060010154908060020160009054906101000a900473ffffffffffffffffffffffffffffffffffffffff16908060030160009054906101000a900473ffffffffffffffffffffffffffffffffffffffff16908060040154908060050154908060060154908060070154908060080154905089565b3373ffffffffffffffffffffffffffffffffffffffff16600960030160009054906101000a900473ffffffffffffffffffffffffffffffffffffffff1673ffffffffffffffffffffffffffffffffffffffff1614610f04576040517f08c379a0000000000000000000000000000000000000000000000000000000008152600401610efb90613a52565b60405180910390fd5b8060096004018190555050565b600360003373ffffffffffffffffffffffffffffffffffffffff1673ffffffffffffffffffffffffffffffffffffffff16815260200190815260200160002060009054906101000a900460ff16610f9d576040517f08c379a0000000000000000000000000000000000000000000000000000000008152600401610f94906138f2565b60405180910390fd5b6004601f81905550565b600360003373ffffffffffffffffffffffffffffffffffffffff1673ffffffffffffffffffffffffffffffffffffffff16815260200190815260200160002060009054906101000a900460ff16611033576040517f08c379a000000000000000000000000000000000000000000000000000000000815260040161102a906138f2565b60405180910390fd5b601260050154602054111561107d576040517f08c379a000000000000000000000000000000000000000000000000000000000815260040161107490613a12565b60405180910390fd5b60005b825181101561110d5781600560008584815181106110a1576110a0613f17565b5b602002602001015173ffffffffffffffffffffffffffffffffffffffff1673ffffffffffffffffffffffffffffffffffffffff16815260200190815260200160002060006101000a81548160ff021916908315150217905550808061110590613e41565b915050611080565b505050565b6000602054905090565b6000600960000160009054906101000a900473ffffffffffffffffffffffffffffffffffffffff1673ffffffffffffffffffffffffffffffffffffffff166370a08231306040518263ffffffff1660e01b815260040161117c91906136ba565b60206040518083038186803b15801561119457600080fd5b505afa1580156111a8573d6000803e3d6000fd5b505050506040513d601f19601f820116820180604052508101906111cc9190613256565b905090565b600760009054906101000a900473ffffffffffffffffffffffffffffffffffffffff1673ffffffffffffffffffffffffffffffffffffffff163373ffffffffffffffffffffffffffffffffffffffff1614611261576040517f08c379a0000000000000000000000000000000000000000000000000000000008152600401611258906139f2565b60405180910390fd5b88600960000160006101000a81548173ffffffffffffffffffffffffffffffffffffffff021916908373ffffffffffffffffffffffffffffffffffffffff1602179055508760096001018190555086600960020160006101000a81548173ffffffffffffffffffffffffffffffffffffffff021916908373ffffffffffffffffffffffffffffffffffffffff16021790555085600960030160006101000a81548173ffffffffffffffffffffffffffffffffffffffff021916908373ffffffffffffffffffffffffffffffffffffffff1602179055508460096004018190555083600960050181905550826009600601819055508160096007018190555080600960080181905550505050505050505050565b600360003373ffffffffffffffffffffffffffffffffffffffff1673ffffffffffffffffffffffffffffffffffffffff16815260200190815260200160002060009054906101000a900460ff16611400576040517f08c379a00000000000000000000000000000000000000000000000000000000081526004016113f7906138f2565b60405180910390fd5b601260050154602054111561144a576040517f08c379a000000000000000000000000000000000000000000000000000000000815260040161144190613a12565b60405180910390fd5b6001600560008373ffffffffffffffffffffffffffffffffffffffff1673ffffffffffffffffffffffffffffffffffffffff16815260200190815260200160002060006101000a81548160ff0219169083151502179055506001602060008282546114b59190613be3565b9250508190555050565b600860009054906101000a900473ffffffffffffffffffffffffffffffffffffffff1673ffffffffffffffffffffffffffffffffffffffff163373ffffffffffffffffffffffffffffffffffffffff161461151957600080fd5b6000600960000160009054906101000a900473ffffffffffffffffffffffffffffffffffffffff1673ffffffffffffffffffffffffffffffffffffffff166370a08231306040518263ffffffff1660e01b815260040161157991906136ba565b60206040518083038186803b15801561159157600080fd5b505afa1580156115a5573d6000803e3d6000fd5b505050506040513d601f19601f820116820180604052508101906115c99190613256565b9050600960000160009054906101000a900473ffffffffffffffffffffffffffffffffffffffff1673ffffffffffffffffffffffffffffffffffffffff1663a9059cbb600260009054906101000a900473ffffffffffffffffffffffffffffffffffffffff16836040518363ffffffff1660e01b815260040161164d9291906136d5565b602060405180830381600087803b15801561166757600080fd5b505af115801561167b573d6000803e3d6000fd5b505050506040513d601f19601f8201168201806040525081019061169f9190613105565b5050565b3373ffffffffffffffffffffffffffffffffffffffff16600960030160009054906101000a900473ffffffffffffffffffffffffffffffffffffffff1673ffffffffffffffffffffffffffffffffffffffff1614611736576040517f08c379a000000000000000000000000000000000000000000000000000000000815260040161172d90613a52565b60405180910390fd5b81601260030181905550806012600401819055505050565b6000602154905090565b6004601f541461179d576040517f08c379a0000000000000000000000000000000000000000000000000000000008152600401611794906139d2565b60405180910390fd5b60003390506000600660003373ffffffffffffffffffffffffffffffffffffffff1673ffffffffffffffffffffffffffffffffffffffff168152602001908152602001600020905060008160000154905060008111611831576040517f08c379a0000000000000000000000000000000000000000000000000000000008152600401611828906139b2565b60405180910390fd5b8273ffffffffffffffffffffffffffffffffffffffff166108fc829081150290604051600060405180830381858888f19350505050158015611877573d6000803e3d6000fd5b5060008260000181905550505050565b600860009054906101000a900473ffffffffffffffffffffffffffffffffffffffff1673ffffffffffffffffffffffffffffffffffffffff163373ffffffffffffffffffffffffffffffffffffffff16146118e157600080fd5b6001600360008373ffffffffffffffffffffffffffffffffffffffff1673ffffffffffffffffffffffffffffffffffffffff16815260200190815260200160002060006101000a81548160ff02191690831515021790555050565b6000600960070154905090565b6000600560008373ffffffffffffffffffffffffffffffffffffffff1673ffffffffffffffffffffffffffffffffffffffff16815260200190815260200160002060009054906101000a900460ff169050919050565b6000601260060160009054906101000a900460ff16905090565b600860009054906101000a900473ffffffffffffffffffffffffffffffffffffffff1673ffffffffffffffffffffffffffffffffffffffff163373ffffffffffffffffffffffffffffffffffffffff1614611a1357600080fd5b6004601f81905550565b60066020528060005260406000206000915090508060000154908060010154905082565b6000600960060154905090565b60026000541415611a94576040517f08c379a0000000000000000000000000000000000000000000000000000000008152600401611a8b90613a32565b60405180910390fd5b6002600081905550601260020160009054906101000a900460ff16611aee576040517f08c379a0000000000000000000000000000000000000000000000000000000008152600401611ae590613932565b60405180910390fd5b6012600301544210158015611b07575060126004015442105b611b46576040517f08c379a0000000000000000000000000000000000000000000000000000000008152600401611b3d906138d2565b60405180910390fd5b600560003373ffffffffffffffffffffffffffffffffffffffff1673ffffffffffffffffffffffffffffffffffffffff16815260200190815260200160002060009054906101000a900460ff16611bd2576040517f08c379a0000000000000000000000000000000000000000000000000000000008152600401611bc990613952565b60405180910390fd5b600960040154341115611c1a576040517f08c379a0000000000000000000000000000000000000000000000000000000008152600401611c1190613892565b60405180910390fd5b6009600701543447611c2c9190613be3565b1115611c3757600080fd5b6000600660003373ffffffffffffffffffffffffffffffffffffffff1673ffffffffffffffffffffffffffffffffffffffff16815260200190815260200160002090506000349050600060096001015482611c929190613c6a565b9050600960040154348460000154611caa9190613be3565b1115611ceb576040517f08c379a0000000000000000000000000000000000000000000000000000000008152600401611ce290613912565b60405180910390fd5b34836000016000828254611cff9190613be3565b9250508190555080836001016000828254611d1a9190613be3565b925050819055508160216000828254611d339190613be3565b92505081905550600160226000828254611d4d9190613be3565b925050819055505050506001600081905550565b6000602254905090565b3373ffffffffffffffffffffffffffffffffffffffff16600960030160009054906101000a900473ffffffffffffffffffffffffffffffffffffffff1673ffffffffffffffffffffffffffffffffffffffff1614611dfe576040517f08c379a0000000000000000000000000000000000000000000000000000000008152600401611df590613a52565b60405180910390fd5b81601260000181905550806012600101819055505050565b60026000541415611e5c576040517f08c379a0000000000000000000000000000000000000000000000000000000008152600401611e5390613a32565b60405180910390fd5b60026000819055506012600001544210158015611e7d575060126001015442105b611ebc576040517f08c379a0000000000000000000000000000000000000000000000000000000008152600401611eb390613972565b60405180910390fd5b600960040154341115611f04576040517f08c379a0000000000000000000000000000000000000000000000000000000008152600401611efb90613892565b60405180910390fd5b6009600401543447611f169190613be3565b1115611f2157600080fd5b6000600660003373ffffffffffffffffffffffffffffffffffffffff1673ffffffffffffffffffffffffffffffffffffffff16815260200190815260200160002090506000349050600060096001015482611f7c9190613c6a565b9050600960040154348460000154611f949190613be3565b1115611fd5576040517f08c379a0000000000000000000000000000000000000000000000000000000008152600401611fcc90613912565b60405180910390fd5b34836000016000828254611fe99190613be3565b92505081905550808360010160008282546120049190613be3565b92505081905550816021600082825461201d9190613be3565b925050819055505050506001600081905550565b6000600660003373ffffffffffffffffffffffffffffffffffffffff1673ffffffffffffffffffffffffffffffffffffffff16815260200190815260200160002090506003601f54146120b9576040517f08c379a00000000000000000000000000000000000000000000000000000000081526004016120b090613992565b60405180910390fd5b60008160010154905060008111612105576040517f08c379a00000000000000000000000000000000000000000000000000000000081526004016120fc90613a72565b60405180910390fd5b600960000160009054906101000a900473ffffffffffffffffffffffffffffffffffffffff1673ffffffffffffffffffffffffffffffffffffffff1663a9059cbb33836040518363ffffffff1660e01b81526004016121659291906136d5565b602060405180830381600087803b15801561217f57600080fd5b505af1158015612193573d6000803e3d6000fd5b505050506040513d601f19601f820116820180604052508101906121b79190613105565b50600082600101819055505050565b60128060000154908060010154908060020160009054906101000a900460ff16908060030154908060040154908060050154908060060160009054906101000a900460ff16905087565b600080600660008473ffffffffffffffffffffffffffffffffffffffff1673ffffffffffffffffffffffffffffffffffffffff16815260200190815260200160002090508060000154915050919050565b3373ffffffffffffffffffffffffffffffffffffffff16600960030160009054906101000a900473ffffffffffffffffffffffffffffffffffffffff1673ffffffffffffffffffffffffffffffffffffffff16146122f4576040517f08c379a00000000000000000000000000000000000000000000000000000000081526004016122eb90613a52565b60405180910390fd5b6000600960000160009054906101000a900473ffffffffffffffffffffffffffffffffffffffff1673ffffffffffffffffffffffffffffffffffffffff166370a08231306040518263ffffffff1660e01b815260040161235491906136ba565b60206040518083038186803b15801561236c57600080fd5b505afa158015612380573d6000803e3d6000fd5b505050506040513d601f19601f820116820180604052508101906123a49190613256565b9050600960000160009054906101000a900473ffffffffffffffffffffffffffffffffffffffff1673ffffffffffffffffffffffffffffffffffffffff1663a9059cbb600460009054906101000a900473ffffffffffffffffffffffffffffffffffffffff16836040518363ffffffff1660e01b81526004016124289291906136d5565b602060405180830381600087803b15801561244257600080fd5b505af1158015612456573d6000803e3d6000fd5b505050506040513d601f19601f8201168201806040525081019061247a9190613105565b5050565b600860009054906101000a900473ffffffffffffffffffffffffffffffffffffffff1673ffffffffffffffffffffffffffffffffffffffff163373ffffffffffffffffffffffffffffffffffffffff16146124d857600080fd5b80600960000160006101000a81548173ffffffffffffffffffffffffffffffffffffffff021916908373ffffffffffffffffffffffffffffffffffffffff16021790555050565b600360003373ffffffffffffffffffffffffffffffffffffffff1673ffffffffffffffffffffffffffffffffffffffff16815260200190815260200160002060009054906101000a900460ff1661257557600080fd5b80600960000160006101000a81548173ffffffffffffffffffffffffffffffffffffffff021916908373ffffffffffffffffffffffffffffffffffffffff16021790555050565b600860009054906101000a900473ffffffffffffffffffffffffffffffffffffffff1673ffffffffffffffffffffffffffffffffffffffff163373ffffffffffffffffffffffffffffffffffffffff161461261657600080fd5b60004790508173ffffffffffffffffffffffffffffffffffffffff166108fc829081150290604051600060405180830381858888f19350505050158015612661573d6000803e3d6000fd5b505050565b6000601f54905090565b3373ffffffffffffffffffffffffffffffffffffffff16600960030160009054906101000a900473ffffffffffffffffffffffffffffffffffffffff1673ffffffffffffffffffffffffffffffffffffffff1614612703576040517f08c379a00000000000000000000000000000000000000000000000000000000081526004016126fa90613a52565b60405180910390fd5b6004601f81905550565b3373ffffffffffffffffffffffffffffffffffffffff16600960030160009054906101000a900473ffffffffffffffffffffffffffffffffffffffff1673ffffffffffffffffffffffffffffffffffffffff16146127a0576040517f08c379a000000000000000000000000000000000000000000000000000000000815260040161279790613a52565b60405180910390fd5b6009600601544710156127e8576040517f08c379a00000000000000000000000000000000000000000000000000000000081526004016127df906138b2565b60405180910390fd5b60006064600960080154476127fd9190613c6a565b6128079190613c39565b905061281281612b50565b6003601f819055506000479050600260009054906101000a900473ffffffffffffffffffffffffffffffffffffffff1673ffffffffffffffffffffffffffffffffffffffff166108fc829081150290604051600060405180830381858888f19350505050158015612887573d6000803e3d6000fd5b505050565b3373ffffffffffffffffffffffffffffffffffffffff16600960030160009054906101000a900473ffffffffffffffffffffffffffffffffffffffff1673ffffffffffffffffffffffffffffffffffffffff161461291f576040517f08c379a000000000000000000000000000000000000000000000000000000000815260040161291690613a52565b60405180910390fd5b6012600501546020541115612969576040517f08c379a000000000000000000000000000000000000000000000000000000000815260040161296090613a12565b60405180910390fd5b6001600560008373ffffffffffffffffffffffffffffffffffffffff1673ffffffffffffffffffffffffffffffffffffffff16815260200190815260200160002060006101000a81548160ff0219169083151502179055506001602060008282546129d49190613be3565b9250508190555050565b3373ffffffffffffffffffffffffffffffffffffffff16600960030160009054906101000a900473ffffffffffffffffffffffffffffffffffffffff1673ffffffffffffffffffffffffffffffffffffffff1614612a71576040517f08c379a0000000000000000000000000000000000000000000000000000000008152600401612a6890613a52565b60405180910390fd5b6012600501546020541115612abb576040517f08c379a0000000000000000000000000000000000000000000000000000000008152600401612ab290613a12565b60405180910390fd5b60005b8251811015612b4b578160056000858481518110612adf57612ade613f17565b5b602002602001015173ffffffffffffffffffffffffffffffffffffffff1673ffffffffffffffffffffffffffffffffffffffff16815260200190815260200160002060006101000a81548160ff0219169083151502179055508080612b4390613e41565b915050612abe565b505050565b6000600960000160009054906101000a900473ffffffffffffffffffffffffffffffffffffffff1673ffffffffffffffffffffffffffffffffffffffff166370a08231306040518263ffffffff1660e01b8152600401612bb091906136ba565b60206040518083038186803b158015612bc857600080fd5b505afa158015612bdc573d6000803e3d6000fd5b505050506040513d601f19601f82011682018060405250810190612c009190613256565b9050600960000160009054906101000a900473ffffffffffffffffffffffffffffffffffffffff1673ffffffffffffffffffffffffffffffffffffffff1663095ea7b3600160009054906101000a900473ffffffffffffffffffffffffffffffffffffffff16836040518363ffffffff1660e01b8152600401612c849291906136d5565b602060405180830381600087803b158015612c9e57600080fd5b505af1158015612cb2573d6000803e3d6000fd5b505050506040513d601f19601f82011682018060405250810190612cd69190613105565b506000806000600160009054906101000a900473ffffffffffffffffffffffffffffffffffffffff1673ffffffffffffffffffffffffffffffffffffffff1663f305d71986600960000160009054906101000a900473ffffffffffffffffffffffffffffffffffffffff1687600080600260009054906101000a900473ffffffffffffffffffffffffffffffffffffffff166104b042612d769190613be3565b6040518863ffffffff1660e01b8152600401612d97969594939291906136fe565b6060604051808303818588803b158015612db057600080fd5b505af1158015612dc4573d6000803e3d6000fd5b50505050506040513d601f19601f82011682018060405250810190612de991906132c3565b9250925092505050505050565b828054612e0290613dde565b90600052602060002090601f016020900481019282612e245760008555612e6b565b82601f10612e3d57805160ff1916838001178555612e6b565b82800160010185558215612e6b579182015b82811115612e6a578251825591602001919060010190612e4f565b5b509050612e789190612e7c565b5090565b5b80821115612e95576000816000905550600101612e7d565b5090565b6000612eac612ea784613b6a565b613b45565b90508083825260208201905082856020860282011115612ecf57612ece613f7a565b5b60005b85811015612eff5781612ee58882612f4b565b845260208401935060208301925050600181019050612ed2565b5050509392505050565b6000612f1c612f1784613b96565b613b45565b905082815260208101848484011115612f3857612f37613f7f565b5b612f43848285613d9c565b509392505050565b600081359050612f5a816142a1565b92915050565b600081359050612f6f816142b8565b92915050565b600082601f830112612f8a57612f89613f75565b5b8135612f9a848260208601612e99565b91505092915050565b600081359050612fb2816142cf565b92915050565b600081519050612fc7816142cf565b92915050565b600081359050612fdc816142e6565b92915050565b600081359050612ff1816142fd565b92915050565b600082601f83011261300c5761300b613f75565b5b813561301c848260208601612f09565b91505092915050565b60008135905061303481614314565b92915050565b60008151905061304981614314565b92915050565b60006020828403121561306557613064613f89565b5b600061307384828501612f4b565b91505092915050565b60006020828403121561309257613091613f89565b5b60006130a084828501612f60565b91505092915050565b600080604083850312156130c0576130bf613f89565b5b600083013567ffffffffffffffff8111156130de576130dd613f84565b5b6130ea85828601612f75565b92505060206130fb85828601612fa3565b9150509250929050565b60006020828403121561311b5761311a613f89565b5b600061312984828501612fb8565b91505092915050565b60006020828403121561314857613147613f89565b5b600061315684828501612fcd565b91505092915050565b60008060008060008060008060006101208a8c03121561318257613181613f89565b5b60006131908c828d01612fcd565b99505060206131a18c828d01613025565b98505060406131b28c828d01612fe2565b97505060606131c38c828d01612f60565b96505060806131d48c828d01613025565b95505060a06131e58c828d01613025565b94505060c06131f68c828d01613025565b93505060e06132078c828d01613025565b9250506101006132198c828d01613025565b9150509295985092959850929598565b60006020828403121561323f5761323e613f89565b5b600061324d84828501613025565b91505092915050565b60006020828403121561326c5761326b613f89565b5b600061327a8482850161303a565b91505092915050565b6000806040838503121561329a57613299613f89565b5b60006132a885828601613025565b92505060206132b985828601613025565b9150509250929050565b6000806000606084860312156132dc576132db613f89565b5b60006132ea8682870161303a565b93505060206132fb8682870161303a565b925050604061330c8682870161303a565b9150509250925092565b600080600080600080600080610100898b03121561333757613336613f89565b5b60006133458b828c01613025565b98505060206133568b828c01613025565b97505060406133678b828c01613025565b96505060606133788b828c01612fa3565b95505060806133898b828c01613025565b94505060a061339a8b828c01613025565b93505060c06133ab8b828c01612fa3565b92505060e089013567ffffffffffffffff8111156133cc576133cb613f84565b5b6133d88b828c01612ff7565b9150509295985092959890939650565b6133f181613cd6565b82525050565b61340081613cc4565b82525050565b61340f81613ce8565b82525050565b61341e81613d42565b82525050565b61342d81613d66565b82525050565b61343c81613d8a565b82525050565b600061344d82613bc7565b6134578185613bd2565b9350613467818560208601613dab565b61347081613f8e565b840191505092915050565b6000613488603983613bd2565b915061349382613f9f565b604082019050919050565b60006134ab602683613bd2565b91506134b682613fee565b604082019050919050565b60006134ce601983613bd2565b91506134d98261403d565b602082019050919050565b60006134f1600c83613bd2565b91506134fc82614066565b602082019050919050565b6000613514601783613bd2565b915061351f8261408f565b602082019050919050565b6000613537601683613bd2565b9150613542826140b8565b602082019050919050565b600061355a600f83613bd2565b9150613565826140e1565b602082019050919050565b600061357d601b83613bd2565b91506135888261410a565b602082019050919050565b60006135a0601283613bd2565b91506135ab82614133565b602082019050919050565b60006135c3600f83613bd2565b91506135ce8261415c565b602082019050919050565b60006135e6601283613bd2565b91506135f182614185565b602082019050919050565b6000613609601c83613bd2565b9150613614826141ae565b602082019050919050565b600061362c601783613bd2565b9150613637826141d7565b602082019050919050565b600061364f601f83613bd2565b915061365a82614200565b602082019050919050565b6000613672601183613bd2565b915061367d82614229565b602082019050919050565b6000613695602c83613bd2565b91506136a082614252565b604082019050919050565b6136b481613d38565b82525050565b60006020820190506136cf60008301846133f7565b92915050565b60006040820190506136ea60008301856133f7565b6136f760208301846136ab565b9392505050565b600060c08201905061371360008301896133f7565b61372060208301886136ab565b61372d6040830187613433565b61373a6060830186613433565b61374760808301856133f7565b61375460a08301846136ab565b979650505050505050565b60006020820190506137746000830184613406565b92915050565b600061012082019050613790600083018c613415565b61379d602083018b6136ab565b6137aa604083018a613424565b6137b760608301896133e8565b6137c460808301886136ab565b6137d160a08301876136ab565b6137de60c08301866136ab565b6137eb60e08301856136ab565b6137f96101008301846136ab565b9a9950505050505050505050565b600060c08201905081810360008301526138218189613442565b905081810360208301526138358188613442565b905081810360408301526138498187613442565b9050818103606083015261385d8186613442565b905081810360808301526138718185613442565b905081810360a08301526138858184613442565b9050979650505050505050565b600060208201905081810360008301526138ab8161347b565b9050919050565b600060208201905081810360008301526138cb8161349e565b9050919050565b600060208201905081810360008301526138eb816134c1565b9050919050565b6000602082019050818103600083015261390b816134e4565b9050919050565b6000602082019050818103600083015261392b81613507565b9050919050565b6000602082019050818103600083015261394b8161352a565b9050919050565b6000602082019050818103600083015261396b8161354d565b9050919050565b6000602082019050818103600083015261398b81613570565b9050919050565b600060208201905081810360008301526139ab81613593565b9050919050565b600060208201905081810360008301526139cb816135b6565b9050919050565b600060208201905081810360008301526139eb816135d9565b9050919050565b60006020820190508181036000830152613a0b816135fc565b9050919050565b60006020820190508181036000830152613a2b8161361f565b9050919050565b60006020820190508181036000830152613a4b81613642565b9050919050565b60006020820190508181036000830152613a6b81613665565b9050919050565b60006020820190508181036000830152613a8b81613688565b9050919050565b6000602082019050613aa760008301846136ab565b92915050565b6000604082019050613ac260008301856136ab565b613acf60208301846136ab565b9392505050565b600060e082019050613aeb600083018a6136ab565b613af860208301896136ab565b613b056040830188613406565b613b1260608301876136ab565b613b1f60808301866136ab565b613b2c60a08301856136ab565b613b3960c0830184613406565b98975050505050505050565b6000613b4f613b60565b9050613b5b8282613e10565b919050565b6000604051905090565b600067ffffffffffffffff821115613b8557613b84613f46565b5b602082029050602081019050919050565b600067ffffffffffffffff821115613bb157613bb0613f46565b5b613bba82613f8e565b9050602081019050919050565b600081519050919050565b600082825260208201905092915050565b6000613bee82613d38565b9150613bf983613d38565b9250827fffffffffffffffffffffffffffffffffffffffffffffffffffffffffffffffff03821115613c2e57613c2d613e8a565b5b828201905092915050565b6000613c4482613d38565b9150613c4f83613d38565b925082613c5f57613c5e613eb9565b5b828204905092915050565b6000613c7582613d38565b9150613c8083613d38565b9250817fffffffffffffffffffffffffffffffffffffffffffffffffffffffffffffffff0483118215151615613cb957613cb8613e8a565b5b828202905092915050565b6000613ccf82613d18565b9050919050565b6000613ce182613d18565b9050919050565b60008115159050919050565b6000613cff82613cc4565b9050919050565b6000613d1182613cc4565b9050919050565b600073ffffffffffffffffffffffffffffffffffffffff82169050919050565b6000819050919050565b6000613d4d82613d54565b9050919050565b6000613d5f82613d18565b9050919050565b6000613d7182613d78565b9050919050565b6000613d8382613d18565b9050919050565b6000613d9582613d38565b9050919050565b82818337600083830152505050565b60005b83811015613dc9578082015181840152602081019050613dae565b83811115613dd8576000848401525b50505050565b60006002820490506001821680613df657607f821691505b60208210811415613e0a57613e09613ee8565b5b50919050565b613e1982613f8e565b810181811067ffffffffffffffff82111715613e3857613e37613f46565b5b80604052505050565b6000613e4c82613d38565b91507fffffffffffffffffffffffffffffffffffffffffffffffffffffffffffffffff821415613e7f57613e7e613e8a565b5b600182019050919050565b7f4e487b7100000000000000000000000000000000000000000000000000000000600052601160045260246000fd5b7f4e487b7100000000000000000000000000000000000000000000000000000000600052601260045260246000fd5b7f4e487b7100000000000000000000000000000000000000000000000000000000600052602260045260246000fd5b7f4e487b7100000000000000000000000000000000000000000000000000000000600052603260045260246000fd5b7f4e487b7100000000000000000000000000000000000000000000000000000000600052604160045260246000fd5b600080fd5b600080fd5b600080fd5b600080fd5b600080fd5b6000601f19601f8301169050919050565b7f436f6e747269627574696f6e206e6565647320746f20626520696e207468652060008201527f6d696e696d756d206275792f6d6178206275792072616e676500000000000000602082015250565b7f6d61726b65742063616e742073746172742c20736f6674636170206e6f74207260008201527f6561636865640000000000000000000000000000000000000000000000000000602082015250565b7f6e6f74206f6e2074696d6520666f722077686974656c69737400000000000000600082015250565b7f4e6f7420616e2061646d696e0000000000000000000000000000000000000000600082015250565b7f43616e7420636f6e7472696275746520616e796d6f7265000000000000000000600082015250565b7f6e6f7420612077686974656c69737465642073616c6500000000000000000000600082015250565b7f4e6f742077686974656c69737465640000000000000000000000000000000000600082015250565b7f6e6f74206f6e2074696d6520666f72207075626c69632073616c650000000000600082015250565b7f6e6f7420726561647920746f20636c61696d0000000000000000000000000000600082015250565b7f4e6f7420636f6e74726962757465640000000000000000000000000000000000600082015250565b7f6e6f74206120726566756e642070686173650000000000000000000000000000600082015250565b7f4f6e6c79207365747465722063616e20696e69742070726573616c6500000000600082015250565b7f4e6f206d6f72652077686974656c6973742073706f7473000000000000000000600082015250565b7f5265656e7472616e637947756172643a207265656e7472616e742063616c6c00600082015250565b7f4e4f542050524553414c45204f574e4552000000000000000000000000000000600082015250565b7f4e6f20746f6b656e7320746f206265207472616e736665726564206f7220636f60008201527f6e747261637420656d7074790000000000000000000000000000000000000000602082015250565b6142aa81613cc4565b81146142b557600080fd5b50565b6142c181613cd6565b81146142cc57600080fd5b50565b6142d881613ce8565b81146142e357600080fd5b50565b6142ef81613cf4565b81146142fa57600080fd5b50565b61430681613d06565b811461431157600080fd5b50565b61431d81613d38565b811461432857600080fd5b5056fea264697066735822122078f346ea39f547a2d6435fc3ff4aa182e2a94f7eacff727c260069255255be7064736f6c63430008060033a264697066735822122017dff3fcaa441214d500c52a2bcc44f47889d9a361bbe6a55a2609d7d1a9e9b564736f6c63430008060033",
			"opcodes": "PUSH1 0x80 PUSH1 0x40 MSTORE CALLVALUE DUP1 ISZERO PUSH2 0x10 JUMPI PUSH1 0x0 DUP1 REVERT JUMPDEST POP PUSH2 0x2D PUSH2 0x22 PUSH2 0x39 PUSH1 0x20 SHL PUSH1 0x20 SHR JUMP JUMPDEST PUSH2 0x41 PUSH1 0x20 SHL PUSH1 0x20 SHR JUMP JUMPDEST PUSH1 0x1 DUP1 DUP2 SWAP1 SSTORE POP PUSH2 0x105 JUMP JUMPDEST PUSH1 0x0 CALLER SWAP1 POP SWAP1 JUMP JUMPDEST PUSH1 0x0 DUP1 PUSH1 0x0 SWAP1 SLOAD SWAP1 PUSH2 0x100 EXP SWAP1 DIV PUSH20 0xFFFFFFFFFFFFFFFFFFFFFFFFFFFFFFFFFFFFFFFF AND SWAP1 POP DUP2 PUSH1 0x0 DUP1 PUSH2 0x100 EXP DUP2 SLOAD DUP2 PUSH20 0xFFFFFFFFFFFFFFFFFFFFFFFFFFFFFFFFFFFFFFFF MUL NOT AND SWAP1 DUP4 PUSH20 0xFFFFFFFFFFFFFFFFFFFFFFFFFFFFFFFFFFFFFFFF AND MUL OR SWAP1 SSTORE POP DUP2 PUSH20 0xFFFFFFFFFFFFFFFFFFFFFFFFFFFFFFFFFFFFFFFF AND DUP2 PUSH20 0xFFFFFFFFFFFFFFFFFFFFFFFFFFFFFFFFFFFFFFFF AND PUSH32 0x8BE0079C531659141344CD1FD0A4F28419497F9722A3DAAFE3B4186F6B6457E0 PUSH1 0x40 MLOAD PUSH1 0x40 MLOAD DUP1 SWAP2 SUB SWAP1 LOG3 POP POP JUMP JUMPDEST PUSH2 0x566A DUP1 PUSH2 0x114 PUSH1 0x0 CODECOPY PUSH1 0x0 RETURN INVALID PUSH1 0x80 PUSH1 0x40 MSTORE PUSH1 0x4 CALLDATASIZE LT PUSH3 0x92 JUMPI PUSH1 0x0 CALLDATALOAD PUSH1 0xE0 SHR DUP1 PUSH4 0x715018A6 GT PUSH3 0x61 JUMPI DUP1 PUSH4 0x715018A6 EQ PUSH3 0x145 JUMPI DUP1 PUSH4 0x8DA5CB5B EQ PUSH3 0x15F JUMPI DUP1 PUSH4 0xB9F889CC EQ PUSH3 0x18F JUMPI DUP1 PUSH4 0xBBCAAC38 EQ PUSH3 0x1D3 JUMPI DUP1 PUSH4 0xF2FDE38B EQ PUSH3 0x201 JUMPI PUSH3 0x92 JUMP JUMPDEST DUP1 PUSH4 0x20B33629 EQ PUSH3 0x97 JUMPI DUP1 PUSH4 0x476343EE EQ PUSH3 0xB7 JUMPI DUP1 PUSH4 0x4E76EDBB EQ PUSH3 0xD1 JUMPI DUP1 PUSH4 0x65384F36 EQ PUSH3 0x101 JUMPI JUMPDEST PUSH1 0x0 DUP1 REVERT JUMPDEST PUSH3 0xB5 PUSH1 0x4 DUP1 CALLDATASIZE SUB DUP2 ADD SWAP1 PUSH3 0xAF SWAP2 SWAP1 PUSH3 0xAA6 JUMP JUMPDEST PUSH3 0x22F JUMP JUMPDEST STOP JUMPDEST CALLVALUE DUP1 ISZERO PUSH3 0xC4 JUMPI PUSH1 0x0 DUP1 REVERT JUMPDEST POP PUSH3 0xCF PUSH3 0x368 JUMP JUMPDEST STOP JUMPDEST CALLVALUE DUP1 ISZERO PUSH3 0xDE JUMPI PUSH1 0x0 DUP1 REVERT JUMPDEST POP PUSH3 0xE9 PUSH3 0x45D JUMP JUMPDEST PUSH1 0x40 MLOAD PUSH3 0xF8 SWAP2 SWAP1 PUSH3 0xE15 JUMP JUMPDEST PUSH1 0x40 MLOAD DUP1 SWAP2 SUB SWAP1 RETURN JUMPDEST CALLVALUE DUP1 ISZERO PUSH3 0x10E JUMPI PUSH1 0x0 DUP1 REVERT JUMPDEST POP PUSH3 0x12D PUSH1 0x4 DUP1 CALLDATASIZE SUB DUP2 ADD SWAP1 PUSH3 0x127 SWAP2 SWAP1 PUSH3 0xB9C JUMP JUMPDEST PUSH3 0x470 JUMP JUMPDEST PUSH1 0x40 MLOAD PUSH3 0x13C SWAP2 SWAP1 PUSH3 0xCA9 JUMP JUMPDEST PUSH1 0x40 MLOAD DUP1 SWAP2 SUB SWAP1 RETURN JUMPDEST CALLVALUE DUP1 ISZERO PUSH3 0x152 JUMPI PUSH1 0x0 DUP1 REVERT JUMPDEST POP PUSH3 0x15D PUSH3 0x48F JUMP JUMPDEST STOP JUMPDEST CALLVALUE DUP1 ISZERO PUSH3 0x16C JUMPI PUSH1 0x0 DUP1 REVERT JUMPDEST POP PUSH3 0x177 PUSH3 0x520 JUMP JUMPDEST PUSH1 0x40 MLOAD PUSH3 0x186 SWAP2 SWAP1 PUSH3 0xCA9 JUMP JUMPDEST PUSH1 0x40 MLOAD DUP1 SWAP2 SUB SWAP1 RETURN JUMPDEST CALLVALUE DUP1 ISZERO PUSH3 0x19C JUMPI PUSH1 0x0 DUP1 REVERT JUMPDEST POP PUSH3 0x1BB PUSH1 0x4 DUP1 CALLDATASIZE SUB DUP2 ADD SWAP1 PUSH3 0x1B5 SWAP2 SWAP1 PUSH3 0xB9C JUMP JUMPDEST PUSH3 0x549 JUMP JUMPDEST PUSH1 0x40 MLOAD PUSH3 0x1CA SWAP2 SWAP1 PUSH3 0xD92 JUMP JUMPDEST PUSH1 0x40 MLOAD DUP1 SWAP2 SUB SWAP1 RETURN JUMPDEST CALLVALUE DUP1 ISZERO PUSH3 0x1E0 JUMPI PUSH1 0x0 DUP1 REVERT JUMPDEST POP PUSH3 0x1FF PUSH1 0x4 DUP1 CALLDATASIZE SUB DUP2 ADD SWAP1 PUSH3 0x1F9 SWAP2 SWAP1 PUSH3 0xA74 JUMP JUMPDEST PUSH3 0x589 JUMP JUMPDEST STOP JUMPDEST CALLVALUE DUP1 ISZERO PUSH3 0x20E JUMPI PUSH1 0x0 DUP1 REVERT JUMPDEST POP PUSH3 0x22D PUSH1 0x4 DUP1 CALLDATASIZE SUB DUP2 ADD SWAP1 PUSH3 0x227 SWAP2 SWAP1 PUSH3 0xA42 JUMP JUMPDEST PUSH3 0x650 JUMP JUMPDEST STOP JUMPDEST PUSH1 0x0 ADDRESS DUP12 PUSH1 0x40 MLOAD PUSH3 0x241 SWAP1 PUSH3 0x9C1 JUMP JUMPDEST PUSH3 0x24E SWAP3 SWAP2 SWAP1 PUSH3 0xCC6 JUMP JUMPDEST PUSH1 0x40 MLOAD DUP1 SWAP2 SUB SWAP1 PUSH1 0x0 CREATE DUP1 ISZERO DUP1 ISZERO PUSH3 0x26B JUMPI RETURNDATASIZE PUSH1 0x0 DUP1 RETURNDATACOPY RETURNDATASIZE PUSH1 0x0 REVERT JUMPDEST POP SWAP1 POP PUSH3 0x279 DUP2 PUSH3 0x754 JUMP JUMPDEST PUSH1 0x7 DUP2 SWAP1 DUP1 PUSH1 0x1 DUP2 SLOAD ADD DUP1 DUP3 SSTORE DUP1 SWAP2 POP POP PUSH1 0x1 SWAP1 SUB SWAP1 PUSH1 0x0 MSTORE PUSH1 0x20 PUSH1 0x0 KECCAK256 ADD PUSH1 0x0 SWAP1 SWAP2 SWAP1 SWAP2 SWAP1 SWAP2 PUSH2 0x100 EXP DUP2 SLOAD DUP2 PUSH20 0xFFFFFFFFFFFFFFFFFFFFFFFFFFFFFFFFFFFFFFFF MUL NOT AND SWAP1 DUP4 PUSH20 0xFFFFFFFFFFFFFFFFFFFFFFFFFFFFFFFFFFFFFFFF AND MUL OR SWAP1 SSTORE POP DUP1 PUSH20 0xFFFFFFFFFFFFFFFFFFFFFFFFFFFFFFFFFFFFFFFF AND PUSH4 0x3A54DB3A DUP12 DUP12 DUP12 DUP12 DUP12 DUP12 DUP12 DUP12 DUP12 PUSH1 0x40 MLOAD DUP11 PUSH4 0xFFFFFFFF AND PUSH1 0xE0 SHL DUP2 MSTORE PUSH1 0x4 ADD PUSH3 0x327 SWAP10 SWAP9 SWAP8 SWAP7 SWAP6 SWAP5 SWAP4 SWAP3 SWAP2 SWAP1 PUSH3 0xCF3 JUMP JUMPDEST PUSH1 0x0 PUSH1 0x40 MLOAD DUP1 DUP4 SUB DUP2 PUSH1 0x0 DUP8 DUP1 EXTCODESIZE ISZERO DUP1 ISZERO PUSH3 0x342 JUMPI PUSH1 0x0 DUP1 REVERT JUMPDEST POP GAS CALL ISZERO DUP1 ISZERO PUSH3 0x357 JUMPI RETURNDATASIZE PUSH1 0x0 DUP1 RETURNDATACOPY RETURNDATASIZE PUSH1 0x0 REVERT JUMPDEST POP POP POP POP POP POP POP POP POP POP POP POP POP POP POP JUMP JUMPDEST PUSH3 0x372 PUSH3 0x76E JUMP JUMPDEST PUSH20 0xFFFFFFFFFFFFFFFFFFFFFFFFFFFFFFFFFFFFFFFF AND PUSH3 0x392 PUSH3 0x520 JUMP JUMPDEST PUSH20 0xFFFFFFFFFFFFFFFFFFFFFFFFFFFFFFFFFFFFFFFF AND EQ PUSH3 0x3EB JUMPI PUSH1 0x40 MLOAD PUSH32 0x8C379A000000000000000000000000000000000000000000000000000000000 DUP2 MSTORE PUSH1 0x4 ADD PUSH3 0x3E2 SWAP1 PUSH3 0xDF3 JUMP JUMPDEST PUSH1 0x40 MLOAD DUP1 SWAP2 SUB SWAP1 REVERT JUMPDEST PUSH1 0x0 SELFBALANCE SWAP1 POP PUSH1 0x6 PUSH1 0x0 SWAP1 SLOAD SWAP1 PUSH2 0x100 EXP SWAP1 DIV PUSH20 0xFFFFFFFFFFFFFFFFFFFFFFFFFFFFFFFFFFFFFFFF AND PUSH20 0xFFFFFFFFFFFFFFFFFFFFFFFFFFFFFFFFFFFFFFFF AND PUSH2 0x8FC DUP3 SWAP1 DUP2 ISZERO MUL SWAP1 PUSH1 0x40 MLOAD PUSH1 0x0 PUSH1 0x40 MLOAD DUP1 DUP4 SUB DUP2 DUP6 DUP9 DUP9 CALL SWAP4 POP POP POP POP ISZERO DUP1 ISZERO PUSH3 0x459 JUMPI RETURNDATASIZE PUSH1 0x0 DUP1 RETURNDATACOPY RETURNDATASIZE PUSH1 0x0 REVERT JUMPDEST POP POP JUMP JUMPDEST PUSH1 0x0 PUSH3 0x46B PUSH1 0x2 PUSH3 0x776 JUMP JUMPDEST SWAP1 POP SWAP1 JUMP JUMPDEST PUSH1 0x0 PUSH3 0x488 DUP3 PUSH1 0x2 PUSH3 0x78D SWAP1 SWAP2 SWAP1 PUSH4 0xFFFFFFFF AND JUMP JUMPDEST SWAP1 POP SWAP2 SWAP1 POP JUMP JUMPDEST PUSH3 0x499 PUSH3 0x76E JUMP JUMPDEST PUSH20 0xFFFFFFFFFFFFFFFFFFFFFFFFFFFFFFFFFFFFFFFF AND PUSH3 0x4B9 PUSH3 0x520 JUMP JUMPDEST PUSH20 0xFFFFFFFFFFFFFFFFFFFFFFFFFFFFFFFFFFFFFFFF AND EQ PUSH3 0x512 JUMPI PUSH1 0x40 MLOAD PUSH32 0x8C379A000000000000000000000000000000000000000000000000000000000 DUP2 MSTORE PUSH1 0x4 ADD PUSH3 0x509 SWAP1 PUSH3 0xDF3 JUMP JUMPDEST PUSH1 0x40 MLOAD DUP1 SWAP2 SUB SWAP1 REVERT JUMPDEST PUSH3 0x51E PUSH1 0x0 PUSH3 0x7A9 JUMP JUMPDEST JUMP JUMPDEST PUSH1 0x0 DUP1 PUSH1 0x0 SWAP1 SLOAD SWAP1 PUSH2 0x100 EXP SWAP1 DIV PUSH20 0xFFFFFFFFFFFFFFFFFFFFFFFFFFFFFFFFFFFFFFFF AND SWAP1 POP SWAP1 JUMP JUMPDEST PUSH1 0x7 DUP2 DUP2 SLOAD DUP2 LT PUSH3 0x55A JUMPI PUSH1 0x0 DUP1 REVERT JUMPDEST SWAP1 PUSH1 0x0 MSTORE PUSH1 0x20 PUSH1 0x0 KECCAK256 ADD PUSH1 0x0 SWAP2 POP SLOAD SWAP1 PUSH2 0x100 EXP SWAP1 DIV PUSH20 0xFFFFFFFFFFFFFFFFFFFFFFFFFFFFFFFFFFFFFFFF AND DUP2 JUMP JUMPDEST PUSH3 0x593 PUSH3 0x76E JUMP JUMPDEST PUSH20 0xFFFFFFFFFFFFFFFFFFFFFFFFFFFFFFFFFFFFFFFF AND PUSH3 0x5B3 PUSH3 0x520 JUMP JUMPDEST PUSH20 0xFFFFFFFFFFFFFFFFFFFFFFFFFFFFFFFFFFFFFFFF AND EQ PUSH3 0x60C JUMPI PUSH1 0x40 MLOAD PUSH32 0x8C379A000000000000000000000000000000000000000000000000000000000 DUP2 MSTORE PUSH1 0x4 ADD PUSH3 0x603 SWAP1 PUSH3 0xDF3 JUMP JUMPDEST PUSH1 0x40 MLOAD DUP1 SWAP2 SUB SWAP1 REVERT JUMPDEST DUP1 PUSH1 0x6 PUSH1 0x0 PUSH2 0x100 EXP DUP2 SLOAD DUP2 PUSH20 0xFFFFFFFFFFFFFFFFFFFFFFFFFFFFFFFFFFFFFFFF MUL NOT AND SWAP1 DUP4 PUSH20 0xFFFFFFFFFFFFFFFFFFFFFFFFFFFFFFFFFFFFFFFF AND MUL OR SWAP1 SSTORE POP POP JUMP JUMPDEST PUSH3 0x65A PUSH3 0x76E JUMP JUMPDEST PUSH20 0xFFFFFFFFFFFFFFFFFFFFFFFFFFFFFFFFFFFFFFFF AND PUSH3 0x67A PUSH3 0x520 JUMP JUMPDEST PUSH20 0xFFFFFFFFFFFFFFFFFFFFFFFFFFFFFFFFFFFFFFFF AND EQ PUSH3 0x6D3 JUMPI PUSH1 0x40 MLOAD PUSH32 0x8C379A000000000000000000000000000000000000000000000000000000000 DUP2 MSTORE PUSH1 0x4 ADD PUSH3 0x6CA SWAP1 PUSH3 0xDF3 JUMP JUMPDEST PUSH1 0x40 MLOAD DUP1 SWAP2 SUB SWAP1 REVERT JUMPDEST PUSH1 0x0 PUSH20 0xFFFFFFFFFFFFFFFFFFFFFFFFFFFFFFFFFFFFFFFF AND DUP2 PUSH20 0xFFFFFFFFFFFFFFFFFFFFFFFFFFFFFFFFFFFFFFFF AND EQ ISZERO PUSH3 0x746 JUMPI PUSH1 0x40 MLOAD PUSH32 0x8C379A000000000000000000000000000000000000000000000000000000000 DUP2 MSTORE PUSH1 0x4 ADD PUSH3 0x73D SWAP1 PUSH3 0xDD1 JUMP JUMPDEST PUSH1 0x40 MLOAD DUP1 SWAP2 SUB SWAP1 REVERT JUMPDEST PUSH3 0x751 DUP2 PUSH3 0x7A9 JUMP JUMPDEST POP JUMP JUMPDEST PUSH3 0x76A DUP2 PUSH1 0x2 PUSH3 0x86D SWAP1 SWAP2 SWAP1 PUSH4 0xFFFFFFFF AND JUMP JUMPDEST POP POP JUMP JUMPDEST PUSH1 0x0 CALLER SWAP1 POP SWAP1 JUMP JUMPDEST PUSH1 0x0 PUSH3 0x786 DUP3 PUSH1 0x0 ADD PUSH3 0x89F JUMP JUMPDEST SWAP1 POP SWAP2 SWAP1 POP JUMP JUMPDEST PUSH1 0x0 PUSH3 0x79E DUP4 PUSH1 0x0 ADD DUP4 PUSH3 0x8B0 JUMP JUMPDEST PUSH1 0x0 SHR SWAP1 POP SWAP3 SWAP2 POP POP JUMP JUMPDEST PUSH1 0x0 DUP1 PUSH1 0x0 SWAP1 SLOAD SWAP1 PUSH2 0x100 EXP SWAP1 DIV PUSH20 0xFFFFFFFFFFFFFFFFFFFFFFFFFFFFFFFFFFFFFFFF AND SWAP1 POP DUP2 PUSH1 0x0 DUP1 PUSH2 0x100 EXP DUP2 SLOAD DUP2 PUSH20 0xFFFFFFFFFFFFFFFFFFFFFFFFFFFFFFFFFFFFFFFF MUL NOT AND SWAP1 DUP4 PUSH20 0xFFFFFFFFFFFFFFFFFFFFFFFFFFFFFFFFFFFFFFFF AND MUL OR SWAP1 SSTORE POP DUP2 PUSH20 0xFFFFFFFFFFFFFFFFFFFFFFFFFFFFFFFFFFFFFFFF AND DUP2 PUSH20 0xFFFFFFFFFFFFFFFFFFFFFFFFFFFFFFFFFFFFFFFF AND PUSH32 0x8BE0079C531659141344CD1FD0A4F28419497F9722A3DAAFE3B4186F6B6457E0 PUSH1 0x40 MLOAD PUSH1 0x40 MLOAD DUP1 SWAP2 SUB SWAP1 LOG3 POP POP JUMP JUMPDEST PUSH1 0x0 PUSH3 0x897 DUP4 PUSH1 0x0 ADD DUP4 PUSH20 0xFFFFFFFFFFFFFFFFFFFFFFFFFFFFFFFFFFFFFFFF AND PUSH1 0x0 SHL PUSH3 0x92A JUMP JUMPDEST SWAP1 POP SWAP3 SWAP2 POP POP JUMP JUMPDEST PUSH1 0x0 DUP2 PUSH1 0x0 ADD DUP1 SLOAD SWAP1 POP SWAP1 POP SWAP2 SWAP1 POP JUMP JUMPDEST PUSH1 0x0 DUP2 DUP4 PUSH1 0x0 ADD DUP1 SLOAD SWAP1 POP GT PUSH3 0x8FE JUMPI PUSH1 0x40 MLOAD PUSH32 0x8C379A000000000000000000000000000000000000000000000000000000000 DUP2 MSTORE PUSH1 0x4 ADD PUSH3 0x8F5 SWAP1 PUSH3 0xDAF JUMP JUMPDEST PUSH1 0x40 MLOAD DUP1 SWAP2 SUB SWAP1 REVERT JUMPDEST DUP3 PUSH1 0x0 ADD DUP3 DUP2 SLOAD DUP2 LT PUSH3 0x917 JUMPI PUSH3 0x916 PUSH3 0xF35 JUMP JUMPDEST JUMPDEST SWAP1 PUSH1 0x0 MSTORE PUSH1 0x20 PUSH1 0x0 KECCAK256 ADD SLOAD SWAP1 POP SWAP3 SWAP2 POP POP JUMP JUMPDEST PUSH1 0x0 PUSH3 0x938 DUP4 DUP4 PUSH3 0x99E JUMP JUMPDEST PUSH3 0x993 JUMPI DUP3 PUSH1 0x0 ADD DUP3 SWAP1 DUP1 PUSH1 0x1 DUP2 SLOAD ADD DUP1 DUP3 SSTORE DUP1 SWAP2 POP POP PUSH1 0x1 SWAP1 SUB SWAP1 PUSH1 0x0 MSTORE PUSH1 0x20 PUSH1 0x0 KECCAK256 ADD PUSH1 0x0 SWAP1 SWAP2 SWAP1 SWAP2 SWAP1 SWAP2 POP SSTORE DUP3 PUSH1 0x0 ADD DUP1 SLOAD SWAP1 POP DUP4 PUSH1 0x1 ADD PUSH1 0x0 DUP5 DUP2 MSTORE PUSH1 0x20 ADD SWAP1 DUP2 MSTORE PUSH1 0x20 ADD PUSH1 0x0 KECCAK256 DUP2 SWAP1 SSTORE POP PUSH1 0x1 SWAP1 POP PUSH3 0x998 JUMP JUMPDEST PUSH1 0x0 SWAP1 POP JUMPDEST SWAP3 SWAP2 POP POP JUMP JUMPDEST PUSH1 0x0 DUP1 DUP4 PUSH1 0x1 ADD PUSH1 0x0 DUP5 DUP2 MSTORE PUSH1 0x20 ADD SWAP1 DUP2 MSTORE PUSH1 0x20 ADD PUSH1 0x0 KECCAK256 SLOAD EQ ISZERO SWAP1 POP SWAP3 SWAP2 POP POP JUMP JUMPDEST PUSH2 0x4582 DUP1 PUSH3 0x10B3 DUP4 CODECOPY ADD SWAP1 JUMP JUMPDEST PUSH1 0x0 DUP2 CALLDATALOAD SWAP1 POP PUSH3 0x9E0 DUP2 PUSH3 0x1030 JUMP JUMPDEST SWAP3 SWAP2 POP POP JUMP JUMPDEST PUSH1 0x0 DUP2 CALLDATALOAD SWAP1 POP PUSH3 0x9F7 DUP2 PUSH3 0x104A JUMP JUMPDEST SWAP3 SWAP2 POP POP JUMP JUMPDEST PUSH1 0x0 DUP2 CALLDATALOAD SWAP1 POP PUSH3 0xA0E DUP2 PUSH3 0x1064 JUMP JUMPDEST SWAP3 SWAP2 POP POP JUMP JUMPDEST PUSH1 0x0 DUP2 CALLDATALOAD SWAP1 POP PUSH3 0xA25 DUP2 PUSH3 0x107E JUMP JUMPDEST SWAP3 SWAP2 POP POP JUMP JUMPDEST PUSH1 0x0 DUP2 CALLDATALOAD SWAP1 POP PUSH3 0xA3C DUP2 PUSH3 0x1098 JUMP JUMPDEST SWAP3 SWAP2 POP POP JUMP JUMPDEST PUSH1 0x0 PUSH1 0x20 DUP3 DUP5 SUB SLT ISZERO PUSH3 0xA5B JUMPI PUSH3 0xA5A PUSH3 0xF64 JUMP JUMPDEST JUMPDEST PUSH1 0x0 PUSH3 0xA6B DUP5 DUP3 DUP6 ADD PUSH3 0x9CF JUMP JUMPDEST SWAP2 POP POP SWAP3 SWAP2 POP POP JUMP JUMPDEST PUSH1 0x0 PUSH1 0x20 DUP3 DUP5 SUB SLT ISZERO PUSH3 0xA8D JUMPI PUSH3 0xA8C PUSH3 0xF64 JUMP JUMPDEST JUMPDEST PUSH1 0x0 PUSH3 0xA9D DUP5 DUP3 DUP6 ADD PUSH3 0x9E6 JUMP JUMPDEST SWAP2 POP POP SWAP3 SWAP2 POP POP JUMP JUMPDEST PUSH1 0x0 DUP1 PUSH1 0x0 DUP1 PUSH1 0x0 DUP1 PUSH1 0x0 DUP1 PUSH1 0x0 DUP1 PUSH2 0x140 DUP12 DUP14 SUB SLT ISZERO PUSH3 0xACD JUMPI PUSH3 0xACC PUSH3 0xF64 JUMP JUMPDEST JUMPDEST PUSH1 0x0 PUSH3 0xADD DUP14 DUP3 DUP15 ADD PUSH3 0x9E6 JUMP JUMPDEST SWAP11 POP POP PUSH1 0x20 PUSH3 0xAF0 DUP14 DUP3 DUP15 ADD PUSH3 0x9FD JUMP JUMPDEST SWAP10 POP POP PUSH1 0x40 PUSH3 0xB03 DUP14 DUP3 DUP15 ADD PUSH3 0xA2B JUMP JUMPDEST SWAP9 POP POP PUSH1 0x60 PUSH3 0xB16 DUP14 DUP3 DUP15 ADD PUSH3 0xA14 JUMP JUMPDEST SWAP8 POP POP PUSH1 0x80 PUSH3 0xB29 DUP14 DUP3 DUP15 ADD PUSH3 0x9E6 JUMP JUMPDEST SWAP7 POP POP PUSH1 0xA0 PUSH3 0xB3C DUP14 DUP3 DUP15 ADD PUSH3 0xA2B JUMP JUMPDEST SWAP6 POP POP PUSH1 0xC0 PUSH3 0xB4F DUP14 DUP3 DUP15 ADD PUSH3 0xA2B JUMP JUMPDEST SWAP5 POP POP PUSH1 0xE0 PUSH3 0xB62 DUP14 DUP3 DUP15 ADD PUSH3 0xA2B JUMP JUMPDEST SWAP4 POP POP PUSH2 0x100 PUSH3 0xB76 DUP14 DUP3 DUP15 ADD PUSH3 0xA2B JUMP JUMPDEST SWAP3 POP POP PUSH2 0x120 PUSH3 0xB8A DUP14 DUP3 DUP15 ADD PUSH3 0xA2B JUMP JUMPDEST SWAP2 POP POP SWAP3 SWAP6 SWAP9 SWAP12 SWAP2 SWAP5 SWAP8 SWAP11 POP SWAP3 SWAP6 SWAP9 POP JUMP JUMPDEST PUSH1 0x0 PUSH1 0x20 DUP3 DUP5 SUB SLT ISZERO PUSH3 0xBB5 JUMPI PUSH3 0xBB4 PUSH3 0xF64 JUMP JUMPDEST JUMPDEST PUSH1 0x0 PUSH3 0xBC5 DUP5 DUP3 DUP6 ADD PUSH3 0xA2B JUMP JUMPDEST SWAP2 POP POP SWAP3 SWAP2 POP POP JUMP JUMPDEST PUSH3 0xBD9 DUP2 PUSH3 0xE57 JUMP JUMPDEST DUP3 MSTORE POP POP JUMP JUMPDEST PUSH3 0xBEA DUP2 PUSH3 0xE43 JUMP JUMPDEST DUP3 MSTORE POP POP JUMP JUMPDEST PUSH3 0xBFB DUP2 PUSH3 0xEBD JUMP JUMPDEST DUP3 MSTORE POP POP JUMP JUMPDEST PUSH3 0xC0C DUP2 PUSH3 0xEE5 JUMP JUMPDEST DUP3 MSTORE POP POP JUMP JUMPDEST PUSH3 0xC1D DUP2 PUSH3 0xF0D JUMP JUMPDEST DUP3 MSTORE POP POP JUMP JUMPDEST PUSH1 0x0 PUSH3 0xC32 PUSH1 0x22 DUP4 PUSH3 0xE32 JUMP JUMPDEST SWAP2 POP PUSH3 0xC3F DUP3 PUSH3 0xF69 JUMP JUMPDEST PUSH1 0x40 DUP3 ADD SWAP1 POP SWAP2 SWAP1 POP JUMP JUMPDEST PUSH1 0x0 PUSH3 0xC59 PUSH1 0x26 DUP4 PUSH3 0xE32 JUMP JUMPDEST SWAP2 POP PUSH3 0xC66 DUP3 PUSH3 0xFB8 JUMP JUMPDEST PUSH1 0x40 DUP3 ADD SWAP1 POP SWAP2 SWAP1 POP JUMP JUMPDEST PUSH1 0x0 PUSH3 0xC80 PUSH1 0x20 DUP4 PUSH3 0xE32 JUMP JUMPDEST SWAP2 POP PUSH3 0xC8D DUP3 PUSH3 0x1007 JUMP JUMPDEST PUSH1 0x20 DUP3 ADD SWAP1 POP SWAP2 SWAP1 POP JUMP JUMPDEST PUSH3 0xCA3 DUP2 PUSH3 0xEB3 JUMP JUMPDEST DUP3 MSTORE POP POP JUMP JUMPDEST PUSH1 0x0 PUSH1 0x20 DUP3 ADD SWAP1 POP PUSH3 0xCC0 PUSH1 0x0 DUP4 ADD DUP5 PUSH3 0xBDF JUMP JUMPDEST SWAP3 SWAP2 POP POP JUMP JUMPDEST PUSH1 0x0 PUSH1 0x40 DUP3 ADD SWAP1 POP PUSH3 0xCDD PUSH1 0x0 DUP4 ADD DUP6 PUSH3 0xBDF JUMP JUMPDEST PUSH3 0xCEC PUSH1 0x20 DUP4 ADD DUP5 PUSH3 0xBCE JUMP JUMPDEST SWAP4 SWAP3 POP POP POP JUMP JUMPDEST PUSH1 0x0 PUSH2 0x120 DUP3 ADD SWAP1 POP PUSH3 0xD0B PUSH1 0x0 DUP4 ADD DUP13 PUSH3 0xBF0 JUMP JUMPDEST PUSH3 0xD1A PUSH1 0x20 DUP4 ADD DUP12 PUSH3 0xC98 JUMP JUMPDEST PUSH3 0xD29 PUSH1 0x40 DUP4 ADD DUP11 PUSH3 0xC01 JUMP JUMPDEST PUSH3 0xD38 PUSH1 0x60 DUP4 ADD DUP10 PUSH3 0xBCE JUMP JUMPDEST PUSH3 0xD47 PUSH1 0x80 DUP4 ADD DUP9 PUSH3 0xC98 JUMP JUMPDEST PUSH3 0xD56 PUSH1 0xA0 DUP4 ADD DUP8 PUSH3 0xC98 JUMP JUMPDEST PUSH3 0xD65 PUSH1 0xC0 DUP4 ADD DUP7 PUSH3 0xC98 JUMP JUMPDEST PUSH3 0xD74 PUSH1 0xE0 DUP4 ADD DUP6 PUSH3 0xC98 JUMP JUMPDEST PUSH3 0xD84 PUSH2 0x100 DUP4 ADD DUP5 PUSH3 0xC98 JUMP JUMPDEST SWAP11 SWAP10 POP POP POP POP POP POP POP POP POP POP JUMP JUMPDEST PUSH1 0x0 PUSH1 0x20 DUP3 ADD SWAP1 POP PUSH3 0xDA9 PUSH1 0x0 DUP4 ADD DUP5 PUSH3 0xC12 JUMP JUMPDEST SWAP3 SWAP2 POP POP JUMP JUMPDEST PUSH1 0x0 PUSH1 0x20 DUP3 ADD SWAP1 POP DUP2 DUP2 SUB PUSH1 0x0 DUP4 ADD MSTORE PUSH3 0xDCA DUP2 PUSH3 0xC23 JUMP JUMPDEST SWAP1 POP SWAP2 SWAP1 POP JUMP JUMPDEST PUSH1 0x0 PUSH1 0x20 DUP3 ADD SWAP1 POP DUP2 DUP2 SUB PUSH1 0x0 DUP4 ADD MSTORE PUSH3 0xDEC DUP2 PUSH3 0xC4A JUMP JUMPDEST SWAP1 POP SWAP2 SWAP1 POP JUMP JUMPDEST PUSH1 0x0 PUSH1 0x20 DUP3 ADD SWAP1 POP DUP2 DUP2 SUB PUSH1 0x0 DUP4 ADD MSTORE PUSH3 0xE0E DUP2 PUSH3 0xC71 JUMP JUMPDEST SWAP1 POP SWAP2 SWAP1 POP JUMP JUMPDEST PUSH1 0x0 PUSH1 0x20 DUP3 ADD SWAP1 POP PUSH3 0xE2C PUSH1 0x0 DUP4 ADD DUP5 PUSH3 0xC98 JUMP JUMPDEST SWAP3 SWAP2 POP POP JUMP JUMPDEST PUSH1 0x0 DUP3 DUP3 MSTORE PUSH1 0x20 DUP3 ADD SWAP1 POP SWAP3 SWAP2 POP POP JUMP JUMPDEST PUSH1 0x0 PUSH3 0xE50 DUP3 PUSH3 0xE93 JUMP JUMPDEST SWAP1 POP SWAP2 SWAP1 POP JUMP JUMPDEST PUSH1 0x0 PUSH3 0xE64 DUP3 PUSH3 0xE93 JUMP JUMPDEST SWAP1 POP SWAP2 SWAP1 POP JUMP JUMPDEST PUSH1 0x0 PUSH3 0xE78 DUP3 PUSH3 0xE43 JUMP JUMPDEST SWAP1 POP SWAP2 SWAP1 POP JUMP JUMPDEST PUSH1 0x0 PUSH3 0xE8C DUP3 PUSH3 0xE43 JUMP JUMPDEST SWAP1 POP SWAP2 SWAP1 POP JUMP JUMPDEST PUSH1 0x0 PUSH20 0xFFFFFFFFFFFFFFFFFFFFFFFFFFFFFFFFFFFFFFFF DUP3 AND SWAP1 POP SWAP2 SWAP1 POP JUMP JUMPDEST PUSH1 0x0 DUP2 SWAP1 POP SWAP2 SWAP1 POP JUMP JUMPDEST PUSH1 0x0 PUSH3 0xECA DUP3 PUSH3 0xED1 JUMP JUMPDEST SWAP1 POP SWAP2 SWAP1 POP JUMP JUMPDEST PUSH1 0x0 PUSH3 0xEDE DUP3 PUSH3 0xE93 JUMP JUMPDEST SWAP1 POP SWAP2 SWAP1 POP JUMP JUMPDEST PUSH1 0x0 PUSH3 0xEF2 DUP3 PUSH3 0xEF9 JUMP JUMPDEST SWAP1 POP SWAP2 SWAP1 POP JUMP JUMPDEST PUSH1 0x0 PUSH3 0xF06 DUP3 PUSH3 0xE93 JUMP JUMPDEST SWAP1 POP SWAP2 SWAP1 POP JUMP JUMPDEST PUSH1 0x0 PUSH3 0xF1A DUP3 PUSH3 0xF21 JUMP JUMPDEST SWAP1 POP SWAP2 SWAP1 POP JUMP JUMPDEST PUSH1 0x0 PUSH3 0xF2E DUP3 PUSH3 0xE93 JUMP JUMPDEST SWAP1 POP SWAP2 SWAP1 POP JUMP JUMPDEST PUSH32 0x4E487B7100000000000000000000000000000000000000000000000000000000 PUSH1 0x0 MSTORE PUSH1 0x32 PUSH1 0x4 MSTORE PUSH1 0x24 PUSH1 0x0 REVERT JUMPDEST PUSH1 0x0 DUP1 REVERT JUMPDEST PUSH32 0x456E756D657261626C655365743A20696E646578206F7574206F6620626F756E PUSH1 0x0 DUP3 ADD MSTORE PUSH32 0x6473000000000000000000000000000000000000000000000000000000000000 PUSH1 0x20 DUP3 ADD MSTORE POP JUMP JUMPDEST PUSH32 0x4F776E61626C653A206E6577206F776E657220697320746865207A65726F2061 PUSH1 0x0 DUP3 ADD MSTORE PUSH32 0x6464726573730000000000000000000000000000000000000000000000000000 PUSH1 0x20 DUP3 ADD MSTORE POP JUMP JUMPDEST PUSH32 0x4F776E61626C653A2063616C6C6572206973206E6F7420746865206F776E6572 PUSH1 0x0 DUP3 ADD MSTORE POP JUMP JUMPDEST PUSH3 0x103B DUP2 PUSH3 0xE43 JUMP JUMPDEST DUP2 EQ PUSH3 0x1047 JUMPI PUSH1 0x0 DUP1 REVERT JUMPDEST POP JUMP JUMPDEST PUSH3 0x1055 DUP2 PUSH3 0xE57 JUMP JUMPDEST DUP2 EQ PUSH3 0x1061 JUMPI PUSH1 0x0 DUP1 REVERT JUMPDEST POP JUMP JUMPDEST PUSH3 0x106F DUP2 PUSH3 0xE6B JUMP JUMPDEST DUP2 EQ PUSH3 0x107B JUMPI PUSH1 0x0 DUP1 REVERT JUMPDEST POP JUMP JUMPDEST PUSH3 0x1089 DUP2 PUSH3 0xE7F JUMP JUMPDEST DUP2 EQ PUSH3 0x1095 JUMPI PUSH1 0x0 DUP1 REVERT JUMPDEST POP JUMP JUMPDEST PUSH3 0x10A3 DUP2 PUSH3 0xEB3 JUMP JUMPDEST DUP2 EQ PUSH3 0x10AF JUMPI PUSH1 0x0 DUP1 REVERT JUMPDEST POP JUMP INVALID PUSH1 0x80 PUSH1 0x40 MSTORE PUSH2 0xDEAD PUSH1 0x4 PUSH1 0x0 PUSH2 0x100 EXP DUP2 SLOAD DUP2 PUSH20 0xFFFFFFFFFFFFFFFFFFFFFFFFFFFFFFFFFFFFFFFF MUL NOT AND SWAP1 DUP4 PUSH20 0xFFFFFFFFFFFFFFFFFFFFFFFFFFFFFFFFFFFFFFFF AND MUL OR SWAP1 SSTORE POP PUSH1 0x0 PUSH1 0x20 SSTORE PUSH1 0x0 PUSH1 0x21 SSTORE PUSH1 0x0 PUSH1 0x22 SSTORE CALLVALUE DUP1 ISZERO PUSH3 0x63 JUMPI PUSH1 0x0 DUP1 REVERT JUMPDEST POP PUSH1 0x40 MLOAD PUSH3 0x4582 CODESIZE SUB DUP1 PUSH3 0x4582 DUP4 CODECOPY DUP2 DUP2 ADD PUSH1 0x40 MSTORE DUP2 ADD SWAP1 PUSH3 0x89 SWAP2 SWAP1 PUSH3 0x149 JUMP JUMPDEST PUSH1 0x1 PUSH1 0x0 DUP2 SWAP1 SSTORE POP DUP2 PUSH1 0x7 PUSH1 0x0 PUSH2 0x100 EXP DUP2 SLOAD DUP2 PUSH20 0xFFFFFFFFFFFFFFFFFFFFFFFFFFFFFFFFFFFFFFFF MUL NOT AND SWAP1 DUP4 PUSH20 0xFFFFFFFFFFFFFFFFFFFFFFFFFFFFFFFFFFFFFFFF AND MUL OR SWAP1 SSTORE POP DUP1 PUSH1 0x8 PUSH1 0x0 PUSH2 0x100 EXP DUP2 SLOAD DUP2 PUSH20 0xFFFFFFFFFFFFFFFFFFFFFFFFFFFFFFFFFFFFFFFF MUL NOT AND SWAP1 DUP4 PUSH20 0xFFFFFFFFFFFFFFFFFFFFFFFFFFFFFFFFFFFFFFFF AND MUL OR SWAP1 SSTORE POP POP POP PUSH3 0x211 JUMP JUMPDEST PUSH1 0x0 DUP2 MLOAD SWAP1 POP PUSH3 0x12C DUP2 PUSH3 0x1DD JUMP JUMPDEST SWAP3 SWAP2 POP POP JUMP JUMPDEST PUSH1 0x0 DUP2 MLOAD SWAP1 POP PUSH3 0x143 DUP2 PUSH3 0x1F7 JUMP JUMPDEST SWAP3 SWAP2 POP POP JUMP JUMPDEST PUSH1 0x0 DUP1 PUSH1 0x40 DUP4 DUP6 SUB SLT ISZERO PUSH3 0x163 JUMPI PUSH3 0x162 PUSH3 0x1D8 JUMP JUMPDEST JUMPDEST PUSH1 0x0 PUSH3 0x173 DUP6 DUP3 DUP7 ADD PUSH3 0x11B JUMP JUMPDEST SWAP3 POP POP PUSH1 0x20 PUSH3 0x186 DUP6 DUP3 DUP7 ADD PUSH3 0x132 JUMP JUMPDEST SWAP2 POP POP SWAP3 POP SWAP3 SWAP1 POP JUMP JUMPDEST PUSH1 0x0 PUSH3 0x19D DUP3 PUSH3 0x1B8 JUMP JUMPDEST SWAP1 POP SWAP2 SWAP1 POP JUMP JUMPDEST PUSH1 0x0 PUSH3 0x1B1 DUP3 PUSH3 0x1B8 JUMP JUMPDEST SWAP1 POP SWAP2 SWAP1 POP JUMP JUMPDEST PUSH1 0x0 PUSH20 0xFFFFFFFFFFFFFFFFFFFFFFFFFFFFFFFFFFFFFFFF DUP3 AND SWAP1 POP SWAP2 SWAP1 POP JUMP JUMPDEST PUSH1 0x0 DUP1 REVERT JUMPDEST PUSH3 0x1E8 DUP2 PUSH3 0x190 JUMP JUMPDEST DUP2 EQ PUSH3 0x1F4 JUMPI PUSH1 0x0 DUP1 REVERT JUMPDEST POP JUMP JUMPDEST PUSH3 0x202 DUP2 PUSH3 0x1A4 JUMP JUMPDEST DUP2 EQ PUSH3 0x20E JUMPI PUSH1 0x0 DUP1 REVERT JUMPDEST POP JUMP JUMPDEST PUSH2 0x4361 DUP1 PUSH3 0x221 PUSH1 0x0 CODECOPY PUSH1 0x0 RETURN INVALID PUSH1 0x80 PUSH1 0x40 MSTORE PUSH1 0x4 CALLDATASIZE LT PUSH2 0x23E JUMPI PUSH1 0x0 CALLDATALOAD PUSH1 0xE0 SHR DUP1 PUSH4 0x703D3483 GT PUSH2 0x12E JUMPI DUP1 PUSH4 0xAB0CED0E GT PUSH2 0xAB JUMPI DUP1 PUSH4 0xD8770F60 GT PUSH2 0x6F JUMPI DUP1 PUSH4 0xD8770F60 EQ PUSH2 0x7A5 JUMPI DUP1 PUSH4 0xE7E10490 EQ PUSH2 0x7D0 JUMPI DUP1 PUSH4 0xF24834CD EQ PUSH2 0x7E7 JUMPI DUP1 PUSH4 0xF6304F4F EQ PUSH2 0x7FE JUMPI DUP1 PUSH4 0xF8FBEA70 EQ PUSH2 0x827 JUMPI PUSH2 0x245 JUMP JUMPDEST DUP1 PUSH4 0xAB0CED0E EQ PUSH2 0x6D6 JUMPI DUP1 PUSH4 0xB52A5851 EQ PUSH2 0x713 JUMPI DUP1 PUSH4 0xB61EC0B7 EQ PUSH2 0x72A JUMPI DUP1 PUSH4 0xBDF3E088 EQ PUSH2 0x753 JUMPI DUP1 PUSH4 0xBFB0A062 EQ PUSH2 0x77C JUMPI PUSH2 0x245 JUMP JUMPDEST DUP1 PUSH4 0x881D86D2 GT PUSH2 0xF2 JUMPI DUP1 PUSH4 0x881D86D2 EQ PUSH2 0x630 JUMPI DUP1 PUSH4 0x8A6F508D EQ PUSH2 0x65B JUMPI DUP1 PUSH4 0x8AF17466 EQ PUSH2 0x684 JUMPI DUP1 PUSH4 0x8D8F2ADB EQ PUSH2 0x68E JUMPI DUP1 PUSH4 0x9B0FA742 EQ PUSH2 0x6A5 JUMPI PUSH2 0x245 JUMP JUMPDEST DUP1 PUSH4 0x703D3483 EQ PUSH2 0x57B JUMPI DUP1 PUSH4 0x736D0974 EQ PUSH2 0x5A6 JUMPI DUP1 PUSH4 0x7DCA429F EQ PUSH2 0x5BD JUMPI DUP1 PUSH4 0x826C1F71 EQ PUSH2 0x5FB JUMPI DUP1 PUSH4 0x86F5B62C EQ PUSH2 0x626 JUMPI PUSH2 0x245 JUMP JUMPDEST DUP1 PUSH4 0x38E86E6D GT PUSH2 0x1BC JUMPI DUP1 PUSH4 0x4BE3AFAC GT PUSH2 0x180 JUMPI DUP1 PUSH4 0x4BE3AFAC EQ PUSH2 0x4A8 JUMPI DUP1 PUSH4 0x4F982637 EQ PUSH2 0x4D3 JUMPI DUP1 PUSH4 0x5410913C EQ PUSH2 0x4EA JUMPI DUP1 PUSH4 0x569735AE EQ PUSH2 0x513 JUMPI DUP1 PUSH4 0x6F9170F6 EQ PUSH2 0x53E JUMPI PUSH2 0x245 JUMP JUMPDEST DUP1 PUSH4 0x38E86E6D EQ PUSH2 0x3EB JUMPI DUP1 PUSH4 0x3A54DB3A EQ PUSH2 0x416 JUMPI DUP1 PUSH4 0x44729691 EQ PUSH2 0x43F JUMPI DUP1 PUSH4 0x49F3ADE4 EQ PUSH2 0x468 JUMPI DUP1 PUSH4 0x4B088966 EQ PUSH2 0x47F JUMPI PUSH2 0x245 JUMP JUMPDEST DUP1 PUSH4 0x15284ACF GT PUSH2 0x203 JUMPI DUP1 PUSH4 0x15284ACF EQ PUSH2 0x324 JUMPI DUP1 PUSH4 0x16BB2E5A EQ PUSH2 0x357 JUMPI DUP1 PUSH4 0x1B404870 EQ PUSH2 0x380 JUMPI DUP1 PUSH4 0x36DC9014 EQ PUSH2 0x397 JUMPI DUP1 PUSH4 0x387A4CE1 EQ PUSH2 0x3C0 JUMPI PUSH2 0x245 JUMP JUMPDEST DUP1 PUSH3 0xF8762F EQ PUSH2 0x24A JUMPI DUP1 PUSH4 0x589A27C EQ PUSH2 0x273 JUMPI DUP1 PUSH4 0xBAA36AD EQ PUSH2 0x29E JUMPI DUP1 PUSH4 0x11059A65 EQ PUSH2 0x2C9 JUMPI DUP1 PUSH4 0x11F323C6 EQ PUSH2 0x2F9 JUMPI PUSH2 0x245 JUMP JUMPDEST CALLDATASIZE PUSH2 0x245 JUMPI STOP JUMPDEST PUSH1 0x0 DUP1 REVERT JUMPDEST CALLVALUE DUP1 ISZERO PUSH2 0x256 JUMPI PUSH1 0x0 DUP1 REVERT JUMPDEST POP PUSH2 0x271 PUSH1 0x4 DUP1 CALLDATASIZE SUB DUP2 ADD SWAP1 PUSH2 0x26C SWAP2 SWAP1 PUSH2 0x3316 JUMP JUMPDEST PUSH2 0x850 JUMP JUMPDEST STOP JUMPDEST CALLVALUE DUP1 ISZERO PUSH2 0x27F JUMPI PUSH1 0x0 DUP1 REVERT JUMPDEST POP PUSH2 0x288 PUSH2 0x973 JUMP JUMPDEST PUSH1 0x40 MLOAD PUSH2 0x295 SWAP2 SWAP1 PUSH2 0x36BA JUMP JUMPDEST PUSH1 0x40 MLOAD DUP1 SWAP2 SUB SWAP1 RETURN JUMPDEST CALLVALUE DUP1 ISZERO PUSH2 0x2AA JUMPI PUSH1 0x0 DUP1 REVERT JUMPDEST POP PUSH2 0x2B3 PUSH2 0x9A0 JUMP JUMPDEST PUSH1 0x40 MLOAD PUSH2 0x2C0 SWAP2 SWAP1 PUSH2 0x36BA JUMP JUMPDEST PUSH1 0x40 MLOAD DUP1 SWAP2 SUB SWAP1 RETURN JUMPDEST CALLVALUE DUP1 ISZERO PUSH2 0x2D5 JUMPI PUSH1 0x0 DUP1 REVERT JUMPDEST POP PUSH2 0x2DE PUSH2 0x9C6 JUMP JUMPDEST PUSH1 0x40 MLOAD PUSH2 0x2F0 SWAP7 SWAP6 SWAP5 SWAP4 SWAP3 SWAP2 SWAP1 PUSH2 0x3807 JUMP JUMPDEST PUSH1 0x40 MLOAD DUP1 SWAP2 SUB SWAP1 RETURN JUMPDEST CALLVALUE DUP1 ISZERO PUSH2 0x305 JUMPI PUSH1 0x0 DUP1 REVERT JUMPDEST POP PUSH2 0x30E PUSH2 0xD20 JUMP JUMPDEST PUSH1 0x40 MLOAD PUSH2 0x31B SWAP2 SWAP1 PUSH2 0x3A92 JUMP JUMPDEST PUSH1 0x40 MLOAD DUP1 SWAP2 SUB SWAP1 RETURN JUMPDEST CALLVALUE DUP1 ISZERO PUSH2 0x330 JUMPI PUSH1 0x0 DUP1 REVERT JUMPDEST POP PUSH2 0x339 PUSH2 0xDD5 JUMP JUMPDEST PUSH1 0x40 MLOAD PUSH2 0x34E SWAP10 SWAP9 SWAP8 SWAP7 SWAP6 SWAP5 SWAP4 SWAP3 SWAP2 SWAP1 PUSH2 0x377A JUMP JUMPDEST PUSH1 0x40 MLOAD DUP1 SWAP2 SUB SWAP1 RETURN JUMPDEST CALLVALUE DUP1 ISZERO PUSH2 0x363 JUMPI PUSH1 0x0 DUP1 REVERT JUMPDEST POP PUSH2 0x37E PUSH1 0x4 DUP1 CALLDATASIZE SUB DUP2 ADD SWAP1 PUSH2 0x379 SWAP2 SWAP1 PUSH2 0x3229 JUMP JUMPDEST PUSH2 0xE71 JUMP JUMPDEST STOP JUMPDEST CALLVALUE DUP1 ISZERO PUSH2 0x38C JUMPI PUSH1 0x0 DUP1 REVERT JUMPDEST POP PUSH2 0x395 PUSH2 0xF11 JUMP JUMPDEST STOP JUMPDEST CALLVALUE DUP1 ISZERO PUSH2 0x3A3 JUMPI PUSH1 0x0 DUP1 REVERT JUMPDEST POP PUSH2 0x3BE PUSH1 0x4 DUP1 CALLDATASIZE SUB DUP2 ADD SWAP1 PUSH2 0x3B9 SWAP2 SWAP1 PUSH2 0x30A9 JUMP JUMPDEST PUSH2 0xFA7 JUMP JUMPDEST STOP JUMPDEST CALLVALUE DUP1 ISZERO PUSH2 0x3CC JUMPI PUSH1 0x0 DUP1 REVERT JUMPDEST POP PUSH2 0x3D5 PUSH2 0x1112 JUMP JUMPDEST PUSH1 0x40 MLOAD PUSH2 0x3E2 SWAP2 SWAP1 PUSH2 0x3A92 JUMP JUMPDEST PUSH1 0x40 MLOAD DUP1 SWAP2 SUB SWAP1 RETURN JUMPDEST CALLVALUE DUP1 ISZERO PUSH2 0x3F7 JUMPI PUSH1 0x0 DUP1 REVERT JUMPDEST POP PUSH2 0x400 PUSH2 0x111C JUMP JUMPDEST PUSH1 0x40 MLOAD PUSH2 0x40D SWAP2 SWAP1 PUSH2 0x3A92 JUMP JUMPDEST PUSH1 0x40 MLOAD DUP1 SWAP2 SUB SWAP1 RETURN JUMPDEST CALLVALUE DUP1 ISZERO PUSH2 0x422 JUMPI PUSH1 0x0 DUP1 REVERT JUMPDEST POP PUSH2 0x43D PUSH1 0x4 DUP1 CALLDATASIZE SUB DUP2 ADD SWAP1 PUSH2 0x438 SWAP2 SWAP1 PUSH2 0x315F JUMP JUMPDEST PUSH2 0x11D1 JUMP JUMPDEST STOP JUMPDEST CALLVALUE DUP1 ISZERO PUSH2 0x44B JUMPI PUSH1 0x0 DUP1 REVERT JUMPDEST POP PUSH2 0x466 PUSH1 0x4 DUP1 CALLDATASIZE SUB DUP2 ADD SWAP1 PUSH2 0x461 SWAP2 SWAP1 PUSH2 0x304F JUMP JUMPDEST PUSH2 0x1374 JUMP JUMPDEST STOP JUMPDEST CALLVALUE DUP1 ISZERO PUSH2 0x474 JUMPI PUSH1 0x0 DUP1 REVERT JUMPDEST POP PUSH2 0x47D PUSH2 0x14BF JUMP JUMPDEST STOP JUMPDEST CALLVALUE DUP1 ISZERO PUSH2 0x48B JUMPI PUSH1 0x0 DUP1 REVERT JUMPDEST POP PUSH2 0x4A6 PUSH1 0x4 DUP1 CALLDATASIZE SUB DUP2 ADD SWAP1 PUSH2 0x4A1 SWAP2 SWAP1 PUSH2 0x3283 JUMP JUMPDEST PUSH2 0x16A3 JUMP JUMPDEST STOP JUMPDEST CALLVALUE DUP1 ISZERO PUSH2 0x4B4 JUMPI PUSH1 0x0 DUP1 REVERT JUMPDEST POP PUSH2 0x4BD PUSH2 0x174E JUMP JUMPDEST PUSH1 0x40 MLOAD PUSH2 0x4CA SWAP2 SWAP1 PUSH2 0x3A92 JUMP JUMPDEST PUSH1 0x40 MLOAD DUP1 SWAP2 SUB SWAP1 RETURN JUMPDEST CALLVALUE DUP1 ISZERO PUSH2 0x4DF JUMPI PUSH1 0x0 DUP1 REVERT JUMPDEST POP PUSH2 0x4E8 PUSH2 0x1758 JUMP JUMPDEST STOP JUMPDEST CALLVALUE DUP1 ISZERO PUSH2 0x4F6 JUMPI PUSH1 0x0 DUP1 REVERT JUMPDEST POP PUSH2 0x511 PUSH1 0x4 DUP1 CALLDATASIZE SUB DUP2 ADD SWAP1 PUSH2 0x50C SWAP2 SWAP1 PUSH2 0x304F JUMP JUMPDEST PUSH2 0x1887 JUMP JUMPDEST STOP JUMPDEST CALLVALUE DUP1 ISZERO PUSH2 0x51F JUMPI PUSH1 0x0 DUP1 REVERT JUMPDEST POP PUSH2 0x528 PUSH2 0x193C JUMP JUMPDEST PUSH1 0x40 MLOAD PUSH2 0x535 SWAP2 SWAP1 PUSH2 0x3A92 JUMP JUMPDEST PUSH1 0x40 MLOAD DUP1 SWAP2 SUB SWAP1 RETURN JUMPDEST CALLVALUE DUP1 ISZERO PUSH2 0x54A JUMPI PUSH1 0x0 DUP1 REVERT JUMPDEST POP PUSH2 0x565 PUSH1 0x4 DUP1 CALLDATASIZE SUB DUP2 ADD SWAP1 PUSH2 0x560 SWAP2 SWAP1 PUSH2 0x304F JUMP JUMPDEST PUSH2 0x1949 JUMP JUMPDEST PUSH1 0x40 MLOAD PUSH2 0x572 SWAP2 SWAP1 PUSH2 0x375F JUMP JUMPDEST PUSH1 0x40 MLOAD DUP1 SWAP2 SUB SWAP1 RETURN JUMPDEST CALLVALUE DUP1 ISZERO PUSH2 0x587 JUMPI PUSH1 0x0 DUP1 REVERT JUMPDEST POP PUSH2 0x590 PUSH2 0x199F JUMP JUMPDEST PUSH1 0x40 MLOAD PUSH2 0x59D SWAP2 SWAP1 PUSH2 0x375F JUMP JUMPDEST PUSH1 0x40 MLOAD DUP1 SWAP2 SUB SWAP1 RETURN JUMPDEST CALLVALUE DUP1 ISZERO PUSH2 0x5B2 JUMPI PUSH1 0x0 DUP1 REVERT JUMPDEST POP PUSH2 0x5BB PUSH2 0x19B9 JUMP JUMPDEST STOP JUMPDEST CALLVALUE DUP1 ISZERO PUSH2 0x5C9 JUMPI PUSH1 0x0 DUP1 REVERT JUMPDEST POP PUSH2 0x5E4 PUSH1 0x4 DUP1 CALLDATASIZE SUB DUP2 ADD SWAP1 PUSH2 0x5DF SWAP2 SWAP1 PUSH2 0x304F JUMP JUMPDEST PUSH2 0x1A1D JUMP JUMPDEST PUSH1 0x40 MLOAD PUSH2 0x5F2 SWAP3 SWAP2 SWAP1 PUSH2 0x3AAD JUMP JUMPDEST PUSH1 0x40 MLOAD DUP1 SWAP2 SUB SWAP1 RETURN JUMPDEST CALLVALUE DUP1 ISZERO PUSH2 0x607 JUMPI PUSH1 0x0 DUP1 REVERT JUMPDEST POP PUSH2 0x610 PUSH2 0x1A41 JUMP JUMPDEST PUSH1 0x40 MLOAD PUSH2 0x61D SWAP2 SWAP1 PUSH2 0x3A92 JUMP JUMPDEST PUSH1 0x40 MLOAD DUP1 SWAP2 SUB SWAP1 RETURN JUMPDEST PUSH2 0x62E PUSH2 0x1A4E JUMP JUMPDEST STOP JUMPDEST CALLVALUE DUP1 ISZERO PUSH2 0x63C JUMPI PUSH1 0x0 DUP1 REVERT JUMPDEST POP PUSH2 0x645 PUSH2 0x1D61 JUMP JUMPDEST PUSH1 0x40 MLOAD PUSH2 0x652 SWAP2 SWAP1 PUSH2 0x3A92 JUMP JUMPDEST PUSH1 0x40 MLOAD DUP1 SWAP2 SUB SWAP1 RETURN JUMPDEST CALLVALUE DUP1 ISZERO PUSH2 0x667 JUMPI PUSH1 0x0 DUP1 REVERT JUMPDEST POP PUSH2 0x682 PUSH1 0x4 DUP1 CALLDATASIZE SUB DUP2 ADD SWAP1 PUSH2 0x67D SWAP2 SWAP1 PUSH2 0x3283 JUMP JUMPDEST PUSH2 0x1D6B JUMP JUMPDEST STOP JUMPDEST PUSH2 0x68C PUSH2 0x1E16 JUMP JUMPDEST STOP JUMPDEST CALLVALUE DUP1 ISZERO PUSH2 0x69A JUMPI PUSH1 0x0 DUP1 REVERT JUMPDEST POP PUSH2 0x6A3 PUSH2 0x2031 JUMP JUMPDEST STOP JUMPDEST CALLVALUE DUP1 ISZERO PUSH2 0x6B1 JUMPI PUSH1 0x0 DUP1 REVERT JUMPDEST POP PUSH2 0x6BA PUSH2 0x21C6 JUMP JUMPDEST PUSH1 0x40 MLOAD PUSH2 0x6CD SWAP8 SWAP7 SWAP6 SWAP5 SWAP4 SWAP3 SWAP2 SWAP1 PUSH2 0x3AD6 JUMP JUMPDEST PUSH1 0x40 MLOAD DUP1 SWAP2 SUB SWAP1 RETURN JUMPDEST CALLVALUE DUP1 ISZERO PUSH2 0x6E2 JUMPI PUSH1 0x0 DUP1 REVERT JUMPDEST POP PUSH2 0x6FD PUSH1 0x4 DUP1 CALLDATASIZE SUB DUP2 ADD SWAP1 PUSH2 0x6F8 SWAP2 SWAP1 PUSH2 0x304F JUMP JUMPDEST PUSH2 0x2210 JUMP JUMPDEST PUSH1 0x40 MLOAD PUSH2 0x70A SWAP2 SWAP1 PUSH2 0x3A92 JUMP JUMPDEST PUSH1 0x40 MLOAD DUP1 SWAP2 SUB SWAP1 RETURN JUMPDEST CALLVALUE DUP1 ISZERO PUSH2 0x71F JUMPI PUSH1 0x0 DUP1 REVERT JUMPDEST POP PUSH2 0x728 PUSH2 0x2261 JUMP JUMPDEST STOP JUMPDEST CALLVALUE DUP1 ISZERO PUSH2 0x736 JUMPI PUSH1 0x0 DUP1 REVERT JUMPDEST POP PUSH2 0x751 PUSH1 0x4 DUP1 CALLDATASIZE SUB DUP2 ADD SWAP1 PUSH2 0x74C SWAP2 SWAP1 PUSH2 0x3132 JUMP JUMPDEST PUSH2 0x247E JUMP JUMPDEST STOP JUMPDEST CALLVALUE DUP1 ISZERO PUSH2 0x75F JUMPI PUSH1 0x0 DUP1 REVERT JUMPDEST POP PUSH2 0x77A PUSH1 0x4 DUP1 CALLDATASIZE SUB DUP2 ADD SWAP1 PUSH2 0x775 SWAP2 SWAP1 PUSH2 0x3132 JUMP JUMPDEST PUSH2 0x251F JUMP JUMPDEST STOP JUMPDEST CALLVALUE DUP1 ISZERO PUSH2 0x788 JUMPI PUSH1 0x0 DUP1 REVERT JUMPDEST POP PUSH2 0x7A3 PUSH1 0x4 DUP1 CALLDATASIZE SUB DUP2 ADD SWAP1 PUSH2 0x79E SWAP2 SWAP1 PUSH2 0x307C JUMP JUMPDEST PUSH2 0x25BC JUMP JUMPDEST STOP JUMPDEST CALLVALUE DUP1 ISZERO PUSH2 0x7B1 JUMPI PUSH1 0x0 DUP1 REVERT JUMPDEST POP PUSH2 0x7BA PUSH2 0x2666 JUMP JUMPDEST PUSH1 0x40 MLOAD PUSH2 0x7C7 SWAP2 SWAP1 PUSH2 0x3A92 JUMP JUMPDEST PUSH1 0x40 MLOAD DUP1 SWAP2 SUB SWAP1 RETURN JUMPDEST CALLVALUE DUP1 ISZERO PUSH2 0x7DC JUMPI PUSH1 0x0 DUP1 REVERT JUMPDEST POP PUSH2 0x7E5 PUSH2 0x2670 JUMP JUMPDEST STOP JUMPDEST CALLVALUE DUP1 ISZERO PUSH2 0x7F3 JUMPI PUSH1 0x0 DUP1 REVERT JUMPDEST POP PUSH2 0x7FC PUSH2 0x270D JUMP JUMPDEST STOP JUMPDEST CALLVALUE DUP1 ISZERO PUSH2 0x80A JUMPI PUSH1 0x0 DUP1 REVERT JUMPDEST POP PUSH2 0x825 PUSH1 0x4 DUP1 CALLDATASIZE SUB DUP2 ADD SWAP1 PUSH2 0x820 SWAP2 SWAP1 PUSH2 0x304F JUMP JUMPDEST PUSH2 0x288C JUMP JUMPDEST STOP JUMPDEST CALLVALUE DUP1 ISZERO PUSH2 0x833 JUMPI PUSH1 0x0 DUP1 REVERT JUMPDEST POP PUSH2 0x84E PUSH1 0x4 DUP1 CALLDATASIZE SUB DUP2 ADD SWAP1 PUSH2 0x849 SWAP2 SWAP1 PUSH2 0x30A9 JUMP JUMPDEST PUSH2 0x29DE JUMP JUMPDEST STOP JUMPDEST CALLER PUSH20 0xFFFFFFFFFFFFFFFFFFFFFFFFFFFFFFFFFFFFFFFF AND PUSH1 0x9 PUSH1 0x3 ADD PUSH1 0x0 SWAP1 SLOAD SWAP1 PUSH2 0x100 EXP SWAP1 DIV PUSH20 0xFFFFFFFFFFFFFFFFFFFFFFFFFFFFFFFFFFFFFFFF AND PUSH20 0xFFFFFFFFFFFFFFFFFFFFFFFFFFFFFFFFFFFFFFFF AND EQ PUSH2 0x8E3 JUMPI PUSH1 0x40 MLOAD PUSH32 0x8C379A000000000000000000000000000000000000000000000000000000000 DUP2 MSTORE PUSH1 0x4 ADD PUSH2 0x8DA SWAP1 PUSH2 0x3A52 JUMP JUMPDEST PUSH1 0x40 MLOAD DUP1 SWAP2 SUB SWAP1 REVERT JUMPDEST DUP8 PUSH1 0x12 PUSH1 0x5 ADD DUP2 SWAP1 SSTORE POP DUP7 PUSH1 0x12 PUSH1 0x0 ADD DUP2 SWAP1 SSTORE POP DUP6 PUSH1 0x12 PUSH1 0x1 ADD DUP2 SWAP1 SSTORE POP DUP5 PUSH1 0x12 PUSH1 0x2 ADD PUSH1 0x0 PUSH2 0x100 EXP DUP2 SLOAD DUP2 PUSH1 0xFF MUL NOT AND SWAP1 DUP4 ISZERO ISZERO MUL OR SWAP1 SSTORE POP DUP4 PUSH1 0x12 PUSH1 0x3 ADD DUP2 SWAP1 SSTORE POP DUP3 PUSH1 0x12 PUSH1 0x4 ADD DUP2 SWAP1 SSTORE POP DUP2 PUSH1 0x12 PUSH1 0x6 ADD PUSH1 0x0 PUSH2 0x100 EXP DUP2 SLOAD DUP2 PUSH1 0xFF MUL NOT AND SWAP1 DUP4 ISZERO ISZERO MUL OR SWAP1 SSTORE POP DUP1 PUSH1 0x19 PUSH1 0x5 ADD SWAP1 DUP1 MLOAD SWAP1 PUSH1 0x20 ADD SWAP1 PUSH2 0x968 SWAP3 SWAP2 SWAP1 PUSH2 0x2DF6 JUMP JUMPDEST POP POP POP POP POP POP POP POP POP JUMP JUMPDEST PUSH1 0x0 PUSH1 0x9 PUSH1 0x0 ADD PUSH1 0x0 SWAP1 SLOAD SWAP1 PUSH2 0x100 EXP SWAP1 DIV PUSH20 0xFFFFFFFFFFFFFFFFFFFFFFFFFFFFFFFFFFFFFFFF AND SWAP1 POP SWAP1 JUMP JUMPDEST PUSH1 0x2 PUSH1 0x0 SWAP1 SLOAD SWAP1 PUSH2 0x100 EXP SWAP1 DIV PUSH20 0xFFFFFFFFFFFFFFFFFFFFFFFFFFFFFFFFFFFFFFFF AND DUP2 JUMP JUMPDEST PUSH1 0x19 DUP1 PUSH1 0x0 ADD DUP1 SLOAD PUSH2 0x9D7 SWAP1 PUSH2 0x3DDE JUMP JUMPDEST DUP1 PUSH1 0x1F ADD PUSH1 0x20 DUP1 SWAP2 DIV MUL PUSH1 0x20 ADD PUSH1 0x40 MLOAD SWAP1 DUP2 ADD PUSH1 0x40 MSTORE DUP1 SWAP3 SWAP2 SWAP1 DUP2 DUP2 MSTORE PUSH1 0x20 ADD DUP3 DUP1 SLOAD PUSH2 0xA03 SWAP1 PUSH2 0x3DDE JUMP JUMPDEST DUP1 ISZERO PUSH2 0xA50 JUMPI DUP1 PUSH1 0x1F LT PUSH2 0xA25 JUMPI PUSH2 0x100 DUP1 DUP4 SLOAD DIV MUL DUP4 MSTORE SWAP2 PUSH1 0x20 ADD SWAP2 PUSH2 0xA50 JUMP JUMPDEST DUP3 ADD SWAP2 SWAP1 PUSH1 0x0 MSTORE PUSH1 0x20 PUSH1 0x0 KECCAK256 SWAP1 JUMPDEST DUP2 SLOAD DUP2 MSTORE SWAP1 PUSH1 0x1 ADD SWAP1 PUSH1 0x20 ADD DUP1 DUP4 GT PUSH2 0xA33 JUMPI DUP3 SWAP1 SUB PUSH1 0x1F AND DUP3 ADD SWAP2 JUMPDEST POP POP POP POP POP SWAP1 DUP1 PUSH1 0x1 ADD DUP1 SLOAD PUSH2 0xA65 SWAP1 PUSH2 0x3DDE JUMP JUMPDEST DUP1 PUSH1 0x1F ADD PUSH1 0x20 DUP1 SWAP2 DIV MUL PUSH1 0x20 ADD PUSH1 0x40 MLOAD SWAP1 DUP2 ADD PUSH1 0x40 MSTORE DUP1 SWAP3 SWAP2 SWAP1 DUP2 DUP2 MSTORE PUSH1 0x20 ADD DUP3 DUP1 SLOAD PUSH2 0xA91 SWAP1 PUSH2 0x3DDE JUMP JUMPDEST DUP1 ISZERO PUSH2 0xADE JUMPI DUP1 PUSH1 0x1F LT PUSH2 0xAB3 JUMPI PUSH2 0x100 DUP1 DUP4 SLOAD DIV MUL DUP4 MSTORE SWAP2 PUSH1 0x20 ADD SWAP2 PUSH2 0xADE JUMP JUMPDEST DUP3 ADD SWAP2 SWAP1 PUSH1 0x0 MSTORE PUSH1 0x20 PUSH1 0x0 KECCAK256 SWAP1 JUMPDEST DUP2 SLOAD DUP2 MSTORE SWAP1 PUSH1 0x1 ADD SWAP1 PUSH1 0x20 ADD DUP1 DUP4 GT PUSH2 0xAC1 JUMPI DUP3 SWAP1 SUB PUSH1 0x1F AND DUP3 ADD SWAP2 JUMPDEST POP POP POP POP POP SWAP1 DUP1 PUSH1 0x2 ADD DUP1 SLOAD PUSH2 0xAF3 SWAP1 PUSH2 0x3DDE JUMP JUMPDEST DUP1 PUSH1 0x1F ADD PUSH1 0x20 DUP1 SWAP2 DIV MUL PUSH1 0x20 ADD PUSH1 0x40 MLOAD SWAP1 DUP2 ADD PUSH1 0x40 MSTORE DUP1 SWAP3 SWAP2 SWAP1 DUP2 DUP2 MSTORE PUSH1 0x20 ADD DUP3 DUP1 SLOAD PUSH2 0xB1F SWAP1 PUSH2 0x3DDE JUMP JUMPDEST DUP1 ISZERO PUSH2 0xB6C JUMPI DUP1 PUSH1 0x1F LT PUSH2 0xB41 JUMPI PUSH2 0x100 DUP1 DUP4 SLOAD DIV MUL DUP4 MSTORE SWAP2 PUSH1 0x20 ADD SWAP2 PUSH2 0xB6C JUMP JUMPDEST DUP3 ADD SWAP2 SWAP1 PUSH1 0x0 MSTORE PUSH1 0x20 PUSH1 0x0 KECCAK256 SWAP1 JUMPDEST DUP2 SLOAD DUP2 MSTORE SWAP1 PUSH1 0x1 ADD SWAP1 PUSH1 0x20 ADD DUP1 DUP4 GT PUSH2 0xB4F JUMPI DUP3 SWAP1 SUB PUSH1 0x1F AND DUP3 ADD SWAP2 JUMPDEST POP POP POP POP POP SWAP1 DUP1 PUSH1 0x3 ADD DUP1 SLOAD PUSH2 0xB81 SWAP1 PUSH2 0x3DDE JUMP JUMPDEST DUP1 PUSH1 0x1F ADD PUSH1 0x20 DUP1 SWAP2 DIV MUL PUSH1 0x20 ADD PUSH1 0x40 MLOAD SWAP1 DUP2 ADD PUSH1 0x40 MSTORE DUP1 SWAP3 SWAP2 SWAP1 DUP2 DUP2 MSTORE PUSH1 0x20 ADD DUP3 DUP1 SLOAD PUSH2 0xBAD SWAP1 PUSH2 0x3DDE JUMP JUMPDEST DUP1 ISZERO PUSH2 0xBFA JUMPI DUP1 PUSH1 0x1F LT PUSH2 0xBCF JUMPI PUSH2 0x100 DUP1 DUP4 SLOAD DIV MUL DUP4 MSTORE SWAP2 PUSH1 0x20 ADD SWAP2 PUSH2 0xBFA JUMP JUMPDEST DUP3 ADD SWAP2 SWAP1 PUSH1 0x0 MSTORE PUSH1 0x20 PUSH1 0x0 KECCAK256 SWAP1 JUMPDEST DUP2 SLOAD DUP2 MSTORE SWAP1 PUSH1 0x1 ADD SWAP1 PUSH1 0x20 ADD DUP1 DUP4 GT PUSH2 0xBDD JUMPI DUP3 SWAP1 SUB PUSH1 0x1F AND DUP3 ADD SWAP2 JUMPDEST POP POP POP POP POP SWAP1 DUP1 PUSH1 0x4 ADD DUP1 SLOAD PUSH2 0xC0F SWAP1 PUSH2 0x3DDE JUMP JUMPDEST DUP1 PUSH1 0x1F ADD PUSH1 0x20 DUP1 SWAP2 DIV MUL PUSH1 0x20 ADD PUSH1 0x40 MLOAD SWAP1 DUP2 ADD PUSH1 0x40 MSTORE DUP1 SWAP3 SWAP2 SWAP1 DUP2 DUP2 MSTORE PUSH1 0x20 ADD DUP3 DUP1 SLOAD PUSH2 0xC3B SWAP1 PUSH2 0x3DDE JUMP JUMPDEST DUP1 ISZERO PUSH2 0xC88 JUMPI DUP1 PUSH1 0x1F LT PUSH2 0xC5D JUMPI PUSH2 0x100 DUP1 DUP4 SLOAD DIV MUL DUP4 MSTORE SWAP2 PUSH1 0x20 ADD SWAP2 PUSH2 0xC88 JUMP JUMPDEST DUP3 ADD SWAP2 SWAP1 PUSH1 0x0 MSTORE PUSH1 0x20 PUSH1 0x0 KECCAK256 SWAP1 JUMPDEST DUP2 SLOAD DUP2 MSTORE SWAP1 PUSH1 0x1 ADD SWAP1 PUSH1 0x20 ADD DUP1 DUP4 GT PUSH2 0xC6B JUMPI DUP3 SWAP1 SUB PUSH1 0x1F AND DUP3 ADD SWAP2 JUMPDEST POP POP POP POP POP SWAP1 DUP1 PUSH1 0x5 ADD DUP1 SLOAD PUSH2 0xC9D SWAP1 PUSH2 0x3DDE JUMP JUMPDEST DUP1 PUSH1 0x1F ADD PUSH1 0x20 DUP1 SWAP2 DIV MUL PUSH1 0x20 ADD PUSH1 0x40 MLOAD SWAP1 DUP2 ADD PUSH1 0x40 MSTORE DUP1 SWAP3 SWAP2 SWAP1 DUP2 DUP2 MSTORE PUSH1 0x20 ADD DUP3 DUP1 SLOAD PUSH2 0xCC9 SWAP1 PUSH2 0x3DDE JUMP JUMPDEST DUP1 ISZERO PUSH2 0xD16 JUMPI DUP1 PUSH1 0x1F LT PUSH2 0xCEB JUMPI PUSH2 0x100 DUP1 DUP4 SLOAD DIV MUL DUP4 MSTORE SWAP2 PUSH1 0x20 ADD SWAP2 PUSH2 0xD16 JUMP JUMPDEST DUP3 ADD SWAP2 SWAP1 PUSH1 0x0 MSTORE PUSH1 0x20 PUSH1 0x0 KECCAK256 SWAP1 JUMPDEST DUP2 SLOAD DUP2 MSTORE SWAP1 PUSH1 0x1 ADD SWAP1 PUSH1 0x20 ADD DUP1 DUP4 GT PUSH2 0xCF9 JUMPI DUP3 SWAP1 SUB PUSH1 0x1F AND DUP3 ADD SWAP2 JUMPDEST POP POP POP POP POP SWAP1 POP DUP7 JUMP JUMPDEST PUSH1 0x0 PUSH1 0x9 PUSH1 0x0 ADD PUSH1 0x0 SWAP1 SLOAD SWAP1 PUSH2 0x100 EXP SWAP1 DIV PUSH20 0xFFFFFFFFFFFFFFFFFFFFFFFFFFFFFFFFFFFFFFFF AND PUSH20 0xFFFFFFFFFFFFFFFFFFFFFFFFFFFFFFFFFFFFFFFF AND PUSH4 0x70A08231 ADDRESS PUSH1 0x40 MLOAD DUP3 PUSH4 0xFFFFFFFF AND PUSH1 0xE0 SHL DUP2 MSTORE PUSH1 0x4 ADD PUSH2 0xD80 SWAP2 SWAP1 PUSH2 0x36BA JUMP JUMPDEST PUSH1 0x20 PUSH1 0x40 MLOAD DUP1 DUP4 SUB DUP2 DUP7 DUP1 EXTCODESIZE ISZERO DUP1 ISZERO PUSH2 0xD98 JUMPI PUSH1 0x0 DUP1 REVERT JUMPDEST POP GAS STATICCALL ISZERO DUP1 ISZERO PUSH2 0xDAC JUMPI RETURNDATASIZE PUSH1 0x0 DUP1 RETURNDATACOPY RETURNDATASIZE PUSH1 0x0 REVERT JUMPDEST POP POP POP POP PUSH1 0x40 MLOAD RETURNDATASIZE PUSH1 0x1F NOT PUSH1 0x1F DUP3 ADD AND DUP3 ADD DUP1 PUSH1 0x40 MSTORE POP DUP2 ADD SWAP1 PUSH2 0xDD0 SWAP2 SWAP1 PUSH2 0x3256 JUMP JUMPDEST SWAP1 POP SWAP1 JUMP JUMPDEST PUSH1 0x9 DUP1 PUSH1 0x0 ADD PUSH1 0x0 SWAP1 SLOAD SWAP1 PUSH2 0x100 EXP SWAP1 DIV PUSH20 0xFFFFFFFFFFFFFFFFFFFFFFFFFFFFFFFFFFFFFFFF AND SWAP1 DUP1 PUSH1 0x1 ADD SLOAD SWAP1 DUP1 PUSH1 0x2 ADD PUSH1 0x0 SWAP1 SLOAD SWAP1 PUSH2 0x100 EXP SWAP1 DIV PUSH20 0xFFFFFFFFFFFFFFFFFFFFFFFFFFFFFFFFFFFFFFFF AND SWAP1 DUP1 PUSH1 0x3 ADD PUSH1 0x0 SWAP1 SLOAD SWAP1 PUSH2 0x100 EXP SWAP1 DIV PUSH20 0xFFFFFFFFFFFFFFFFFFFFFFFFFFFFFFFFFFFFFFFF AND SWAP1 DUP1 PUSH1 0x4 ADD SLOAD SWAP1 DUP1 PUSH1 0x5 ADD SLOAD SWAP1 DUP1 PUSH1 0x6 ADD SLOAD SWAP1 DUP1 PUSH1 0x7 ADD SLOAD SWAP1 DUP1 PUSH1 0x8 ADD SLOAD SWAP1 POP DUP10 JUMP JUMPDEST CALLER PUSH20 0xFFFFFFFFFFFFFFFFFFFFFFFFFFFFFFFFFFFFFFFF AND PUSH1 0x9 PUSH1 0x3 ADD PUSH1 0x0 SWAP1 SLOAD SWAP1 PUSH2 0x100 EXP SWAP1 DIV PUSH20 0xFFFFFFFFFFFFFFFFFFFFFFFFFFFFFFFFFFFFFFFF AND PUSH20 0xFFFFFFFFFFFFFFFFFFFFFFFFFFFFFFFFFFFFFFFF AND EQ PUSH2 0xF04 JUMPI PUSH1 0x40 MLOAD PUSH32 0x8C379A000000000000000000000000000000000000000000000000000000000 DUP2 MSTORE PUSH1 0x4 ADD PUSH2 0xEFB SWAP1 PUSH2 0x3A52 JUMP JUMPDEST PUSH1 0x40 MLOAD DUP1 SWAP2 SUB SWAP1 REVERT JUMPDEST DUP1 PUSH1 0x9 PUSH1 0x4 ADD DUP2 SWAP1 SSTORE POP POP JUMP JUMPDEST PUSH1 0x3 PUSH1 0x0 CALLER PUSH20 0xFFFFFFFFFFFFFFFFFFFFFFFFFFFFFFFFFFFFFFFF AND PUSH20 0xFFFFFFFFFFFFFFFFFFFFFFFFFFFFFFFFFFFFFFFF AND DUP2 MSTORE PUSH1 0x20 ADD SWAP1 DUP2 MSTORE PUSH1 0x20 ADD PUSH1 0x0 KECCAK256 PUSH1 0x0 SWAP1 SLOAD SWAP1 PUSH2 0x100 EXP SWAP1 DIV PUSH1 0xFF AND PUSH2 0xF9D JUMPI PUSH1 0x40 MLOAD PUSH32 0x8C379A000000000000000000000000000000000000000000000000000000000 DUP2 MSTORE PUSH1 0x4 ADD PUSH2 0xF94 SWAP1 PUSH2 0x38F2 JUMP JUMPDEST PUSH1 0x40 MLOAD DUP1 SWAP2 SUB SWAP1 REVERT JUMPDEST PUSH1 0x4 PUSH1 0x1F DUP2 SWAP1 SSTORE POP JUMP JUMPDEST PUSH1 0x3 PUSH1 0x0 CALLER PUSH20 0xFFFFFFFFFFFFFFFFFFFFFFFFFFFFFFFFFFFFFFFF AND PUSH20 0xFFFFFFFFFFFFFFFFFFFFFFFFFFFFFFFFFFFFFFFF AND DUP2 MSTORE PUSH1 0x20 ADD SWAP1 DUP2 MSTORE PUSH1 0x20 ADD PUSH1 0x0 KECCAK256 PUSH1 0x0 SWAP1 SLOAD SWAP1 PUSH2 0x100 EXP SWAP1 DIV PUSH1 0xFF AND PUSH2 0x1033 JUMPI PUSH1 0x40 MLOAD PUSH32 0x8C379A000000000000000000000000000000000000000000000000000000000 DUP2 MSTORE PUSH1 0x4 ADD PUSH2 0x102A SWAP1 PUSH2 0x38F2 JUMP JUMPDEST PUSH1 0x40 MLOAD DUP1 SWAP2 SUB SWAP1 REVERT JUMPDEST PUSH1 0x12 PUSH1 0x5 ADD SLOAD PUSH1 0x20 SLOAD GT ISZERO PUSH2 0x107D JUMPI PUSH1 0x40 MLOAD PUSH32 0x8C379A000000000000000000000000000000000000000000000000000000000 DUP2 MSTORE PUSH1 0x4 ADD PUSH2 0x1074 SWAP1 PUSH2 0x3A12 JUMP JUMPDEST PUSH1 0x40 MLOAD DUP1 SWAP2 SUB SWAP1 REVERT JUMPDEST PUSH1 0x0 JUMPDEST DUP3 MLOAD DUP2 LT ISZERO PUSH2 0x110D JUMPI DUP2 PUSH1 0x5 PUSH1 0x0 DUP6 DUP5 DUP2 MLOAD DUP2 LT PUSH2 0x10A1 JUMPI PUSH2 0x10A0 PUSH2 0x3F17 JUMP JUMPDEST JUMPDEST PUSH1 0x20 MUL PUSH1 0x20 ADD ADD MLOAD PUSH20 0xFFFFFFFFFFFFFFFFFFFFFFFFFFFFFFFFFFFFFFFF AND PUSH20 0xFFFFFFFFFFFFFFFFFFFFFFFFFFFFFFFFFFFFFFFF AND DUP2 MSTORE PUSH1 0x20 ADD SWAP1 DUP2 MSTORE PUSH1 0x20 ADD PUSH1 0x0 KECCAK256 PUSH1 0x0 PUSH2 0x100 EXP DUP2 SLOAD DUP2 PUSH1 0xFF MUL NOT AND SWAP1 DUP4 ISZERO ISZERO MUL OR SWAP1 SSTORE POP DUP1 DUP1 PUSH2 0x1105 SWAP1 PUSH2 0x3E41 JUMP JUMPDEST SWAP2 POP POP PUSH2 0x1080 JUMP JUMPDEST POP POP POP JUMP JUMPDEST PUSH1 0x0 PUSH1 0x20 SLOAD SWAP1 POP SWAP1 JUMP JUMPDEST PUSH1 0x0 PUSH1 0x9 PUSH1 0x0 ADD PUSH1 0x0 SWAP1 SLOAD SWAP1 PUSH2 0x100 EXP SWAP1 DIV PUSH20 0xFFFFFFFFFFFFFFFFFFFFFFFFFFFFFFFFFFFFFFFF AND PUSH20 0xFFFFFFFFFFFFFFFFFFFFFFFFFFFFFFFFFFFFFFFF AND PUSH4 0x70A08231 ADDRESS PUSH1 0x40 MLOAD DUP3 PUSH4 0xFFFFFFFF AND PUSH1 0xE0 SHL DUP2 MSTORE PUSH1 0x4 ADD PUSH2 0x117C SWAP2 SWAP1 PUSH2 0x36BA JUMP JUMPDEST PUSH1 0x20 PUSH1 0x40 MLOAD DUP1 DUP4 SUB DUP2 DUP7 DUP1 EXTCODESIZE ISZERO DUP1 ISZERO PUSH2 0x1194 JUMPI PUSH1 0x0 DUP1 REVERT JUMPDEST POP GAS STATICCALL ISZERO DUP1 ISZERO PUSH2 0x11A8 JUMPI RETURNDATASIZE PUSH1 0x0 DUP1 RETURNDATACOPY RETURNDATASIZE PUSH1 0x0 REVERT JUMPDEST POP POP POP POP PUSH1 0x40 MLOAD RETURNDATASIZE PUSH1 0x1F NOT PUSH1 0x1F DUP3 ADD AND DUP3 ADD DUP1 PUSH1 0x40 MSTORE POP DUP2 ADD SWAP1 PUSH2 0x11CC SWAP2 SWAP1 PUSH2 0x3256 JUMP JUMPDEST SWAP1 POP SWAP1 JUMP JUMPDEST PUSH1 0x7 PUSH1 0x0 SWAP1 SLOAD SWAP1 PUSH2 0x100 EXP SWAP1 DIV PUSH20 0xFFFFFFFFFFFFFFFFFFFFFFFFFFFFFFFFFFFFFFFF AND PUSH20 0xFFFFFFFFFFFFFFFFFFFFFFFFFFFFFFFFFFFFFFFF AND CALLER PUSH20 0xFFFFFFFFFFFFFFFFFFFFFFFFFFFFFFFFFFFFFFFF AND EQ PUSH2 0x1261 JUMPI PUSH1 0x40 MLOAD PUSH32 0x8C379A000000000000000000000000000000000000000000000000000000000 DUP2 MSTORE PUSH1 0x4 ADD PUSH2 0x1258 SWAP1 PUSH2 0x39F2 JUMP JUMPDEST PUSH1 0x40 MLOAD DUP1 SWAP2 SUB SWAP1 REVERT JUMPDEST DUP9 PUSH1 0x9 PUSH1 0x0 ADD PUSH1 0x0 PUSH2 0x100 EXP DUP2 SLOAD DUP2 PUSH20 0xFFFFFFFFFFFFFFFFFFFFFFFFFFFFFFFFFFFFFFFF MUL NOT AND SWAP1 DUP4 PUSH20 0xFFFFFFFFFFFFFFFFFFFFFFFFFFFFFFFFFFFFFFFF AND MUL OR SWAP1 SSTORE POP DUP8 PUSH1 0x9 PUSH1 0x1 ADD DUP2 SWAP1 SSTORE POP DUP7 PUSH1 0x9 PUSH1 0x2 ADD PUSH1 0x0 PUSH2 0x100 EXP DUP2 SLOAD DUP2 PUSH20 0xFFFFFFFFFFFFFFFFFFFFFFFFFFFFFFFFFFFFFFFF MUL NOT AND SWAP1 DUP4 PUSH20 0xFFFFFFFFFFFFFFFFFFFFFFFFFFFFFFFFFFFFFFFF AND MUL OR SWAP1 SSTORE POP DUP6 PUSH1 0x9 PUSH1 0x3 ADD PUSH1 0x0 PUSH2 0x100 EXP DUP2 SLOAD DUP2 PUSH20 0xFFFFFFFFFFFFFFFFFFFFFFFFFFFFFFFFFFFFFFFF MUL NOT AND SWAP1 DUP4 PUSH20 0xFFFFFFFFFFFFFFFFFFFFFFFFFFFFFFFFFFFFFFFF AND MUL OR SWAP1 SSTORE POP DUP5 PUSH1 0x9 PUSH1 0x4 ADD DUP2 SWAP1 SSTORE POP DUP4 PUSH1 0x9 PUSH1 0x5 ADD DUP2 SWAP1 SSTORE POP DUP3 PUSH1 0x9 PUSH1 0x6 ADD DUP2 SWAP1 SSTORE POP DUP2 PUSH1 0x9 PUSH1 0x7 ADD DUP2 SWAP1 SSTORE POP DUP1 PUSH1 0x9 PUSH1 0x8 ADD DUP2 SWAP1 SSTORE POP POP POP POP POP POP POP POP POP POP JUMP JUMPDEST PUSH1 0x3 PUSH1 0x0 CALLER PUSH20 0xFFFFFFFFFFFFFFFFFFFFFFFFFFFFFFFFFFFFFFFF AND PUSH20 0xFFFFFFFFFFFFFFFFFFFFFFFFFFFFFFFFFFFFFFFF AND DUP2 MSTORE PUSH1 0x20 ADD SWAP1 DUP2 MSTORE PUSH1 0x20 ADD PUSH1 0x0 KECCAK256 PUSH1 0x0 SWAP1 SLOAD SWAP1 PUSH2 0x100 EXP SWAP1 DIV PUSH1 0xFF AND PUSH2 0x1400 JUMPI PUSH1 0x40 MLOAD PUSH32 0x8C379A000000000000000000000000000000000000000000000000000000000 DUP2 MSTORE PUSH1 0x4 ADD PUSH2 0x13F7 SWAP1 PUSH2 0x38F2 JUMP JUMPDEST PUSH1 0x40 MLOAD DUP1 SWAP2 SUB SWAP1 REVERT JUMPDEST PUSH1 0x12 PUSH1 0x5 ADD SLOAD PUSH1 0x20 SLOAD GT ISZERO PUSH2 0x144A JUMPI PUSH1 0x40 MLOAD PUSH32 0x8C379A000000000000000000000000000000000000000000000000000000000 DUP2 MSTORE PUSH1 0x4 ADD PUSH2 0x1441 SWAP1 PUSH2 0x3A12 JUMP JUMPDEST PUSH1 0x40 MLOAD DUP1 SWAP2 SUB SWAP1 REVERT JUMPDEST PUSH1 0x1 PUSH1 0x5 PUSH1 0x0 DUP4 PUSH20 0xFFFFFFFFFFFFFFFFFFFFFFFFFFFFFFFFFFFFFFFF AND PUSH20 0xFFFFFFFFFFFFFFFFFFFFFFFFFFFFFFFFFFFFFFFF AND DUP2 MSTORE PUSH1 0x20 ADD SWAP1 DUP2 MSTORE PUSH1 0x20 ADD PUSH1 0x0 KECCAK256 PUSH1 0x0 PUSH2 0x100 EXP DUP2 SLOAD DUP2 PUSH1 0xFF MUL NOT AND SWAP1 DUP4 ISZERO ISZERO MUL OR SWAP1 SSTORE POP PUSH1 0x1 PUSH1 0x20 PUSH1 0x0 DUP3 DUP3 SLOAD PUSH2 0x14B5 SWAP2 SWAP1 PUSH2 0x3BE3 JUMP JUMPDEST SWAP3 POP POP DUP2 SWAP1 SSTORE POP POP JUMP JUMPDEST PUSH1 0x8 PUSH1 0x0 SWAP1 SLOAD SWAP1 PUSH2 0x100 EXP SWAP1 DIV PUSH20 0xFFFFFFFFFFFFFFFFFFFFFFFFFFFFFFFFFFFFFFFF AND PUSH20 0xFFFFFFFFFFFFFFFFFFFFFFFFFFFFFFFFFFFFFFFF AND CALLER PUSH20 0xFFFFFFFFFFFFFFFFFFFFFFFFFFFFFFFFFFFFFFFF AND EQ PUSH2 0x1519 JUMPI PUSH1 0x0 DUP1 REVERT JUMPDEST PUSH1 0x0 PUSH1 0x9 PUSH1 0x0 ADD PUSH1 0x0 SWAP1 SLOAD SWAP1 PUSH2 0x100 EXP SWAP1 DIV PUSH20 0xFFFFFFFFFFFFFFFFFFFFFFFFFFFFFFFFFFFFFFFF AND PUSH20 0xFFFFFFFFFFFFFFFFFFFFFFFFFFFFFFFFFFFFFFFF AND PUSH4 0x70A08231 ADDRESS PUSH1 0x40 MLOAD DUP3 PUSH4 0xFFFFFFFF AND PUSH1 0xE0 SHL DUP2 MSTORE PUSH1 0x4 ADD PUSH2 0x1579 SWAP2 SWAP1 PUSH2 0x36BA JUMP JUMPDEST PUSH1 0x20 PUSH1 0x40 MLOAD DUP1 DUP4 SUB DUP2 DUP7 DUP1 EXTCODESIZE ISZERO DUP1 ISZERO PUSH2 0x1591 JUMPI PUSH1 0x0 DUP1 REVERT JUMPDEST POP GAS STATICCALL ISZERO DUP1 ISZERO PUSH2 0x15A5 JUMPI RETURNDATASIZE PUSH1 0x0 DUP1 RETURNDATACOPY RETURNDATASIZE PUSH1 0x0 REVERT JUMPDEST POP POP POP POP PUSH1 0x40 MLOAD RETURNDATASIZE PUSH1 0x1F NOT PUSH1 0x1F DUP3 ADD AND DUP3 ADD DUP1 PUSH1 0x40 MSTORE POP DUP2 ADD SWAP1 PUSH2 0x15C9 SWAP2 SWAP1 PUSH2 0x3256 JUMP JUMPDEST SWAP1 POP PUSH1 0x9 PUSH1 0x0 ADD PUSH1 0x0 SWAP1 SLOAD SWAP1 PUSH2 0x100 EXP SWAP1 DIV PUSH20 0xFFFFFFFFFFFFFFFFFFFFFFFFFFFFFFFFFFFFFFFF AND PUSH20 0xFFFFFFFFFFFFFFFFFFFFFFFFFFFFFFFFFFFFFFFF AND PUSH4 0xA9059CBB PUSH1 0x2 PUSH1 0x0 SWAP1 SLOAD SWAP1 PUSH2 0x100 EXP SWAP1 DIV PUSH20 0xFFFFFFFFFFFFFFFFFFFFFFFFFFFFFFFFFFFFFFFF AND DUP4 PUSH1 0x40 MLOAD DUP4 PUSH4 0xFFFFFFFF AND PUSH1 0xE0 SHL DUP2 MSTORE PUSH1 0x4 ADD PUSH2 0x164D SWAP3 SWAP2 SWAP1 PUSH2 0x36D5 JUMP JUMPDEST PUSH1 0x20 PUSH1 0x40 MLOAD DUP1 DUP4 SUB DUP2 PUSH1 0x0 DUP8 DUP1 EXTCODESIZE ISZERO DUP1 ISZERO PUSH2 0x1667 JUMPI PUSH1 0x0 DUP1 REVERT JUMPDEST POP GAS CALL ISZERO DUP1 ISZERO PUSH2 0x167B JUMPI RETURNDATASIZE PUSH1 0x0 DUP1 RETURNDATACOPY RETURNDATASIZE PUSH1 0x0 REVERT JUMPDEST POP POP POP POP PUSH1 0x40 MLOAD RETURNDATASIZE PUSH1 0x1F NOT PUSH1 0x1F DUP3 ADD AND DUP3 ADD DUP1 PUSH1 0x40 MSTORE POP DUP2 ADD SWAP1 PUSH2 0x169F SWAP2 SWAP1 PUSH2 0x3105 JUMP JUMPDEST POP POP JUMP JUMPDEST CALLER PUSH20 0xFFFFFFFFFFFFFFFFFFFFFFFFFFFFFFFFFFFFFFFF AND PUSH1 0x9 PUSH1 0x3 ADD PUSH1 0x0 SWAP1 SLOAD SWAP1 PUSH2 0x100 EXP SWAP1 DIV PUSH20 0xFFFFFFFFFFFFFFFFFFFFFFFFFFFFFFFFFFFFFFFF AND PUSH20 0xFFFFFFFFFFFFFFFFFFFFFFFFFFFFFFFFFFFFFFFF AND EQ PUSH2 0x1736 JUMPI PUSH1 0x40 MLOAD PUSH32 0x8C379A000000000000000000000000000000000000000000000000000000000 DUP2 MSTORE PUSH1 0x4 ADD PUSH2 0x172D SWAP1 PUSH2 0x3A52 JUMP JUMPDEST PUSH1 0x40 MLOAD DUP1 SWAP2 SUB SWAP1 REVERT JUMPDEST DUP2 PUSH1 0x12 PUSH1 0x3 ADD DUP2 SWAP1 SSTORE POP DUP1 PUSH1 0x12 PUSH1 0x4 ADD DUP2 SWAP1 SSTORE POP POP POP JUMP JUMPDEST PUSH1 0x0 PUSH1 0x21 SLOAD SWAP1 POP SWAP1 JUMP JUMPDEST PUSH1 0x4 PUSH1 0x1F SLOAD EQ PUSH2 0x179D JUMPI PUSH1 0x40 MLOAD PUSH32 0x8C379A000000000000000000000000000000000000000000000000000000000 DUP2 MSTORE PUSH1 0x4 ADD PUSH2 0x1794 SWAP1 PUSH2 0x39D2 JUMP JUMPDEST PUSH1 0x40 MLOAD DUP1 SWAP2 SUB SWAP1 REVERT JUMPDEST PUSH1 0x0 CALLER SWAP1 POP PUSH1 0x0 PUSH1 0x6 PUSH1 0x0 CALLER PUSH20 0xFFFFFFFFFFFFFFFFFFFFFFFFFFFFFFFFFFFFFFFF AND PUSH20 0xFFFFFFFFFFFFFFFFFFFFFFFFFFFFFFFFFFFFFFFF AND DUP2 MSTORE PUSH1 0x20 ADD SWAP1 DUP2 MSTORE PUSH1 0x20 ADD PUSH1 0x0 KECCAK256 SWAP1 POP PUSH1 0x0 DUP2 PUSH1 0x0 ADD SLOAD SWAP1 POP PUSH1 0x0 DUP2 GT PUSH2 0x1831 JUMPI PUSH1 0x40 MLOAD PUSH32 0x8C379A000000000000000000000000000000000000000000000000000000000 DUP2 MSTORE PUSH1 0x4 ADD PUSH2 0x1828 SWAP1 PUSH2 0x39B2 JUMP JUMPDEST PUSH1 0x40 MLOAD DUP1 SWAP2 SUB SWAP1 REVERT JUMPDEST DUP3 PUSH20 0xFFFFFFFFFFFFFFFFFFFFFFFFFFFFFFFFFFFFFFFF AND PUSH2 0x8FC DUP3 SWAP1 DUP2 ISZERO MUL SWAP1 PUSH1 0x40 MLOAD PUSH1 0x0 PUSH1 0x40 MLOAD DUP1 DUP4 SUB DUP2 DUP6 DUP9 DUP9 CALL SWAP4 POP POP POP POP ISZERO DUP1 ISZERO PUSH2 0x1877 JUMPI RETURNDATASIZE PUSH1 0x0 DUP1 RETURNDATACOPY RETURNDATASIZE PUSH1 0x0 REVERT JUMPDEST POP PUSH1 0x0 DUP3 PUSH1 0x0 ADD DUP2 SWAP1 SSTORE POP POP POP POP JUMP JUMPDEST PUSH1 0x8 PUSH1 0x0 SWAP1 SLOAD SWAP1 PUSH2 0x100 EXP SWAP1 DIV PUSH20 0xFFFFFFFFFFFFFFFFFFFFFFFFFFFFFFFFFFFFFFFF AND PUSH20 0xFFFFFFFFFFFFFFFFFFFFFFFFFFFFFFFFFFFFFFFF AND CALLER PUSH20 0xFFFFFFFFFFFFFFFFFFFFFFFFFFFFFFFFFFFFFFFF AND EQ PUSH2 0x18E1 JUMPI PUSH1 0x0 DUP1 REVERT JUMPDEST PUSH1 0x1 PUSH1 0x3 PUSH1 0x0 DUP4 PUSH20 0xFFFFFFFFFFFFFFFFFFFFFFFFFFFFFFFFFFFFFFFF AND PUSH20 0xFFFFFFFFFFFFFFFFFFFFFFFFFFFFFFFFFFFFFFFF AND DUP2 MSTORE PUSH1 0x20 ADD SWAP1 DUP2 MSTORE PUSH1 0x20 ADD PUSH1 0x0 KECCAK256 PUSH1 0x0 PUSH2 0x100 EXP DUP2 SLOAD DUP2 PUSH1 0xFF MUL NOT AND SWAP1 DUP4 ISZERO ISZERO MUL OR SWAP1 SSTORE POP POP JUMP JUMPDEST PUSH1 0x0 PUSH1 0x9 PUSH1 0x7 ADD SLOAD SWAP1 POP SWAP1 JUMP JUMPDEST PUSH1 0x0 PUSH1 0x5 PUSH1 0x0 DUP4 PUSH20 0xFFFFFFFFFFFFFFFFFFFFFFFFFFFFFFFFFFFFFFFF AND PUSH20 0xFFFFFFFFFFFFFFFFFFFFFFFFFFFFFFFFFFFFFFFF AND DUP2 MSTORE PUSH1 0x20 ADD SWAP1 DUP2 MSTORE PUSH1 0x20 ADD PUSH1 0x0 KECCAK256 PUSH1 0x0 SWAP1 SLOAD SWAP1 PUSH2 0x100 EXP SWAP1 DIV PUSH1 0xFF AND SWAP1 POP SWAP2 SWAP1 POP JUMP JUMPDEST PUSH1 0x0 PUSH1 0x12 PUSH1 0x6 ADD PUSH1 0x0 SWAP1 SLOAD SWAP1 PUSH2 0x100 EXP SWAP1 DIV PUSH1 0xFF AND SWAP1 POP SWAP1 JUMP JUMPDEST PUSH1 0x8 PUSH1 0x0 SWAP1 SLOAD SWAP1 PUSH2 0x100 EXP SWAP1 DIV PUSH20 0xFFFFFFFFFFFFFFFFFFFFFFFFFFFFFFFFFFFFFFFF AND PUSH20 0xFFFFFFFFFFFFFFFFFFFFFFFFFFFFFFFFFFFFFFFF AND CALLER PUSH20 0xFFFFFFFFFFFFFFFFFFFFFFFFFFFFFFFFFFFFFFFF AND EQ PUSH2 0x1A13 JUMPI PUSH1 0x0 DUP1 REVERT JUMPDEST PUSH1 0x4 PUSH1 0x1F DUP2 SWAP1 SSTORE POP JUMP JUMPDEST PUSH1 0x6 PUSH1 0x20 MSTORE DUP1 PUSH1 0x0 MSTORE PUSH1 0x40 PUSH1 0x0 KECCAK256 PUSH1 0x0 SWAP2 POP SWAP1 POP DUP1 PUSH1 0x0 ADD SLOAD SWAP1 DUP1 PUSH1 0x1 ADD SLOAD SWAP1 POP DUP3 JUMP JUMPDEST PUSH1 0x0 PUSH1 0x9 PUSH1 0x6 ADD SLOAD SWAP1 POP SWAP1 JUMP JUMPDEST PUSH1 0x2 PUSH1 0x0 SLOAD EQ ISZERO PUSH2 0x1A94 JUMPI PUSH1 0x40 MLOAD PUSH32 0x8C379A000000000000000000000000000000000000000000000000000000000 DUP2 MSTORE PUSH1 0x4 ADD PUSH2 0x1A8B SWAP1 PUSH2 0x3A32 JUMP JUMPDEST PUSH1 0x40 MLOAD DUP1 SWAP2 SUB SWAP1 REVERT JUMPDEST PUSH1 0x2 PUSH1 0x0 DUP2 SWAP1 SSTORE POP PUSH1 0x12 PUSH1 0x2 ADD PUSH1 0x0 SWAP1 SLOAD SWAP1 PUSH2 0x100 EXP SWAP1 DIV PUSH1 0xFF AND PUSH2 0x1AEE JUMPI PUSH1 0x40 MLOAD PUSH32 0x8C379A000000000000000000000000000000000000000000000000000000000 DUP2 MSTORE PUSH1 0x4 ADD PUSH2 0x1AE5 SWAP1 PUSH2 0x3932 JUMP JUMPDEST PUSH1 0x40 MLOAD DUP1 SWAP2 SUB SWAP1 REVERT JUMPDEST PUSH1 0x12 PUSH1 0x3 ADD SLOAD TIMESTAMP LT ISZERO DUP1 ISZERO PUSH2 0x1B07 JUMPI POP PUSH1 0x12 PUSH1 0x4 ADD SLOAD TIMESTAMP LT JUMPDEST PUSH2 0x1B46 JUMPI PUSH1 0x40 MLOAD PUSH32 0x8C379A000000000000000000000000000000000000000000000000000000000 DUP2 MSTORE PUSH1 0x4 ADD PUSH2 0x1B3D SWAP1 PUSH2 0x38D2 JUMP JUMPDEST PUSH1 0x40 MLOAD DUP1 SWAP2 SUB SWAP1 REVERT JUMPDEST PUSH1 0x5 PUSH1 0x0 CALLER PUSH20 0xFFFFFFFFFFFFFFFFFFFFFFFFFFFFFFFFFFFFFFFF AND PUSH20 0xFFFFFFFFFFFFFFFFFFFFFFFFFFFFFFFFFFFFFFFF AND DUP2 MSTORE PUSH1 0x20 ADD SWAP1 DUP2 MSTORE PUSH1 0x20 ADD PUSH1 0x0 KECCAK256 PUSH1 0x0 SWAP1 SLOAD SWAP1 PUSH2 0x100 EXP SWAP1 DIV PUSH1 0xFF AND PUSH2 0x1BD2 JUMPI PUSH1 0x40 MLOAD PUSH32 0x8C379A000000000000000000000000000000000000000000000000000000000 DUP2 MSTORE PUSH1 0x4 ADD PUSH2 0x1BC9 SWAP1 PUSH2 0x3952 JUMP JUMPDEST PUSH1 0x40 MLOAD DUP1 SWAP2 SUB SWAP1 REVERT JUMPDEST PUSH1 0x9 PUSH1 0x4 ADD SLOAD CALLVALUE GT ISZERO PUSH2 0x1C1A JUMPI PUSH1 0x40 MLOAD PUSH32 0x8C379A000000000000000000000000000000000000000000000000000000000 DUP2 MSTORE PUSH1 0x4 ADD PUSH2 0x1C11 SWAP1 PUSH2 0x3892 JUMP JUMPDEST PUSH1 0x40 MLOAD DUP1 SWAP2 SUB SWAP1 REVERT JUMPDEST PUSH1 0x9 PUSH1 0x7 ADD SLOAD CALLVALUE SELFBALANCE PUSH2 0x1C2C SWAP2 SWAP1 PUSH2 0x3BE3 JUMP JUMPDEST GT ISZERO PUSH2 0x1C37 JUMPI PUSH1 0x0 DUP1 REVERT JUMPDEST PUSH1 0x0 PUSH1 0x6 PUSH1 0x0 CALLER PUSH20 0xFFFFFFFFFFFFFFFFFFFFFFFFFFFFFFFFFFFFFFFF AND PUSH20 0xFFFFFFFFFFFFFFFFFFFFFFFFFFFFFFFFFFFFFFFF AND DUP2 MSTORE PUSH1 0x20 ADD SWAP1 DUP2 MSTORE PUSH1 0x20 ADD PUSH1 0x0 KECCAK256 SWAP1 POP PUSH1 0x0 CALLVALUE SWAP1 POP PUSH1 0x0 PUSH1 0x9 PUSH1 0x1 ADD SLOAD DUP3 PUSH2 0x1C92 SWAP2 SWAP1 PUSH2 0x3C6A JUMP JUMPDEST SWAP1 POP PUSH1 0x9 PUSH1 0x4 ADD SLOAD CALLVALUE DUP5 PUSH1 0x0 ADD SLOAD PUSH2 0x1CAA SWAP2 SWAP1 PUSH2 0x3BE3 JUMP JUMPDEST GT ISZERO PUSH2 0x1CEB JUMPI PUSH1 0x40 MLOAD PUSH32 0x8C379A000000000000000000000000000000000000000000000000000000000 DUP2 MSTORE PUSH1 0x4 ADD PUSH2 0x1CE2 SWAP1 PUSH2 0x3912 JUMP JUMPDEST PUSH1 0x40 MLOAD DUP1 SWAP2 SUB SWAP1 REVERT JUMPDEST CALLVALUE DUP4 PUSH1 0x0 ADD PUSH1 0x0 DUP3 DUP3 SLOAD PUSH2 0x1CFF SWAP2 SWAP1 PUSH2 0x3BE3 JUMP JUMPDEST SWAP3 POP POP DUP2 SWAP1 SSTORE POP DUP1 DUP4 PUSH1 0x1 ADD PUSH1 0x0 DUP3 DUP3 SLOAD PUSH2 0x1D1A SWAP2 SWAP1 PUSH2 0x3BE3 JUMP JUMPDEST SWAP3 POP POP DUP2 SWAP1 SSTORE POP DUP2 PUSH1 0x21 PUSH1 0x0 DUP3 DUP3 SLOAD PUSH2 0x1D33 SWAP2 SWAP1 PUSH2 0x3BE3 JUMP JUMPDEST SWAP3 POP POP DUP2 SWAP1 SSTORE POP PUSH1 0x1 PUSH1 0x22 PUSH1 0x0 DUP3 DUP3 SLOAD PUSH2 0x1D4D SWAP2 SWAP1 PUSH2 0x3BE3 JUMP JUMPDEST SWAP3 POP POP DUP2 SWAP1 SSTORE POP POP POP POP PUSH1 0x1 PUSH1 0x0 DUP2 SWAP1 SSTORE POP JUMP JUMPDEST PUSH1 0x0 PUSH1 0x22 SLOAD SWAP1 POP SWAP1 JUMP JUMPDEST CALLER PUSH20 0xFFFFFFFFFFFFFFFFFFFFFFFFFFFFFFFFFFFFFFFF AND PUSH1 0x9 PUSH1 0x3 ADD PUSH1 0x0 SWAP1 SLOAD SWAP1 PUSH2 0x100 EXP SWAP1 DIV PUSH20 0xFFFFFFFFFFFFFFFFFFFFFFFFFFFFFFFFFFFFFFFF AND PUSH20 0xFFFFFFFFFFFFFFFFFFFFFFFFFFFFFFFFFFFFFFFF AND EQ PUSH2 0x1DFE JUMPI PUSH1 0x40 MLOAD PUSH32 0x8C379A000000000000000000000000000000000000000000000000000000000 DUP2 MSTORE PUSH1 0x4 ADD PUSH2 0x1DF5 SWAP1 PUSH2 0x3A52 JUMP JUMPDEST PUSH1 0x40 MLOAD DUP1 SWAP2 SUB SWAP1 REVERT JUMPDEST DUP2 PUSH1 0x12 PUSH1 0x0 ADD DUP2 SWAP1 SSTORE POP DUP1 PUSH1 0x12 PUSH1 0x1 ADD DUP2 SWAP1 SSTORE POP POP POP JUMP JUMPDEST PUSH1 0x2 PUSH1 0x0 SLOAD EQ ISZERO PUSH2 0x1E5C JUMPI PUSH1 0x40 MLOAD PUSH32 0x8C379A000000000000000000000000000000000000000000000000000000000 DUP2 MSTORE PUSH1 0x4 ADD PUSH2 0x1E53 SWAP1 PUSH2 0x3A32 JUMP JUMPDEST PUSH1 0x40 MLOAD DUP1 SWAP2 SUB SWAP1 REVERT JUMPDEST PUSH1 0x2 PUSH1 0x0 DUP2 SWAP1 SSTORE POP PUSH1 0x12 PUSH1 0x0 ADD SLOAD TIMESTAMP LT ISZERO DUP1 ISZERO PUSH2 0x1E7D JUMPI POP PUSH1 0x12 PUSH1 0x1 ADD SLOAD TIMESTAMP LT JUMPDEST PUSH2 0x1EBC JUMPI PUSH1 0x40 MLOAD PUSH32 0x8C379A000000000000000000000000000000000000000000000000000000000 DUP2 MSTORE PUSH1 0x4 ADD PUSH2 0x1EB3 SWAP1 PUSH2 0x3972 JUMP JUMPDEST PUSH1 0x40 MLOAD DUP1 SWAP2 SUB SWAP1 REVERT JUMPDEST PUSH1 0x9 PUSH1 0x4 ADD SLOAD CALLVALUE GT ISZERO PUSH2 0x1F04 JUMPI PUSH1 0x40 MLOAD PUSH32 0x8C379A000000000000000000000000000000000000000000000000000000000 DUP2 MSTORE PUSH1 0x4 ADD PUSH2 0x1EFB SWAP1 PUSH2 0x3892 JUMP JUMPDEST PUSH1 0x40 MLOAD DUP1 SWAP2 SUB SWAP1 REVERT JUMPDEST PUSH1 0x9 PUSH1 0x4 ADD SLOAD CALLVALUE SELFBALANCE PUSH2 0x1F16 SWAP2 SWAP1 PUSH2 0x3BE3 JUMP JUMPDEST GT ISZERO PUSH2 0x1F21 JUMPI PUSH1 0x0 DUP1 REVERT JUMPDEST PUSH1 0x0 PUSH1 0x6 PUSH1 0x0 CALLER PUSH20 0xFFFFFFFFFFFFFFFFFFFFFFFFFFFFFFFFFFFFFFFF AND PUSH20 0xFFFFFFFFFFFFFFFFFFFFFFFFFFFFFFFFFFFFFFFF AND DUP2 MSTORE PUSH1 0x20 ADD SWAP1 DUP2 MSTORE PUSH1 0x20 ADD PUSH1 0x0 KECCAK256 SWAP1 POP PUSH1 0x0 CALLVALUE SWAP1 POP PUSH1 0x0 PUSH1 0x9 PUSH1 0x1 ADD SLOAD DUP3 PUSH2 0x1F7C SWAP2 SWAP1 PUSH2 0x3C6A JUMP JUMPDEST SWAP1 POP PUSH1 0x9 PUSH1 0x4 ADD SLOAD CALLVALUE DUP5 PUSH1 0x0 ADD SLOAD PUSH2 0x1F94 SWAP2 SWAP1 PUSH2 0x3BE3 JUMP JUMPDEST GT ISZERO PUSH2 0x1FD5 JUMPI PUSH1 0x40 MLOAD PUSH32 0x8C379A000000000000000000000000000000000000000000000000000000000 DUP2 MSTORE PUSH1 0x4 ADD PUSH2 0x1FCC SWAP1 PUSH2 0x3912 JUMP JUMPDEST PUSH1 0x40 MLOAD DUP1 SWAP2 SUB SWAP1 REVERT JUMPDEST CALLVALUE DUP4 PUSH1 0x0 ADD PUSH1 0x0 DUP3 DUP3 SLOAD PUSH2 0x1FE9 SWAP2 SWAP1 PUSH2 0x3BE3 JUMP JUMPDEST SWAP3 POP POP DUP2 SWAP1 SSTORE POP DUP1 DUP4 PUSH1 0x1 ADD PUSH1 0x0 DUP3 DUP3 SLOAD PUSH2 0x2004 SWAP2 SWAP1 PUSH2 0x3BE3 JUMP JUMPDEST SWAP3 POP POP DUP2 SWAP1 SSTORE POP DUP2 PUSH1 0x21 PUSH1 0x0 DUP3 DUP3 SLOAD PUSH2 0x201D SWAP2 SWAP1 PUSH2 0x3BE3 JUMP JUMPDEST SWAP3 POP POP DUP2 SWAP1 SSTORE POP POP POP POP PUSH1 0x1 PUSH1 0x0 DUP2 SWAP1 SSTORE POP JUMP JUMPDEST PUSH1 0x0 PUSH1 0x6 PUSH1 0x0 CALLER PUSH20 0xFFFFFFFFFFFFFFFFFFFFFFFFFFFFFFFFFFFFFFFF AND PUSH20 0xFFFFFFFFFFFFFFFFFFFFFFFFFFFFFFFFFFFFFFFF AND DUP2 MSTORE PUSH1 0x20 ADD SWAP1 DUP2 MSTORE PUSH1 0x20 ADD PUSH1 0x0 KECCAK256 SWAP1 POP PUSH1 0x3 PUSH1 0x1F SLOAD EQ PUSH2 0x20B9 JUMPI PUSH1 0x40 MLOAD PUSH32 0x8C379A000000000000000000000000000000000000000000000000000000000 DUP2 MSTORE PUSH1 0x4 ADD PUSH2 0x20B0 SWAP1 PUSH2 0x3992 JUMP JUMPDEST PUSH1 0x40 MLOAD DUP1 SWAP2 SUB SWAP1 REVERT JUMPDEST PUSH1 0x0 DUP2 PUSH1 0x1 ADD SLOAD SWAP1 POP PUSH1 0x0 DUP2 GT PUSH2 0x2105 JUMPI PUSH1 0x40 MLOAD PUSH32 0x8C379A000000000000000000000000000000000000000000000000000000000 DUP2 MSTORE PUSH1 0x4 ADD PUSH2 0x20FC SWAP1 PUSH2 0x3A72 JUMP JUMPDEST PUSH1 0x40 MLOAD DUP1 SWAP2 SUB SWAP1 REVERT JUMPDEST PUSH1 0x9 PUSH1 0x0 ADD PUSH1 0x0 SWAP1 SLOAD SWAP1 PUSH2 0x100 EXP SWAP1 DIV PUSH20 0xFFFFFFFFFFFFFFFFFFFFFFFFFFFFFFFFFFFFFFFF AND PUSH20 0xFFFFFFFFFFFFFFFFFFFFFFFFFFFFFFFFFFFFFFFF AND PUSH4 0xA9059CBB CALLER DUP4 PUSH1 0x40 MLOAD DUP4 PUSH4 0xFFFFFFFF AND PUSH1 0xE0 SHL DUP2 MSTORE PUSH1 0x4 ADD PUSH2 0x2165 SWAP3 SWAP2 SWAP1 PUSH2 0x36D5 JUMP JUMPDEST PUSH1 0x20 PUSH1 0x40 MLOAD DUP1 DUP4 SUB DUP2 PUSH1 0x0 DUP8 DUP1 EXTCODESIZE ISZERO DUP1 ISZERO PUSH2 0x217F JUMPI PUSH1 0x0 DUP1 REVERT JUMPDEST POP GAS CALL ISZERO DUP1 ISZERO PUSH2 0x2193 JUMPI RETURNDATASIZE PUSH1 0x0 DUP1 RETURNDATACOPY RETURNDATASIZE PUSH1 0x0 REVERT JUMPDEST POP POP POP POP PUSH1 0x40 MLOAD RETURNDATASIZE PUSH1 0x1F NOT PUSH1 0x1F DUP3 ADD AND DUP3 ADD DUP1 PUSH1 0x40 MSTORE POP DUP2 ADD SWAP1 PUSH2 0x21B7 SWAP2 SWAP1 PUSH2 0x3105 JUMP JUMPDEST POP PUSH1 0x0 DUP3 PUSH1 0x1 ADD DUP2 SWAP1 SSTORE POP POP POP JUMP JUMPDEST PUSH1 0x12 DUP1 PUSH1 0x0 ADD SLOAD SWAP1 DUP1 PUSH1 0x1 ADD SLOAD SWAP1 DUP1 PUSH1 0x2 ADD PUSH1 0x0 SWAP1 SLOAD SWAP1 PUSH2 0x100 EXP SWAP1 DIV PUSH1 0xFF AND SWAP1 DUP1 PUSH1 0x3 ADD SLOAD SWAP1 DUP1 PUSH1 0x4 ADD SLOAD SWAP1 DUP1 PUSH1 0x5 ADD SLOAD SWAP1 DUP1 PUSH1 0x6 ADD PUSH1 0x0 SWAP1 SLOAD SWAP1 PUSH2 0x100 EXP SWAP1 DIV PUSH1 0xFF AND SWAP1 POP DUP8 JUMP JUMPDEST PUSH1 0x0 DUP1 PUSH1 0x6 PUSH1 0x0 DUP5 PUSH20 0xFFFFFFFFFFFFFFFFFFFFFFFFFFFFFFFFFFFFFFFF AND PUSH20 0xFFFFFFFFFFFFFFFFFFFFFFFFFFFFFFFFFFFFFFFF AND DUP2 MSTORE PUSH1 0x20 ADD SWAP1 DUP2 MSTORE PUSH1 0x20 ADD PUSH1 0x0 KECCAK256 SWAP1 POP DUP1 PUSH1 0x0 ADD SLOAD SWAP2 POP POP SWAP2 SWAP1 POP JUMP JUMPDEST CALLER PUSH20 0xFFFFFFFFFFFFFFFFFFFFFFFFFFFFFFFFFFFFFFFF AND PUSH1 0x9 PUSH1 0x3 ADD PUSH1 0x0 SWAP1 SLOAD SWAP1 PUSH2 0x100 EXP SWAP1 DIV PUSH20 0xFFFFFFFFFFFFFFFFFFFFFFFFFFFFFFFFFFFFFFFF AND PUSH20 0xFFFFFFFFFFFFFFFFFFFFFFFFFFFFFFFFFFFFFFFF AND EQ PUSH2 0x22F4 JUMPI PUSH1 0x40 MLOAD PUSH32 0x8C379A000000000000000000000000000000000000000000000000000000000 DUP2 MSTORE PUSH1 0x4 ADD PUSH2 0x22EB SWAP1 PUSH2 0x3A52 JUMP JUMPDEST PUSH1 0x40 MLOAD DUP1 SWAP2 SUB SWAP1 REVERT JUMPDEST PUSH1 0x0 PUSH1 0x9 PUSH1 0x0 ADD PUSH1 0x0 SWAP1 SLOAD SWAP1 PUSH2 0x100 EXP SWAP1 DIV PUSH20 0xFFFFFFFFFFFFFFFFFFFFFFFFFFFFFFFFFFFFFFFF AND PUSH20 0xFFFFFFFFFFFFFFFFFFFFFFFFFFFFFFFFFFFFFFFF AND PUSH4 0x70A08231 ADDRESS PUSH1 0x40 MLOAD DUP3 PUSH4 0xFFFFFFFF AND PUSH1 0xE0 SHL DUP2 MSTORE PUSH1 0x4 ADD PUSH2 0x2354 SWAP2 SWAP1 PUSH2 0x36BA JUMP JUMPDEST PUSH1 0x20 PUSH1 0x40 MLOAD DUP1 DUP4 SUB DUP2 DUP7 DUP1 EXTCODESIZE ISZERO DUP1 ISZERO PUSH2 0x236C JUMPI PUSH1 0x0 DUP1 REVERT JUMPDEST POP GAS STATICCALL ISZERO DUP1 ISZERO PUSH2 0x2380 JUMPI RETURNDATASIZE PUSH1 0x0 DUP1 RETURNDATACOPY RETURNDATASIZE PUSH1 0x0 REVERT JUMPDEST POP POP POP POP PUSH1 0x40 MLOAD RETURNDATASIZE PUSH1 0x1F NOT PUSH1 0x1F DUP3 ADD AND DUP3 ADD DUP1 PUSH1 0x40 MSTORE POP DUP2 ADD SWAP1 PUSH2 0x23A4 SWAP2 SWAP1 PUSH2 0x3256 JUMP JUMPDEST SWAP1 POP PUSH1 0x9 PUSH1 0x0 ADD PUSH1 0x0 SWAP1 SLOAD SWAP1 PUSH2 0x100 EXP SWAP1 DIV PUSH20 0xFFFFFFFFFFFFFFFFFFFFFFFFFFFFFFFFFFFFFFFF AND PUSH20 0xFFFFFFFFFFFFFFFFFFFFFFFFFFFFFFFFFFFFFFFF AND PUSH4 0xA9059CBB PUSH1 0x4 PUSH1 0x0 SWAP1 SLOAD SWAP1 PUSH2 0x100 EXP SWAP1 DIV PUSH20 0xFFFFFFFFFFFFFFFFFFFFFFFFFFFFFFFFFFFFFFFF AND DUP4 PUSH1 0x40 MLOAD DUP4 PUSH4 0xFFFFFFFF AND PUSH1 0xE0 SHL DUP2 MSTORE PUSH1 0x4 ADD PUSH2 0x2428 SWAP3 SWAP2 SWAP1 PUSH2 0x36D5 JUMP JUMPDEST PUSH1 0x20 PUSH1 0x40 MLOAD DUP1 DUP4 SUB DUP2 PUSH1 0x0 DUP8 DUP1 EXTCODESIZE ISZERO DUP1 ISZERO PUSH2 0x2442 JUMPI PUSH1 0x0 DUP1 REVERT JUMPDEST POP GAS CALL ISZERO DUP1 ISZERO PUSH2 0x2456 JUMPI RETURNDATASIZE PUSH1 0x0 DUP1 RETURNDATACOPY RETURNDATASIZE PUSH1 0x0 REVERT JUMPDEST POP POP POP POP PUSH1 0x40 MLOAD RETURNDATASIZE PUSH1 0x1F NOT PUSH1 0x1F DUP3 ADD AND DUP3 ADD DUP1 PUSH1 0x40 MSTORE POP DUP2 ADD SWAP1 PUSH2 0x247A SWAP2 SWAP1 PUSH2 0x3105 JUMP JUMPDEST POP POP JUMP JUMPDEST PUSH1 0x8 PUSH1 0x0 SWAP1 SLOAD SWAP1 PUSH2 0x100 EXP SWAP1 DIV PUSH20 0xFFFFFFFFFFFFFFFFFFFFFFFFFFFFFFFFFFFFFFFF AND PUSH20 0xFFFFFFFFFFFFFFFFFFFFFFFFFFFFFFFFFFFFFFFF AND CALLER PUSH20 0xFFFFFFFFFFFFFFFFFFFFFFFFFFFFFFFFFFFFFFFF AND EQ PUSH2 0x24D8 JUMPI PUSH1 0x0 DUP1 REVERT JUMPDEST DUP1 PUSH1 0x9 PUSH1 0x0 ADD PUSH1 0x0 PUSH2 0x100 EXP DUP2 SLOAD DUP2 PUSH20 0xFFFFFFFFFFFFFFFFFFFFFFFFFFFFFFFFFFFFFFFF MUL NOT AND SWAP1 DUP4 PUSH20 0xFFFFFFFFFFFFFFFFFFFFFFFFFFFFFFFFFFFFFFFF AND MUL OR SWAP1 SSTORE POP POP JUMP JUMPDEST PUSH1 0x3 PUSH1 0x0 CALLER PUSH20 0xFFFFFFFFFFFFFFFFFFFFFFFFFFFFFFFFFFFFFFFF AND PUSH20 0xFFFFFFFFFFFFFFFFFFFFFFFFFFFFFFFFFFFFFFFF AND DUP2 MSTORE PUSH1 0x20 ADD SWAP1 DUP2 MSTORE PUSH1 0x20 ADD PUSH1 0x0 KECCAK256 PUSH1 0x0 SWAP1 SLOAD SWAP1 PUSH2 0x100 EXP SWAP1 DIV PUSH1 0xFF AND PUSH2 0x2575 JUMPI PUSH1 0x0 DUP1 REVERT JUMPDEST DUP1 PUSH1 0x9 PUSH1 0x0 ADD PUSH1 0x0 PUSH2 0x100 EXP DUP2 SLOAD DUP2 PUSH20 0xFFFFFFFFFFFFFFFFFFFFFFFFFFFFFFFFFFFFFFFF MUL NOT AND SWAP1 DUP4 PUSH20 0xFFFFFFFFFFFFFFFFFFFFFFFFFFFFFFFFFFFFFFFF AND MUL OR SWAP1 SSTORE POP POP JUMP JUMPDEST PUSH1 0x8 PUSH1 0x0 SWAP1 SLOAD SWAP1 PUSH2 0x100 EXP SWAP1 DIV PUSH20 0xFFFFFFFFFFFFFFFFFFFFFFFFFFFFFFFFFFFFFFFF AND PUSH20 0xFFFFFFFFFFFFFFFFFFFFFFFFFFFFFFFFFFFFFFFF AND CALLER PUSH20 0xFFFFFFFFFFFFFFFFFFFFFFFFFFFFFFFFFFFFFFFF AND EQ PUSH2 0x2616 JUMPI PUSH1 0x0 DUP1 REVERT JUMPDEST PUSH1 0x0 SELFBALANCE SWAP1 POP DUP2 PUSH20 0xFFFFFFFFFFFFFFFFFFFFFFFFFFFFFFFFFFFFFFFF AND PUSH2 0x8FC DUP3 SWAP1 DUP2 ISZERO MUL SWAP1 PUSH1 0x40 MLOAD PUSH1 0x0 PUSH1 0x40 MLOAD DUP1 DUP4 SUB DUP2 DUP6 DUP9 DUP9 CALL SWAP4 POP POP POP POP ISZERO DUP1 ISZERO PUSH2 0x2661 JUMPI RETURNDATASIZE PUSH1 0x0 DUP1 RETURNDATACOPY RETURNDATASIZE PUSH1 0x0 REVERT JUMPDEST POP POP POP JUMP JUMPDEST PUSH1 0x0 PUSH1 0x1F SLOAD SWAP1 POP SWAP1 JUMP JUMPDEST CALLER PUSH20 0xFFFFFFFFFFFFFFFFFFFFFFFFFFFFFFFFFFFFFFFF AND PUSH1 0x9 PUSH1 0x3 ADD PUSH1 0x0 SWAP1 SLOAD SWAP1 PUSH2 0x100 EXP SWAP1 DIV PUSH20 0xFFFFFFFFFFFFFFFFFFFFFFFFFFFFFFFFFFFFFFFF AND PUSH20 0xFFFFFFFFFFFFFFFFFFFFFFFFFFFFFFFFFFFFFFFF AND EQ PUSH2 0x2703 JUMPI PUSH1 0x40 MLOAD PUSH32 0x8C379A000000000000000000000000000000000000000000000000000000000 DUP2 MSTORE PUSH1 0x4 ADD PUSH2 0x26FA SWAP1 PUSH2 0x3A52 JUMP JUMPDEST PUSH1 0x40 MLOAD DUP1 SWAP2 SUB SWAP1 REVERT JUMPDEST PUSH1 0x4 PUSH1 0x1F DUP2 SWAP1 SSTORE POP JUMP JUMPDEST CALLER PUSH20 0xFFFFFFFFFFFFFFFFFFFFFFFFFFFFFFFFFFFFFFFF AND PUSH1 0x9 PUSH1 0x3 ADD PUSH1 0x0 SWAP1 SLOAD SWAP1 PUSH2 0x100 EXP SWAP1 DIV PUSH20 0xFFFFFFFFFFFFFFFFFFFFFFFFFFFFFFFFFFFFFFFF AND PUSH20 0xFFFFFFFFFFFFFFFFFFFFFFFFFFFFFFFFFFFFFFFF AND EQ PUSH2 0x27A0 JUMPI PUSH1 0x40 MLOAD PUSH32 0x8C379A000000000000000000000000000000000000000000000000000000000 DUP2 MSTORE PUSH1 0x4 ADD PUSH2 0x2797 SWAP1 PUSH2 0x3A52 JUMP JUMPDEST PUSH1 0x40 MLOAD DUP1 SWAP2 SUB SWAP1 REVERT JUMPDEST PUSH1 0x9 PUSH1 0x6 ADD SLOAD SELFBALANCE LT ISZERO PUSH2 0x27E8 JUMPI PUSH1 0x40 MLOAD PUSH32 0x8C379A000000000000000000000000000000000000000000000000000000000 DUP2 MSTORE PUSH1 0x4 ADD PUSH2 0x27DF SWAP1 PUSH2 0x38B2 JUMP JUMPDEST PUSH1 0x40 MLOAD DUP1 SWAP2 SUB SWAP1 REVERT JUMPDEST PUSH1 0x0 PUSH1 0x64 PUSH1 0x9 PUSH1 0x8 ADD SLOAD SELFBALANCE PUSH2 0x27FD SWAP2 SWAP1 PUSH2 0x3C6A JUMP JUMPDEST PUSH2 0x2807 SWAP2 SWAP1 PUSH2 0x3C39 JUMP JUMPDEST SWAP1 POP PUSH2 0x2812 DUP2 PUSH2 0x2B50 JUMP JUMPDEST PUSH1 0x3 PUSH1 0x1F DUP2 SWAP1 SSTORE POP PUSH1 0x0 SELFBALANCE SWAP1 POP PUSH1 0x2 PUSH1 0x0 SWAP1 SLOAD SWAP1 PUSH2 0x100 EXP SWAP1 DIV PUSH20 0xFFFFFFFFFFFFFFFFFFFFFFFFFFFFFFFFFFFFFFFF AND PUSH20 0xFFFFFFFFFFFFFFFFFFFFFFFFFFFFFFFFFFFFFFFF AND PUSH2 0x8FC DUP3 SWAP1 DUP2 ISZERO MUL SWAP1 PUSH1 0x40 MLOAD PUSH1 0x0 PUSH1 0x40 MLOAD DUP1 DUP4 SUB DUP2 DUP6 DUP9 DUP9 CALL SWAP4 POP POP POP POP ISZERO DUP1 ISZERO PUSH2 0x2887 JUMPI RETURNDATASIZE PUSH1 0x0 DUP1 RETURNDATACOPY RETURNDATASIZE PUSH1 0x0 REVERT JUMPDEST POP POP POP JUMP JUMPDEST CALLER PUSH20 0xFFFFFFFFFFFFFFFFFFFFFFFFFFFFFFFFFFFFFFFF AND PUSH1 0x9 PUSH1 0x3 ADD PUSH1 0x0 SWAP1 SLOAD SWAP1 PUSH2 0x100 EXP SWAP1 DIV PUSH20 0xFFFFFFFFFFFFFFFFFFFFFFFFFFFFFFFFFFFFFFFF AND PUSH20 0xFFFFFFFFFFFFFFFFFFFFFFFFFFFFFFFFFFFFFFFF AND EQ PUSH2 0x291F JUMPI PUSH1 0x40 MLOAD PUSH32 0x8C379A000000000000000000000000000000000000000000000000000000000 DUP2 MSTORE PUSH1 0x4 ADD PUSH2 0x2916 SWAP1 PUSH2 0x3A52 JUMP JUMPDEST PUSH1 0x40 MLOAD DUP1 SWAP2 SUB SWAP1 REVERT JUMPDEST PUSH1 0x12 PUSH1 0x5 ADD SLOAD PUSH1 0x20 SLOAD GT ISZERO PUSH2 0x2969 JUMPI PUSH1 0x40 MLOAD PUSH32 0x8C379A000000000000000000000000000000000000000000000000000000000 DUP2 MSTORE PUSH1 0x4 ADD PUSH2 0x2960 SWAP1 PUSH2 0x3A12 JUMP JUMPDEST PUSH1 0x40 MLOAD DUP1 SWAP2 SUB SWAP1 REVERT JUMPDEST PUSH1 0x1 PUSH1 0x5 PUSH1 0x0 DUP4 PUSH20 0xFFFFFFFFFFFFFFFFFFFFFFFFFFFFFFFFFFFFFFFF AND PUSH20 0xFFFFFFFFFFFFFFFFFFFFFFFFFFFFFFFFFFFFFFFF AND DUP2 MSTORE PUSH1 0x20 ADD SWAP1 DUP2 MSTORE PUSH1 0x20 ADD PUSH1 0x0 KECCAK256 PUSH1 0x0 PUSH2 0x100 EXP DUP2 SLOAD DUP2 PUSH1 0xFF MUL NOT AND SWAP1 DUP4 ISZERO ISZERO MUL OR SWAP1 SSTORE POP PUSH1 0x1 PUSH1 0x20 PUSH1 0x0 DUP3 DUP3 SLOAD PUSH2 0x29D4 SWAP2 SWAP1 PUSH2 0x3BE3 JUMP JUMPDEST SWAP3 POP POP DUP2 SWAP1 SSTORE POP POP JUMP JUMPDEST CALLER PUSH20 0xFFFFFFFFFFFFFFFFFFFFFFFFFFFFFFFFFFFFFFFF AND PUSH1 0x9 PUSH1 0x3 ADD PUSH1 0x0 SWAP1 SLOAD SWAP1 PUSH2 0x100 EXP SWAP1 DIV PUSH20 0xFFFFFFFFFFFFFFFFFFFFFFFFFFFFFFFFFFFFFFFF AND PUSH20 0xFFFFFFFFFFFFFFFFFFFFFFFFFFFFFFFFFFFFFFFF AND EQ PUSH2 0x2A71 JUMPI PUSH1 0x40 MLOAD PUSH32 0x8C379A000000000000000000000000000000000000000000000000000000000 DUP2 MSTORE PUSH1 0x4 ADD PUSH2 0x2A68 SWAP1 PUSH2 0x3A52 JUMP JUMPDEST PUSH1 0x40 MLOAD DUP1 SWAP2 SUB SWAP1 REVERT JUMPDEST PUSH1 0x12 PUSH1 0x5 ADD SLOAD PUSH1 0x20 SLOAD GT ISZERO PUSH2 0x2ABB JUMPI PUSH1 0x40 MLOAD PUSH32 0x8C379A000000000000000000000000000000000000000000000000000000000 DUP2 MSTORE PUSH1 0x4 ADD PUSH2 0x2AB2 SWAP1 PUSH2 0x3A12 JUMP JUMPDEST PUSH1 0x40 MLOAD DUP1 SWAP2 SUB SWAP1 REVERT JUMPDEST PUSH1 0x0 JUMPDEST DUP3 MLOAD DUP2 LT ISZERO PUSH2 0x2B4B JUMPI DUP2 PUSH1 0x5 PUSH1 0x0 DUP6 DUP5 DUP2 MLOAD DUP2 LT PUSH2 0x2ADF JUMPI PUSH2 0x2ADE PUSH2 0x3F17 JUMP JUMPDEST JUMPDEST PUSH1 0x20 MUL PUSH1 0x20 ADD ADD MLOAD PUSH20 0xFFFFFFFFFFFFFFFFFFFFFFFFFFFFFFFFFFFFFFFF AND PUSH20 0xFFFFFFFFFFFFFFFFFFFFFFFFFFFFFFFFFFFFFFFF AND DUP2 MSTORE PUSH1 0x20 ADD SWAP1 DUP2 MSTORE PUSH1 0x20 ADD PUSH1 0x0 KECCAK256 PUSH1 0x0 PUSH2 0x100 EXP DUP2 SLOAD DUP2 PUSH1 0xFF MUL NOT AND SWAP1 DUP4 ISZERO ISZERO MUL OR SWAP1 SSTORE POP DUP1 DUP1 PUSH2 0x2B43 SWAP1 PUSH2 0x3E41 JUMP JUMPDEST SWAP2 POP POP PUSH2 0x2ABE JUMP JUMPDEST POP POP POP JUMP JUMPDEST PUSH1 0x0 PUSH1 0x9 PUSH1 0x0 ADD PUSH1 0x0 SWAP1 SLOAD SWAP1 PUSH2 0x100 EXP SWAP1 DIV PUSH20 0xFFFFFFFFFFFFFFFFFFFFFFFFFFFFFFFFFFFFFFFF AND PUSH20 0xFFFFFFFFFFFFFFFFFFFFFFFFFFFFFFFFFFFFFFFF AND PUSH4 0x70A08231 ADDRESS PUSH1 0x40 MLOAD DUP3 PUSH4 0xFFFFFFFF AND PUSH1 0xE0 SHL DUP2 MSTORE PUSH1 0x4 ADD PUSH2 0x2BB0 SWAP2 SWAP1 PUSH2 0x36BA JUMP JUMPDEST PUSH1 0x20 PUSH1 0x40 MLOAD DUP1 DUP4 SUB DUP2 DUP7 DUP1 EXTCODESIZE ISZERO DUP1 ISZERO PUSH2 0x2BC8 JUMPI PUSH1 0x0 DUP1 REVERT JUMPDEST POP GAS STATICCALL ISZERO DUP1 ISZERO PUSH2 0x2BDC JUMPI RETURNDATASIZE PUSH1 0x0 DUP1 RETURNDATACOPY RETURNDATASIZE PUSH1 0x0 REVERT JUMPDEST POP POP POP POP PUSH1 0x40 MLOAD RETURNDATASIZE PUSH1 0x1F NOT PUSH1 0x1F DUP3 ADD AND DUP3 ADD DUP1 PUSH1 0x40 MSTORE POP DUP2 ADD SWAP1 PUSH2 0x2C00 SWAP2 SWAP1 PUSH2 0x3256 JUMP JUMPDEST SWAP1 POP PUSH1 0x9 PUSH1 0x0 ADD PUSH1 0x0 SWAP1 SLOAD SWAP1 PUSH2 0x100 EXP SWAP1 DIV PUSH20 0xFFFFFFFFFFFFFFFFFFFFFFFFFFFFFFFFFFFFFFFF AND PUSH20 0xFFFFFFFFFFFFFFFFFFFFFFFFFFFFFFFFFFFFFFFF AND PUSH4 0x95EA7B3 PUSH1 0x1 PUSH1 0x0 SWAP1 SLOAD SWAP1 PUSH2 0x100 EXP SWAP1 DIV PUSH20 0xFFFFFFFFFFFFFFFFFFFFFFFFFFFFFFFFFFFFFFFF AND DUP4 PUSH1 0x40 MLOAD DUP4 PUSH4 0xFFFFFFFF AND PUSH1 0xE0 SHL DUP2 MSTORE PUSH1 0x4 ADD PUSH2 0x2C84 SWAP3 SWAP2 SWAP1 PUSH2 0x36D5 JUMP JUMPDEST PUSH1 0x20 PUSH1 0x40 MLOAD DUP1 DUP4 SUB DUP2 PUSH1 0x0 DUP8 DUP1 EXTCODESIZE ISZERO DUP1 ISZERO PUSH2 0x2C9E JUMPI PUSH1 0x0 DUP1 REVERT JUMPDEST POP GAS CALL ISZERO DUP1 ISZERO PUSH2 0x2CB2 JUMPI RETURNDATASIZE PUSH1 0x0 DUP1 RETURNDATACOPY RETURNDATASIZE PUSH1 0x0 REVERT JUMPDEST POP POP POP POP PUSH1 0x40 MLOAD RETURNDATASIZE PUSH1 0x1F NOT PUSH1 0x1F DUP3 ADD AND DUP3 ADD DUP1 PUSH1 0x40 MSTORE POP DUP2 ADD SWAP1 PUSH2 0x2CD6 SWAP2 SWAP1 PUSH2 0x3105 JUMP JUMPDEST POP PUSH1 0x0 DUP1 PUSH1 0x0 PUSH1 0x1 PUSH1 0x0 SWAP1 SLOAD SWAP1 PUSH2 0x100 EXP SWAP1 DIV PUSH20 0xFFFFFFFFFFFFFFFFFFFFFFFFFFFFFFFFFFFFFFFF AND PUSH20 0xFFFFFFFFFFFFFFFFFFFFFFFFFFFFFFFFFFFFFFFF AND PUSH4 0xF305D719 DUP7 PUSH1 0x9 PUSH1 0x0 ADD PUSH1 0x0 SWAP1 SLOAD SWAP1 PUSH2 0x100 EXP SWAP1 DIV PUSH20 0xFFFFFFFFFFFFFFFFFFFFFFFFFFFFFFFFFFFFFFFF AND DUP8 PUSH1 0x0 DUP1 PUSH1 0x2 PUSH1 0x0 SWAP1 SLOAD SWAP1 PUSH2 0x100 EXP SWAP1 DIV PUSH20 0xFFFFFFFFFFFFFFFFFFFFFFFFFFFFFFFFFFFFFFFF AND PUSH2 0x4B0 TIMESTAMP PUSH2 0x2D76 SWAP2 SWAP1 PUSH2 0x3BE3 JUMP JUMPDEST PUSH1 0x40 MLOAD DUP9 PUSH4 0xFFFFFFFF AND PUSH1 0xE0 SHL DUP2 MSTORE PUSH1 0x4 ADD PUSH2 0x2D97 SWAP7 SWAP6 SWAP5 SWAP4 SWAP3 SWAP2 SWAP1 PUSH2 0x36FE JUMP JUMPDEST PUSH1 0x60 PUSH1 0x40 MLOAD DUP1 DUP4 SUB DUP2 DUP6 DUP9 DUP1 EXTCODESIZE ISZERO DUP1 ISZERO PUSH2 0x2DB0 JUMPI PUSH1 0x0 DUP1 REVERT JUMPDEST POP GAS CALL ISZERO DUP1 ISZERO PUSH2 0x2DC4 JUMPI RETURNDATASIZE PUSH1 0x0 DUP1 RETURNDATACOPY RETURNDATASIZE PUSH1 0x0 REVERT JUMPDEST POP POP POP POP POP PUSH1 0x40 MLOAD RETURNDATASIZE PUSH1 0x1F NOT PUSH1 0x1F DUP3 ADD AND DUP3 ADD DUP1 PUSH1 0x40 MSTORE POP DUP2 ADD SWAP1 PUSH2 0x2DE9 SWAP2 SWAP1 PUSH2 0x32C3 JUMP JUMPDEST SWAP3 POP SWAP3 POP SWAP3 POP POP POP POP POP POP JUMP JUMPDEST DUP3 DUP1 SLOAD PUSH2 0x2E02 SWAP1 PUSH2 0x3DDE JUMP JUMPDEST SWAP1 PUSH1 0x0 MSTORE PUSH1 0x20 PUSH1 0x0 KECCAK256 SWAP1 PUSH1 0x1F ADD PUSH1 0x20 SWAP1 DIV DUP2 ADD SWAP3 DUP3 PUSH2 0x2E24 JUMPI PUSH1 0x0 DUP6 SSTORE PUSH2 0x2E6B JUMP JUMPDEST DUP3 PUSH1 0x1F LT PUSH2 0x2E3D JUMPI DUP1 MLOAD PUSH1 0xFF NOT AND DUP4 DUP1 ADD OR DUP6 SSTORE PUSH2 0x2E6B JUMP JUMPDEST DUP3 DUP1 ADD PUSH1 0x1 ADD DUP6 SSTORE DUP3 ISZERO PUSH2 0x2E6B JUMPI SWAP2 DUP3 ADD JUMPDEST DUP3 DUP2 GT ISZERO PUSH2 0x2E6A JUMPI DUP3 MLOAD DUP3 SSTORE SWAP2 PUSH1 0x20 ADD SWAP2 SWAP1 PUSH1 0x1 ADD SWAP1 PUSH2 0x2E4F JUMP JUMPDEST JUMPDEST POP SWAP1 POP PUSH2 0x2E78 SWAP2 SWAP1 PUSH2 0x2E7C JUMP JUMPDEST POP SWAP1 JUMP JUMPDEST JUMPDEST DUP1 DUP3 GT ISZERO PUSH2 0x2E95 JUMPI PUSH1 0x0 DUP2 PUSH1 0x0 SWAP1 SSTORE POP PUSH1 0x1 ADD PUSH2 0x2E7D JUMP JUMPDEST POP SWAP1 JUMP JUMPDEST PUSH1 0x0 PUSH2 0x2EAC PUSH2 0x2EA7 DUP5 PUSH2 0x3B6A JUMP JUMPDEST PUSH2 0x3B45 JUMP JUMPDEST SWAP1 POP DUP1 DUP4 DUP3 MSTORE PUSH1 0x20 DUP3 ADD SWAP1 POP DUP3 DUP6 PUSH1 0x20 DUP7 MUL DUP3 ADD GT ISZERO PUSH2 0x2ECF JUMPI PUSH2 0x2ECE PUSH2 0x3F7A JUMP JUMPDEST JUMPDEST PUSH1 0x0 JUMPDEST DUP6 DUP2 LT ISZERO PUSH2 0x2EFF JUMPI DUP2 PUSH2 0x2EE5 DUP9 DUP3 PUSH2 0x2F4B JUMP JUMPDEST DUP5 MSTORE PUSH1 0x20 DUP5 ADD SWAP4 POP PUSH1 0x20 DUP4 ADD SWAP3 POP POP PUSH1 0x1 DUP2 ADD SWAP1 POP PUSH2 0x2ED2 JUMP JUMPDEST POP POP POP SWAP4 SWAP3 POP POP POP JUMP JUMPDEST PUSH1 0x0 PUSH2 0x2F1C PUSH2 0x2F17 DUP5 PUSH2 0x3B96 JUMP JUMPDEST PUSH2 0x3B45 JUMP JUMPDEST SWAP1 POP DUP3 DUP2 MSTORE PUSH1 0x20 DUP2 ADD DUP5 DUP5 DUP5 ADD GT ISZERO PUSH2 0x2F38 JUMPI PUSH2 0x2F37 PUSH2 0x3F7F JUMP JUMPDEST JUMPDEST PUSH2 0x2F43 DUP5 DUP3 DUP6 PUSH2 0x3D9C JUMP JUMPDEST POP SWAP4 SWAP3 POP POP POP JUMP JUMPDEST PUSH1 0x0 DUP2 CALLDATALOAD SWAP1 POP PUSH2 0x2F5A DUP2 PUSH2 0x42A1 JUMP JUMPDEST SWAP3 SWAP2 POP POP JUMP JUMPDEST PUSH1 0x0 DUP2 CALLDATALOAD SWAP1 POP PUSH2 0x2F6F DUP2 PUSH2 0x42B8 JUMP JUMPDEST SWAP3 SWAP2 POP POP JUMP JUMPDEST PUSH1 0x0 DUP3 PUSH1 0x1F DUP4 ADD SLT PUSH2 0x2F8A JUMPI PUSH2 0x2F89 PUSH2 0x3F75 JUMP JUMPDEST JUMPDEST DUP2 CALLDATALOAD PUSH2 0x2F9A DUP5 DUP3 PUSH1 0x20 DUP7 ADD PUSH2 0x2E99 JUMP JUMPDEST SWAP2 POP POP SWAP3 SWAP2 POP POP JUMP JUMPDEST PUSH1 0x0 DUP2 CALLDATALOAD SWAP1 POP PUSH2 0x2FB2 DUP2 PUSH2 0x42CF JUMP JUMPDEST SWAP3 SWAP2 POP POP JUMP JUMPDEST PUSH1 0x0 DUP2 MLOAD SWAP1 POP PUSH2 0x2FC7 DUP2 PUSH2 0x42CF JUMP JUMPDEST SWAP3 SWAP2 POP POP JUMP JUMPDEST PUSH1 0x0 DUP2 CALLDATALOAD SWAP1 POP PUSH2 0x2FDC DUP2 PUSH2 0x42E6 JUMP JUMPDEST SWAP3 SWAP2 POP POP JUMP JUMPDEST PUSH1 0x0 DUP2 CALLDATALOAD SWAP1 POP PUSH2 0x2FF1 DUP2 PUSH2 0x42FD JUMP JUMPDEST SWAP3 SWAP2 POP POP JUMP JUMPDEST PUSH1 0x0 DUP3 PUSH1 0x1F DUP4 ADD SLT PUSH2 0x300C JUMPI PUSH2 0x300B PUSH2 0x3F75 JUMP JUMPDEST JUMPDEST DUP2 CALLDATALOAD PUSH2 0x301C DUP5 DUP3 PUSH1 0x20 DUP7 ADD PUSH2 0x2F09 JUMP JUMPDEST SWAP2 POP POP SWAP3 SWAP2 POP POP JUMP JUMPDEST PUSH1 0x0 DUP2 CALLDATALOAD SWAP1 POP PUSH2 0x3034 DUP2 PUSH2 0x4314 JUMP JUMPDEST SWAP3 SWAP2 POP POP JUMP JUMPDEST PUSH1 0x0 DUP2 MLOAD SWAP1 POP PUSH2 0x3049 DUP2 PUSH2 0x4314 JUMP JUMPDEST SWAP3 SWAP2 POP POP JUMP JUMPDEST PUSH1 0x0 PUSH1 0x20 DUP3 DUP5 SUB SLT ISZERO PUSH2 0x3065 JUMPI PUSH2 0x3064 PUSH2 0x3F89 JUMP JUMPDEST JUMPDEST PUSH1 0x0 PUSH2 0x3073 DUP5 DUP3 DUP6 ADD PUSH2 0x2F4B JUMP JUMPDEST SWAP2 POP POP SWAP3 SWAP2 POP POP JUMP JUMPDEST PUSH1 0x0 PUSH1 0x20 DUP3 DUP5 SUB SLT ISZERO PUSH2 0x3092 JUMPI PUSH2 0x3091 PUSH2 0x3F89 JUMP JUMPDEST JUMPDEST PUSH1 0x0 PUSH2 0x30A0 DUP5 DUP3 DUP6 ADD PUSH2 0x2F60 JUMP JUMPDEST SWAP2 POP POP SWAP3 SWAP2 POP POP JUMP JUMPDEST PUSH1 0x0 DUP1 PUSH1 0x40 DUP4 DUP6 SUB SLT ISZERO PUSH2 0x30C0 JUMPI PUSH2 0x30BF PUSH2 0x3F89 JUMP JUMPDEST JUMPDEST PUSH1 0x0 DUP4 ADD CALLDATALOAD PUSH8 0xFFFFFFFFFFFFFFFF DUP2 GT ISZERO PUSH2 0x30DE JUMPI PUSH2 0x30DD PUSH2 0x3F84 JUMP JUMPDEST JUMPDEST PUSH2 0x30EA DUP6 DUP3 DUP7 ADD PUSH2 0x2F75 JUMP JUMPDEST SWAP3 POP POP PUSH1 0x20 PUSH2 0x30FB DUP6 DUP3 DUP7 ADD PUSH2 0x2FA3 JUMP JUMPDEST SWAP2 POP POP SWAP3 POP SWAP3 SWAP1 POP JUMP JUMPDEST PUSH1 0x0 PUSH1 0x20 DUP3 DUP5 SUB SLT ISZERO PUSH2 0x311B JUMPI PUSH2 0x311A PUSH2 0x3F89 JUMP JUMPDEST JUMPDEST PUSH1 0x0 PUSH2 0x3129 DUP5 DUP3 DUP6 ADD PUSH2 0x2FB8 JUMP JUMPDEST SWAP2 POP POP SWAP3 SWAP2 POP POP JUMP JUMPDEST PUSH1 0x0 PUSH1 0x20 DUP3 DUP5 SUB SLT ISZERO PUSH2 0x3148 JUMPI PUSH2 0x3147 PUSH2 0x3F89 JUMP JUMPDEST JUMPDEST PUSH1 0x0 PUSH2 0x3156 DUP5 DUP3 DUP6 ADD PUSH2 0x2FCD JUMP JUMPDEST SWAP2 POP POP SWAP3 SWAP2 POP POP JUMP JUMPDEST PUSH1 0x0 DUP1 PUSH1 0x0 DUP1 PUSH1 0x0 DUP1 PUSH1 0x0 DUP1 PUSH1 0x0 PUSH2 0x120 DUP11 DUP13 SUB SLT ISZERO PUSH2 0x3182 JUMPI PUSH2 0x3181 PUSH2 0x3F89 JUMP JUMPDEST JUMPDEST PUSH1 0x0 PUSH2 0x3190 DUP13 DUP3 DUP14 ADD PUSH2 0x2FCD JUMP JUMPDEST SWAP10 POP POP PUSH1 0x20 PUSH2 0x31A1 DUP13 DUP3 DUP14 ADD PUSH2 0x3025 JUMP JUMPDEST SWAP9 POP POP PUSH1 0x40 PUSH2 0x31B2 DUP13 DUP3 DUP14 ADD PUSH2 0x2FE2 JUMP JUMPDEST SWAP8 POP POP PUSH1 0x60 PUSH2 0x31C3 DUP13 DUP3 DUP14 ADD PUSH2 0x2F60 JUMP JUMPDEST SWAP7 POP POP PUSH1 0x80 PUSH2 0x31D4 DUP13 DUP3 DUP14 ADD PUSH2 0x3025 JUMP JUMPDEST SWAP6 POP POP PUSH1 0xA0 PUSH2 0x31E5 DUP13 DUP3 DUP14 ADD PUSH2 0x3025 JUMP JUMPDEST SWAP5 POP POP PUSH1 0xC0 PUSH2 0x31F6 DUP13 DUP3 DUP14 ADD PUSH2 0x3025 JUMP JUMPDEST SWAP4 POP POP PUSH1 0xE0 PUSH2 0x3207 DUP13 DUP3 DUP14 ADD PUSH2 0x3025 JUMP JUMPDEST SWAP3 POP POP PUSH2 0x100 PUSH2 0x3219 DUP13 DUP3 DUP14 ADD PUSH2 0x3025 JUMP JUMPDEST SWAP2 POP POP SWAP3 SWAP6 SWAP9 POP SWAP3 SWAP6 SWAP9 POP SWAP3 SWAP6 SWAP9 JUMP JUMPDEST PUSH1 0x0 PUSH1 0x20 DUP3 DUP5 SUB SLT ISZERO PUSH2 0x323F JUMPI PUSH2 0x323E PUSH2 0x3F89 JUMP JUMPDEST JUMPDEST PUSH1 0x0 PUSH2 0x324D DUP5 DUP3 DUP6 ADD PUSH2 0x3025 JUMP JUMPDEST SWAP2 POP POP SWAP3 SWAP2 POP POP JUMP JUMPDEST PUSH1 0x0 PUSH1 0x20 DUP3 DUP5 SUB SLT ISZERO PUSH2 0x326C JUMPI PUSH2 0x326B PUSH2 0x3F89 JUMP JUMPDEST JUMPDEST PUSH1 0x0 PUSH2 0x327A DUP5 DUP3 DUP6 ADD PUSH2 0x303A JUMP JUMPDEST SWAP2 POP POP SWAP3 SWAP2 POP POP JUMP JUMPDEST PUSH1 0x0 DUP1 PUSH1 0x40 DUP4 DUP6 SUB SLT ISZERO PUSH2 0x329A JUMPI PUSH2 0x3299 PUSH2 0x3F89 JUMP JUMPDEST JUMPDEST PUSH1 0x0 PUSH2 0x32A8 DUP6 DUP3 DUP7 ADD PUSH2 0x3025 JUMP JUMPDEST SWAP3 POP POP PUSH1 0x20 PUSH2 0x32B9 DUP6 DUP3 DUP7 ADD PUSH2 0x3025 JUMP JUMPDEST SWAP2 POP POP SWAP3 POP SWAP3 SWAP1 POP JUMP JUMPDEST PUSH1 0x0 DUP1 PUSH1 0x0 PUSH1 0x60 DUP5 DUP7 SUB SLT ISZERO PUSH2 0x32DC JUMPI PUSH2 0x32DB PUSH2 0x3F89 JUMP JUMPDEST JUMPDEST PUSH1 0x0 PUSH2 0x32EA DUP7 DUP3 DUP8 ADD PUSH2 0x303A JUMP JUMPDEST SWAP4 POP POP PUSH1 0x20 PUSH2 0x32FB DUP7 DUP3 DUP8 ADD PUSH2 0x303A JUMP JUMPDEST SWAP3 POP POP PUSH1 0x40 PUSH2 0x330C DUP7 DUP3 DUP8 ADD PUSH2 0x303A JUMP JUMPDEST SWAP2 POP POP SWAP3 POP SWAP3 POP SWAP3 JUMP JUMPDEST PUSH1 0x0 DUP1 PUSH1 0x0 DUP1 PUSH1 0x0 DUP1 PUSH1 0x0 DUP1 PUSH2 0x100 DUP10 DUP12 SUB SLT ISZERO PUSH2 0x3337 JUMPI PUSH2 0x3336 PUSH2 0x3F89 JUMP JUMPDEST JUMPDEST PUSH1 0x0 PUSH2 0x3345 DUP12 DUP3 DUP13 ADD PUSH2 0x3025 JUMP JUMPDEST SWAP9 POP POP PUSH1 0x20 PUSH2 0x3356 DUP12 DUP3 DUP13 ADD PUSH2 0x3025 JUMP JUMPDEST SWAP8 POP POP PUSH1 0x40 PUSH2 0x3367 DUP12 DUP3 DUP13 ADD PUSH2 0x3025 JUMP JUMPDEST SWAP7 POP POP PUSH1 0x60 PUSH2 0x3378 DUP12 DUP3 DUP13 ADD PUSH2 0x2FA3 JUMP JUMPDEST SWAP6 POP POP PUSH1 0x80 PUSH2 0x3389 DUP12 DUP3 DUP13 ADD PUSH2 0x3025 JUMP JUMPDEST SWAP5 POP POP PUSH1 0xA0 PUSH2 0x339A DUP12 DUP3 DUP13 ADD PUSH2 0x3025 JUMP JUMPDEST SWAP4 POP POP PUSH1 0xC0 PUSH2 0x33AB DUP12 DUP3 DUP13 ADD PUSH2 0x2FA3 JUMP JUMPDEST SWAP3 POP POP PUSH1 0xE0 DUP10 ADD CALLDATALOAD PUSH8 0xFFFFFFFFFFFFFFFF DUP2 GT ISZERO PUSH2 0x33CC JUMPI PUSH2 0x33CB PUSH2 0x3F84 JUMP JUMPDEST JUMPDEST PUSH2 0x33D8 DUP12 DUP3 DUP13 ADD PUSH2 0x2FF7 JUMP JUMPDEST SWAP2 POP POP SWAP3 SWAP6 SWAP9 POP SWAP3 SWAP6 SWAP9 SWAP1 SWAP4 SWAP7 POP JUMP JUMPDEST PUSH2 0x33F1 DUP2 PUSH2 0x3CD6 JUMP JUMPDEST DUP3 MSTORE POP POP JUMP JUMPDEST PUSH2 0x3400 DUP2 PUSH2 0x3CC4 JUMP JUMPDEST DUP3 MSTORE POP POP JUMP JUMPDEST PUSH2 0x340F DUP2 PUSH2 0x3CE8 JUMP JUMPDEST DUP3 MSTORE POP POP JUMP JUMPDEST PUSH2 0x341E DUP2 PUSH2 0x3D42 JUMP JUMPDEST DUP3 MSTORE POP POP JUMP JUMPDEST PUSH2 0x342D DUP2 PUSH2 0x3D66 JUMP JUMPDEST DUP3 MSTORE POP POP JUMP JUMPDEST PUSH2 0x343C DUP2 PUSH2 0x3D8A JUMP JUMPDEST DUP3 MSTORE POP POP JUMP JUMPDEST PUSH1 0x0 PUSH2 0x344D DUP3 PUSH2 0x3BC7 JUMP JUMPDEST PUSH2 0x3457 DUP2 DUP6 PUSH2 0x3BD2 JUMP JUMPDEST SWAP4 POP PUSH2 0x3467 DUP2 DUP6 PUSH1 0x20 DUP7 ADD PUSH2 0x3DAB JUMP JUMPDEST PUSH2 0x3470 DUP2 PUSH2 0x3F8E JUMP JUMPDEST DUP5 ADD SWAP2 POP POP SWAP3 SWAP2 POP POP JUMP JUMPDEST PUSH1 0x0 PUSH2 0x3488 PUSH1 0x39 DUP4 PUSH2 0x3BD2 JUMP JUMPDEST SWAP2 POP PUSH2 0x3493 DUP3 PUSH2 0x3F9F JUMP JUMPDEST PUSH1 0x40 DUP3 ADD SWAP1 POP SWAP2 SWAP1 POP JUMP JUMPDEST PUSH1 0x0 PUSH2 0x34AB PUSH1 0x26 DUP4 PUSH2 0x3BD2 JUMP JUMPDEST SWAP2 POP PUSH2 0x34B6 DUP3 PUSH2 0x3FEE JUMP JUMPDEST PUSH1 0x40 DUP3 ADD SWAP1 POP SWAP2 SWAP1 POP JUMP JUMPDEST PUSH1 0x0 PUSH2 0x34CE PUSH1 0x19 DUP4 PUSH2 0x3BD2 JUMP JUMPDEST SWAP2 POP PUSH2 0x34D9 DUP3 PUSH2 0x403D JUMP JUMPDEST PUSH1 0x20 DUP3 ADD SWAP1 POP SWAP2 SWAP1 POP JUMP JUMPDEST PUSH1 0x0 PUSH2 0x34F1 PUSH1 0xC DUP4 PUSH2 0x3BD2 JUMP JUMPDEST SWAP2 POP PUSH2 0x34FC DUP3 PUSH2 0x4066 JUMP JUMPDEST PUSH1 0x20 DUP3 ADD SWAP1 POP SWAP2 SWAP1 POP JUMP JUMPDEST PUSH1 0x0 PUSH2 0x3514 PUSH1 0x17 DUP4 PUSH2 0x3BD2 JUMP JUMPDEST SWAP2 POP PUSH2 0x351F DUP3 PUSH2 0x408F JUMP JUMPDEST PUSH1 0x20 DUP3 ADD SWAP1 POP SWAP2 SWAP1 POP JUMP JUMPDEST PUSH1 0x0 PUSH2 0x3537 PUSH1 0x16 DUP4 PUSH2 0x3BD2 JUMP JUMPDEST SWAP2 POP PUSH2 0x3542 DUP3 PUSH2 0x40B8 JUMP JUMPDEST PUSH1 0x20 DUP3 ADD SWAP1 POP SWAP2 SWAP1 POP JUMP JUMPDEST PUSH1 0x0 PUSH2 0x355A PUSH1 0xF DUP4 PUSH2 0x3BD2 JUMP JUMPDEST SWAP2 POP PUSH2 0x3565 DUP3 PUSH2 0x40E1 JUMP JUMPDEST PUSH1 0x20 DUP3 ADD SWAP1 POP SWAP2 SWAP1 POP JUMP JUMPDEST PUSH1 0x0 PUSH2 0x357D PUSH1 0x1B DUP4 PUSH2 0x3BD2 JUMP JUMPDEST SWAP2 POP PUSH2 0x3588 DUP3 PUSH2 0x410A JUMP JUMPDEST PUSH1 0x20 DUP3 ADD SWAP1 POP SWAP2 SWAP1 POP JUMP JUMPDEST PUSH1 0x0 PUSH2 0x35A0 PUSH1 0x12 DUP4 PUSH2 0x3BD2 JUMP JUMPDEST SWAP2 POP PUSH2 0x35AB DUP3 PUSH2 0x4133 JUMP JUMPDEST PUSH1 0x20 DUP3 ADD SWAP1 POP SWAP2 SWAP1 POP JUMP JUMPDEST PUSH1 0x0 PUSH2 0x35C3 PUSH1 0xF DUP4 PUSH2 0x3BD2 JUMP JUMPDEST SWAP2 POP PUSH2 0x35CE DUP3 PUSH2 0x415C JUMP JUMPDEST PUSH1 0x20 DUP3 ADD SWAP1 POP SWAP2 SWAP1 POP JUMP JUMPDEST PUSH1 0x0 PUSH2 0x35E6 PUSH1 0x12 DUP4 PUSH2 0x3BD2 JUMP JUMPDEST SWAP2 POP PUSH2 0x35F1 DUP3 PUSH2 0x4185 JUMP JUMPDEST PUSH1 0x20 DUP3 ADD SWAP1 POP SWAP2 SWAP1 POP JUMP JUMPDEST PUSH1 0x0 PUSH2 0x3609 PUSH1 0x1C DUP4 PUSH2 0x3BD2 JUMP JUMPDEST SWAP2 POP PUSH2 0x3614 DUP3 PUSH2 0x41AE JUMP JUMPDEST PUSH1 0x20 DUP3 ADD SWAP1 POP SWAP2 SWAP1 POP JUMP JUMPDEST PUSH1 0x0 PUSH2 0x362C PUSH1 0x17 DUP4 PUSH2 0x3BD2 JUMP JUMPDEST SWAP2 POP PUSH2 0x3637 DUP3 PUSH2 0x41D7 JUMP JUMPDEST PUSH1 0x20 DUP3 ADD SWAP1 POP SWAP2 SWAP1 POP JUMP JUMPDEST PUSH1 0x0 PUSH2 0x364F PUSH1 0x1F DUP4 PUSH2 0x3BD2 JUMP JUMPDEST SWAP2 POP PUSH2 0x365A DUP3 PUSH2 0x4200 JUMP JUMPDEST PUSH1 0x20 DUP3 ADD SWAP1 POP SWAP2 SWAP1 POP JUMP JUMPDEST PUSH1 0x0 PUSH2 0x3672 PUSH1 0x11 DUP4 PUSH2 0x3BD2 JUMP JUMPDEST SWAP2 POP PUSH2 0x367D DUP3 PUSH2 0x4229 JUMP JUMPDEST PUSH1 0x20 DUP3 ADD SWAP1 POP SWAP2 SWAP1 POP JUMP JUMPDEST PUSH1 0x0 PUSH2 0x3695 PUSH1 0x2C DUP4 PUSH2 0x3BD2 JUMP JUMPDEST SWAP2 POP PUSH2 0x36A0 DUP3 PUSH2 0x4252 JUMP JUMPDEST PUSH1 0x40 DUP3 ADD SWAP1 POP SWAP2 SWAP1 POP JUMP JUMPDEST PUSH2 0x36B4 DUP2 PUSH2 0x3D38 JUMP JUMPDEST DUP3 MSTORE POP POP JUMP JUMPDEST PUSH1 0x0 PUSH1 0x20 DUP3 ADD SWAP1 POP PUSH2 0x36CF PUSH1 0x0 DUP4 ADD DUP5 PUSH2 0x33F7 JUMP JUMPDEST SWAP3 SWAP2 POP POP JUMP JUMPDEST PUSH1 0x0 PUSH1 0x40 DUP3 ADD SWAP1 POP PUSH2 0x36EA PUSH1 0x0 DUP4 ADD DUP6 PUSH2 0x33F7 JUMP JUMPDEST PUSH2 0x36F7 PUSH1 0x20 DUP4 ADD DUP5 PUSH2 0x36AB JUMP JUMPDEST SWAP4 SWAP3 POP POP POP JUMP JUMPDEST PUSH1 0x0 PUSH1 0xC0 DUP3 ADD SWAP1 POP PUSH2 0x3713 PUSH1 0x0 DUP4 ADD DUP10 PUSH2 0x33F7 JUMP JUMPDEST PUSH2 0x3720 PUSH1 0x20 DUP4 ADD DUP9 PUSH2 0x36AB JUMP JUMPDEST PUSH2 0x372D PUSH1 0x40 DUP4 ADD DUP8 PUSH2 0x3433 JUMP JUMPDEST PUSH2 0x373A PUSH1 0x60 DUP4 ADD DUP7 PUSH2 0x3433 JUMP JUMPDEST PUSH2 0x3747 PUSH1 0x80 DUP4 ADD DUP6 PUSH2 0x33F7 JUMP JUMPDEST PUSH2 0x3754 PUSH1 0xA0 DUP4 ADD DUP5 PUSH2 0x36AB JUMP JUMPDEST SWAP8 SWAP7 POP POP POP POP POP POP POP JUMP JUMPDEST PUSH1 0x0 PUSH1 0x20 DUP3 ADD SWAP1 POP PUSH2 0x3774 PUSH1 0x0 DUP4 ADD DUP5 PUSH2 0x3406 JUMP JUMPDEST SWAP3 SWAP2 POP POP JUMP JUMPDEST PUSH1 0x0 PUSH2 0x120 DUP3 ADD SWAP1 POP PUSH2 0x3790 PUSH1 0x0 DUP4 ADD DUP13 PUSH2 0x3415 JUMP JUMPDEST PUSH2 0x379D PUSH1 0x20 DUP4 ADD DUP12 PUSH2 0x36AB JUMP JUMPDEST PUSH2 0x37AA PUSH1 0x40 DUP4 ADD DUP11 PUSH2 0x3424 JUMP JUMPDEST PUSH2 0x37B7 PUSH1 0x60 DUP4 ADD DUP10 PUSH2 0x33E8 JUMP JUMPDEST PUSH2 0x37C4 PUSH1 0x80 DUP4 ADD DUP9 PUSH2 0x36AB JUMP JUMPDEST PUSH2 0x37D1 PUSH1 0xA0 DUP4 ADD DUP8 PUSH2 0x36AB JUMP JUMPDEST PUSH2 0x37DE PUSH1 0xC0 DUP4 ADD DUP7 PUSH2 0x36AB JUMP JUMPDEST PUSH2 0x37EB PUSH1 0xE0 DUP4 ADD DUP6 PUSH2 0x36AB JUMP JUMPDEST PUSH2 0x37F9 PUSH2 0x100 DUP4 ADD DUP5 PUSH2 0x36AB JUMP JUMPDEST SWAP11 SWAP10 POP POP POP POP POP POP POP POP POP POP JUMP JUMPDEST PUSH1 0x0 PUSH1 0xC0 DUP3 ADD SWAP1 POP DUP2 DUP2 SUB PUSH1 0x0 DUP4 ADD MSTORE PUSH2 0x3821 DUP2 DUP10 PUSH2 0x3442 JUMP JUMPDEST SWAP1 POP DUP2 DUP2 SUB PUSH1 0x20 DUP4 ADD MSTORE PUSH2 0x3835 DUP2 DUP9 PUSH2 0x3442 JUMP JUMPDEST SWAP1 POP DUP2 DUP2 SUB PUSH1 0x40 DUP4 ADD MSTORE PUSH2 0x3849 DUP2 DUP8 PUSH2 0x3442 JUMP JUMPDEST SWAP1 POP DUP2 DUP2 SUB PUSH1 0x60 DUP4 ADD MSTORE PUSH2 0x385D DUP2 DUP7 PUSH2 0x3442 JUMP JUMPDEST SWAP1 POP DUP2 DUP2 SUB PUSH1 0x80 DUP4 ADD MSTORE PUSH2 0x3871 DUP2 DUP6 PUSH2 0x3442 JUMP JUMPDEST SWAP1 POP DUP2 DUP2 SUB PUSH1 0xA0 DUP4 ADD MSTORE PUSH2 0x3885 DUP2 DUP5 PUSH2 0x3442 JUMP JUMPDEST SWAP1 POP SWAP8 SWAP7 POP POP POP POP POP POP POP JUMP JUMPDEST PUSH1 0x0 PUSH1 0x20 DUP3 ADD SWAP1 POP DUP2 DUP2 SUB PUSH1 0x0 DUP4 ADD MSTORE PUSH2 0x38AB DUP2 PUSH2 0x347B JUMP JUMPDEST SWAP1 POP SWAP2 SWAP1 POP JUMP JUMPDEST PUSH1 0x0 PUSH1 0x20 DUP3 ADD SWAP1 POP DUP2 DUP2 SUB PUSH1 0x0 DUP4 ADD MSTORE PUSH2 0x38CB DUP2 PUSH2 0x349E JUMP JUMPDEST SWAP1 POP SWAP2 SWAP1 POP JUMP JUMPDEST PUSH1 0x0 PUSH1 0x20 DUP3 ADD SWAP1 POP DUP2 DUP2 SUB PUSH1 0x0 DUP4 ADD MSTORE PUSH2 0x38EB DUP2 PUSH2 0x34C1 JUMP JUMPDEST SWAP1 POP SWAP2 SWAP1 POP JUMP JUMPDEST PUSH1 0x0 PUSH1 0x20 DUP3 ADD SWAP1 POP DUP2 DUP2 SUB PUSH1 0x0 DUP4 ADD MSTORE PUSH2 0x390B DUP2 PUSH2 0x34E4 JUMP JUMPDEST SWAP1 POP SWAP2 SWAP1 POP JUMP JUMPDEST PUSH1 0x0 PUSH1 0x20 DUP3 ADD SWAP1 POP DUP2 DUP2 SUB PUSH1 0x0 DUP4 ADD MSTORE PUSH2 0x392B DUP2 PUSH2 0x3507 JUMP JUMPDEST SWAP1 POP SWAP2 SWAP1 POP JUMP JUMPDEST PUSH1 0x0 PUSH1 0x20 DUP3 ADD SWAP1 POP DUP2 DUP2 SUB PUSH1 0x0 DUP4 ADD MSTORE PUSH2 0x394B DUP2 PUSH2 0x352A JUMP JUMPDEST SWAP1 POP SWAP2 SWAP1 POP JUMP JUMPDEST PUSH1 0x0 PUSH1 0x20 DUP3 ADD SWAP1 POP DUP2 DUP2 SUB PUSH1 0x0 DUP4 ADD MSTORE PUSH2 0x396B DUP2 PUSH2 0x354D JUMP JUMPDEST SWAP1 POP SWAP2 SWAP1 POP JUMP JUMPDEST PUSH1 0x0 PUSH1 0x20 DUP3 ADD SWAP1 POP DUP2 DUP2 SUB PUSH1 0x0 DUP4 ADD MSTORE PUSH2 0x398B DUP2 PUSH2 0x3570 JUMP JUMPDEST SWAP1 POP SWAP2 SWAP1 POP JUMP JUMPDEST PUSH1 0x0 PUSH1 0x20 DUP3 ADD SWAP1 POP DUP2 DUP2 SUB PUSH1 0x0 DUP4 ADD MSTORE PUSH2 0x39AB DUP2 PUSH2 0x3593 JUMP JUMPDEST SWAP1 POP SWAP2 SWAP1 POP JUMP JUMPDEST PUSH1 0x0 PUSH1 0x20 DUP3 ADD SWAP1 POP DUP2 DUP2 SUB PUSH1 0x0 DUP4 ADD MSTORE PUSH2 0x39CB DUP2 PUSH2 0x35B6 JUMP JUMPDEST SWAP1 POP SWAP2 SWAP1 POP JUMP JUMPDEST PUSH1 0x0 PUSH1 0x20 DUP3 ADD SWAP1 POP DUP2 DUP2 SUB PUSH1 0x0 DUP4 ADD MSTORE PUSH2 0x39EB DUP2 PUSH2 0x35D9 JUMP JUMPDEST SWAP1 POP SWAP2 SWAP1 POP JUMP JUMPDEST PUSH1 0x0 PUSH1 0x20 DUP3 ADD SWAP1 POP DUP2 DUP2 SUB PUSH1 0x0 DUP4 ADD MSTORE PUSH2 0x3A0B DUP2 PUSH2 0x35FC JUMP JUMPDEST SWAP1 POP SWAP2 SWAP1 POP JUMP JUMPDEST PUSH1 0x0 PUSH1 0x20 DUP3 ADD SWAP1 POP DUP2 DUP2 SUB PUSH1 0x0 DUP4 ADD MSTORE PUSH2 0x3A2B DUP2 PUSH2 0x361F JUMP JUMPDEST SWAP1 POP SWAP2 SWAP1 POP JUMP JUMPDEST PUSH1 0x0 PUSH1 0x20 DUP3 ADD SWAP1 POP DUP2 DUP2 SUB PUSH1 0x0 DUP4 ADD MSTORE PUSH2 0x3A4B DUP2 PUSH2 0x3642 JUMP JUMPDEST SWAP1 POP SWAP2 SWAP1 POP JUMP JUMPDEST PUSH1 0x0 PUSH1 0x20 DUP3 ADD SWAP1 POP DUP2 DUP2 SUB PUSH1 0x0 DUP4 ADD MSTORE PUSH2 0x3A6B DUP2 PUSH2 0x3665 JUMP JUMPDEST SWAP1 POP SWAP2 SWAP1 POP JUMP JUMPDEST PUSH1 0x0 PUSH1 0x20 DUP3 ADD SWAP1 POP DUP2 DUP2 SUB PUSH1 0x0 DUP4 ADD MSTORE PUSH2 0x3A8B DUP2 PUSH2 0x3688 JUMP JUMPDEST SWAP1 POP SWAP2 SWAP1 POP JUMP JUMPDEST PUSH1 0x0 PUSH1 0x20 DUP3 ADD SWAP1 POP PUSH2 0x3AA7 PUSH1 0x0 DUP4 ADD DUP5 PUSH2 0x36AB JUMP JUMPDEST SWAP3 SWAP2 POP POP JUMP JUMPDEST PUSH1 0x0 PUSH1 0x40 DUP3 ADD SWAP1 POP PUSH2 0x3AC2 PUSH1 0x0 DUP4 ADD DUP6 PUSH2 0x36AB JUMP JUMPDEST PUSH2 0x3ACF PUSH1 0x20 DUP4 ADD DUP5 PUSH2 0x36AB JUMP JUMPDEST SWAP4 SWAP3 POP POP POP JUMP JUMPDEST PUSH1 0x0 PUSH1 0xE0 DUP3 ADD SWAP1 POP PUSH2 0x3AEB PUSH1 0x0 DUP4 ADD DUP11 PUSH2 0x36AB JUMP JUMPDEST PUSH2 0x3AF8 PUSH1 0x20 DUP4 ADD DUP10 PUSH2 0x36AB JUMP JUMPDEST PUSH2 0x3B05 PUSH1 0x40 DUP4 ADD DUP9 PUSH2 0x3406 JUMP JUMPDEST PUSH2 0x3B12 PUSH1 0x60 DUP4 ADD DUP8 PUSH2 0x36AB JUMP JUMPDEST PUSH2 0x3B1F PUSH1 0x80 DUP4 ADD DUP7 PUSH2 0x36AB JUMP JUMPDEST PUSH2 0x3B2C PUSH1 0xA0 DUP4 ADD DUP6 PUSH2 0x36AB JUMP JUMPDEST PUSH2 0x3B39 PUSH1 0xC0 DUP4 ADD DUP5 PUSH2 0x3406 JUMP JUMPDEST SWAP9 SWAP8 POP POP POP POP POP POP POP POP JUMP JUMPDEST PUSH1 0x0 PUSH2 0x3B4F PUSH2 0x3B60 JUMP JUMPDEST SWAP1 POP PUSH2 0x3B5B DUP3 DUP3 PUSH2 0x3E10 JUMP JUMPDEST SWAP2 SWAP1 POP JUMP JUMPDEST PUSH1 0x0 PUSH1 0x40 MLOAD SWAP1 POP SWAP1 JUMP JUMPDEST PUSH1 0x0 PUSH8 0xFFFFFFFFFFFFFFFF DUP3 GT ISZERO PUSH2 0x3B85 JUMPI PUSH2 0x3B84 PUSH2 0x3F46 JUMP JUMPDEST JUMPDEST PUSH1 0x20 DUP3 MUL SWAP1 POP PUSH1 0x20 DUP2 ADD SWAP1 POP SWAP2 SWAP1 POP JUMP JUMPDEST PUSH1 0x0 PUSH8 0xFFFFFFFFFFFFFFFF DUP3 GT ISZERO PUSH2 0x3BB1 JUMPI PUSH2 0x3BB0 PUSH2 0x3F46 JUMP JUMPDEST JUMPDEST PUSH2 0x3BBA DUP3 PUSH2 0x3F8E JUMP JUMPDEST SWAP1 POP PUSH1 0x20 DUP2 ADD SWAP1 POP SWAP2 SWAP1 POP JUMP JUMPDEST PUSH1 0x0 DUP2 MLOAD SWAP1 POP SWAP2 SWAP1 POP JUMP JUMPDEST PUSH1 0x0 DUP3 DUP3 MSTORE PUSH1 0x20 DUP3 ADD SWAP1 POP SWAP3 SWAP2 POP POP JUMP JUMPDEST PUSH1 0x0 PUSH2 0x3BEE DUP3 PUSH2 0x3D38 JUMP JUMPDEST SWAP2 POP PUSH2 0x3BF9 DUP4 PUSH2 0x3D38 JUMP JUMPDEST SWAP3 POP DUP3 PUSH32 0xFFFFFFFFFFFFFFFFFFFFFFFFFFFFFFFFFFFFFFFFFFFFFFFFFFFFFFFFFFFFFFFF SUB DUP3 GT ISZERO PUSH2 0x3C2E JUMPI PUSH2 0x3C2D PUSH2 0x3E8A JUMP JUMPDEST JUMPDEST DUP3 DUP3 ADD SWAP1 POP SWAP3 SWAP2 POP POP JUMP JUMPDEST PUSH1 0x0 PUSH2 0x3C44 DUP3 PUSH2 0x3D38 JUMP JUMPDEST SWAP2 POP PUSH2 0x3C4F DUP4 PUSH2 0x3D38 JUMP JUMPDEST SWAP3 POP DUP3 PUSH2 0x3C5F JUMPI PUSH2 0x3C5E PUSH2 0x3EB9 JUMP JUMPDEST JUMPDEST DUP3 DUP3 DIV SWAP1 POP SWAP3 SWAP2 POP POP JUMP JUMPDEST PUSH1 0x0 PUSH2 0x3C75 DUP3 PUSH2 0x3D38 JUMP JUMPDEST SWAP2 POP PUSH2 0x3C80 DUP4 PUSH2 0x3D38 JUMP JUMPDEST SWAP3 POP DUP2 PUSH32 0xFFFFFFFFFFFFFFFFFFFFFFFFFFFFFFFFFFFFFFFFFFFFFFFFFFFFFFFFFFFFFFFF DIV DUP4 GT DUP3 ISZERO ISZERO AND ISZERO PUSH2 0x3CB9 JUMPI PUSH2 0x3CB8 PUSH2 0x3E8A JUMP JUMPDEST JUMPDEST DUP3 DUP3 MUL SWAP1 POP SWAP3 SWAP2 POP POP JUMP JUMPDEST PUSH1 0x0 PUSH2 0x3CCF DUP3 PUSH2 0x3D18 JUMP JUMPDEST SWAP1 POP SWAP2 SWAP1 POP JUMP JUMPDEST PUSH1 0x0 PUSH2 0x3CE1 DUP3 PUSH2 0x3D18 JUMP JUMPDEST SWAP1 POP SWAP2 SWAP1 POP JUMP JUMPDEST PUSH1 0x0 DUP2 ISZERO ISZERO SWAP1 POP SWAP2 SWAP1 POP JUMP JUMPDEST PUSH1 0x0 PUSH2 0x3CFF DUP3 PUSH2 0x3CC4 JUMP JUMPDEST SWAP1 POP SWAP2 SWAP1 POP JUMP JUMPDEST PUSH1 0x0 PUSH2 0x3D11 DUP3 PUSH2 0x3CC4 JUMP JUMPDEST SWAP1 POP SWAP2 SWAP1 POP JUMP JUMPDEST PUSH1 0x0 PUSH20 0xFFFFFFFFFFFFFFFFFFFFFFFFFFFFFFFFFFFFFFFF DUP3 AND SWAP1 POP SWAP2 SWAP1 POP JUMP JUMPDEST PUSH1 0x0 DUP2 SWAP1 POP SWAP2 SWAP1 POP JUMP JUMPDEST PUSH1 0x0 PUSH2 0x3D4D DUP3 PUSH2 0x3D54 JUMP JUMPDEST SWAP1 POP SWAP2 SWAP1 POP JUMP JUMPDEST PUSH1 0x0 PUSH2 0x3D5F DUP3 PUSH2 0x3D18 JUMP JUMPDEST SWAP1 POP SWAP2 SWAP1 POP JUMP JUMPDEST PUSH1 0x0 PUSH2 0x3D71 DUP3 PUSH2 0x3D78 JUMP JUMPDEST SWAP1 POP SWAP2 SWAP1 POP JUMP JUMPDEST PUSH1 0x0 PUSH2 0x3D83 DUP3 PUSH2 0x3D18 JUMP JUMPDEST SWAP1 POP SWAP2 SWAP1 POP JUMP JUMPDEST PUSH1 0x0 PUSH2 0x3D95 DUP3 PUSH2 0x3D38 JUMP JUMPDEST SWAP1 POP SWAP2 SWAP1 POP JUMP JUMPDEST DUP3 DUP2 DUP4 CALLDATACOPY PUSH1 0x0 DUP4 DUP4 ADD MSTORE POP POP POP JUMP JUMPDEST PUSH1 0x0 JUMPDEST DUP4 DUP2 LT ISZERO PUSH2 0x3DC9 JUMPI DUP1 DUP3 ADD MLOAD DUP2 DUP5 ADD MSTORE PUSH1 0x20 DUP2 ADD SWAP1 POP PUSH2 0x3DAE JUMP JUMPDEST DUP4 DUP2 GT ISZERO PUSH2 0x3DD8 JUMPI PUSH1 0x0 DUP5 DUP5 ADD MSTORE JUMPDEST POP POP POP POP JUMP JUMPDEST PUSH1 0x0 PUSH1 0x2 DUP3 DIV SWAP1 POP PUSH1 0x1 DUP3 AND DUP1 PUSH2 0x3DF6 JUMPI PUSH1 0x7F DUP3 AND SWAP2 POP JUMPDEST PUSH1 0x20 DUP3 LT DUP2 EQ ISZERO PUSH2 0x3E0A JUMPI PUSH2 0x3E09 PUSH2 0x3EE8 JUMP JUMPDEST JUMPDEST POP SWAP2 SWAP1 POP JUMP JUMPDEST PUSH2 0x3E19 DUP3 PUSH2 0x3F8E JUMP JUMPDEST DUP2 ADD DUP2 DUP2 LT PUSH8 0xFFFFFFFFFFFFFFFF DUP3 GT OR ISZERO PUSH2 0x3E38 JUMPI PUSH2 0x3E37 PUSH2 0x3F46 JUMP JUMPDEST JUMPDEST DUP1 PUSH1 0x40 MSTORE POP POP POP JUMP JUMPDEST PUSH1 0x0 PUSH2 0x3E4C DUP3 PUSH2 0x3D38 JUMP JUMPDEST SWAP2 POP PUSH32 0xFFFFFFFFFFFFFFFFFFFFFFFFFFFFFFFFFFFFFFFFFFFFFFFFFFFFFFFFFFFFFFFF DUP3 EQ ISZERO PUSH2 0x3E7F JUMPI PUSH2 0x3E7E PUSH2 0x3E8A JUMP JUMPDEST JUMPDEST PUSH1 0x1 DUP3 ADD SWAP1 POP SWAP2 SWAP1 POP JUMP JUMPDEST PUSH32 0x4E487B7100000000000000000000000000000000000000000000000000000000 PUSH1 0x0 MSTORE PUSH1 0x11 PUSH1 0x4 MSTORE PUSH1 0x24 PUSH1 0x0 REVERT JUMPDEST PUSH32 0x4E487B7100000000000000000000000000000000000000000000000000000000 PUSH1 0x0 MSTORE PUSH1 0x12 PUSH1 0x4 MSTORE PUSH1 0x24 PUSH1 0x0 REVERT JUMPDEST PUSH32 0x4E487B7100000000000000000000000000000000000000000000000000000000 PUSH1 0x0 MSTORE PUSH1 0x22 PUSH1 0x4 MSTORE PUSH1 0x24 PUSH1 0x0 REVERT JUMPDEST PUSH32 0x4E487B7100000000000000000000000000000000000000000000000000000000 PUSH1 0x0 MSTORE PUSH1 0x32 PUSH1 0x4 MSTORE PUSH1 0x24 PUSH1 0x0 REVERT JUMPDEST PUSH32 0x4E487B7100000000000000000000000000000000000000000000000000000000 PUSH1 0x0 MSTORE PUSH1 0x41 PUSH1 0x4 MSTORE PUSH1 0x24 PUSH1 0x0 REVERT JUMPDEST PUSH1 0x0 DUP1 REVERT JUMPDEST PUSH1 0x0 DUP1 REVERT JUMPDEST PUSH1 0x0 DUP1 REVERT JUMPDEST PUSH1 0x0 DUP1 REVERT JUMPDEST PUSH1 0x0 DUP1 REVERT JUMPDEST PUSH1 0x0 PUSH1 0x1F NOT PUSH1 0x1F DUP4 ADD AND SWAP1 POP SWAP2 SWAP1 POP JUMP JUMPDEST PUSH32 0x436F6E747269627574696F6E206E6565647320746F20626520696E2074686520 PUSH1 0x0 DUP3 ADD MSTORE PUSH32 0x6D696E696D756D206275792F6D6178206275792072616E676500000000000000 PUSH1 0x20 DUP3 ADD MSTORE POP JUMP JUMPDEST PUSH32 0x6D61726B65742063616E742073746172742C20736F6674636170206E6F742072 PUSH1 0x0 DUP3 ADD MSTORE PUSH32 0x6561636865640000000000000000000000000000000000000000000000000000 PUSH1 0x20 DUP3 ADD MSTORE POP JUMP JUMPDEST PUSH32 0x6E6F74206F6E2074696D6520666F722077686974656C69737400000000000000 PUSH1 0x0 DUP3 ADD MSTORE POP JUMP JUMPDEST PUSH32 0x4E6F7420616E2061646D696E0000000000000000000000000000000000000000 PUSH1 0x0 DUP3 ADD MSTORE POP JUMP JUMPDEST PUSH32 0x43616E7420636F6E7472696275746520616E796D6F7265000000000000000000 PUSH1 0x0 DUP3 ADD MSTORE POP JUMP JUMPDEST PUSH32 0x6E6F7420612077686974656C69737465642073616C6500000000000000000000 PUSH1 0x0 DUP3 ADD MSTORE POP JUMP JUMPDEST PUSH32 0x4E6F742077686974656C69737465640000000000000000000000000000000000 PUSH1 0x0 DUP3 ADD MSTORE POP JUMP JUMPDEST PUSH32 0x6E6F74206F6E2074696D6520666F72207075626C69632073616C650000000000 PUSH1 0x0 DUP3 ADD MSTORE POP JUMP JUMPDEST PUSH32 0x6E6F7420726561647920746F20636C61696D0000000000000000000000000000 PUSH1 0x0 DUP3 ADD MSTORE POP JUMP JUMPDEST PUSH32 0x4E6F7420636F6E74726962757465640000000000000000000000000000000000 PUSH1 0x0 DUP3 ADD MSTORE POP JUMP JUMPDEST PUSH32 0x6E6F74206120726566756E642070686173650000000000000000000000000000 PUSH1 0x0 DUP3 ADD MSTORE POP JUMP JUMPDEST PUSH32 0x4F6E6C79207365747465722063616E20696E69742070726573616C6500000000 PUSH1 0x0 DUP3 ADD MSTORE POP JUMP JUMPDEST PUSH32 0x4E6F206D6F72652077686974656C6973742073706F7473000000000000000000 PUSH1 0x0 DUP3 ADD MSTORE POP JUMP JUMPDEST PUSH32 0x5265656E7472616E637947756172643A207265656E7472616E742063616C6C00 PUSH1 0x0 DUP3 ADD MSTORE POP JUMP JUMPDEST PUSH32 0x4E4F542050524553414C45204F574E4552000000000000000000000000000000 PUSH1 0x0 DUP3 ADD MSTORE POP JUMP JUMPDEST PUSH32 0x4E6F20746F6B656E7320746F206265207472616E736665726564206F7220636F PUSH1 0x0 DUP3 ADD MSTORE PUSH32 0x6E747261637420656D7074790000000000000000000000000000000000000000 PUSH1 0x20 DUP3 ADD MSTORE POP JUMP JUMPDEST PUSH2 0x42AA DUP2 PUSH2 0x3CC4 JUMP JUMPDEST DUP2 EQ PUSH2 0x42B5 JUMPI PUSH1 0x0 DUP1 REVERT JUMPDEST POP JUMP JUMPDEST PUSH2 0x42C1 DUP2 PUSH2 0x3CD6 JUMP JUMPDEST DUP2 EQ PUSH2 0x42CC JUMPI PUSH1 0x0 DUP1 REVERT JUMPDEST POP JUMP JUMPDEST PUSH2 0x42D8 DUP2 PUSH2 0x3CE8 JUMP JUMPDEST DUP2 EQ PUSH2 0x42E3 JUMPI PUSH1 0x0 DUP1 REVERT JUMPDEST POP JUMP JUMPDEST PUSH2 0x42EF DUP2 PUSH2 0x3CF4 JUMP JUMPDEST DUP2 EQ PUSH2 0x42FA JUMPI PUSH1 0x0 DUP1 REVERT JUMPDEST POP JUMP JUMPDEST PUSH2 0x4306 DUP2 PUSH2 0x3D06 JUMP JUMPDEST DUP2 EQ PUSH2 0x4311 JUMPI PUSH1 0x0 DUP1 REVERT JUMPDEST POP JUMP JUMPDEST PUSH2 0x431D DUP2 PUSH2 0x3D38 JUMP JUMPDEST DUP2 EQ PUSH2 0x4328 JUMPI PUSH1 0x0 DUP1 REVERT JUMPDEST POP JUMP INVALID LOG2 PUSH5 0x6970667358 0x22 SLT KECCAK256 PUSH25 0xF346EA39F547A2D6435FC3FF4AA182E2A94F7EACFF727C2600 PUSH10 0x255255BE7064736F6C63 NUMBER STOP ADDMOD MOD STOP CALLER LOG2 PUSH5 0x6970667358 0x22 SLT KECCAK256 OR 0xDF RETURN 0xFC 0xAA DIFFICULTY SLT EQ 0xD5 STOP 0xC5 0x2A 0x2B 0xCC DIFFICULTY DELEGATECALL PUSH25 0x89D9A361BBE6A55A2609D7D1A9E9B564736F6C634300080600 CALLER "
		},
		"gasEstimates": {
			"creation": {
				"codeDepositCost": "4424400",
				"executionCost": "infinite",
				"totalCost": "infinite"
			},
			"external": {
				"deployNewInstance(address,address,uint256,address,address,uint256,uint256,uint256,uint256,uint256)": "infinite",
				"existingContracts(uint256)": "5043",
				"owner()": "2544",
				"presaleAtIndex(uint256)": "infinite",
				"presalesLength()": "2588",
				"renounceOwnership()": "30374",
				"transferOwnership(address)": "30811",
				"updateFeeAddress(address)": "27028",
				"withdrawFees()": "infinite"
			},
			"internal": {
				"registerPresale(address)": "infinite"
			}
		},
		"methodIdentifiers": {
			"deployNewInstance(address,address,uint256,address,address,uint256,uint256,uint256,uint256,uint256)": "20b33629",
			"existingContracts(uint256)": "b9f889cc",
			"owner()": "8da5cb5b",
			"presaleAtIndex(uint256)": "65384f36",
			"presalesLength()": "4e76edbb",
			"renounceOwnership()": "715018a6",
			"transferOwnership(address)": "f2fde38b",
			"updateFeeAddress(address)": "bbcaac38",
			"withdrawFees()": "476343ee"
		}
	},
	"abi": [
		{
			"anonymous": false,
			"inputs": [
				{
					"indexed": true,
					"internalType": "address",
					"name": "previousOwner",
					"type": "address"
				},
				{
					"indexed": true,
					"internalType": "address",
					"name": "newOwner",
					"type": "address"
				}
			],
			"name": "OwnershipTransferred",
			"type": "event"
		},
		{
			"inputs": [
				{
					"internalType": "address payable",
					"name": "masterDevAddress",
					"type": "address"
				},
				{
					"internalType": "contract IERC20",
					"name": "tokenAddress",
					"type": "address"
				},
				{
					"internalType": "uint256",
					"name": "tokenPrice",
					"type": "uint256"
				},
				{
					"internalType": "contract IUniswapV2Router02",
					"name": "_routerAddress",
					"type": "address"
				},
				{
					"internalType": "address payable",
					"name": "_idoAdmin",
					"type": "address"
				},
				{
					"internalType": "uint256",
					"name": "_maxAmount",
					"type": "uint256"
				},
				{
					"internalType": "uint256",
					"name": "_tokenDecimals",
					"type": "uint256"
				},
				{
					"internalType": "uint256",
					"name": "_softcap",
					"type": "uint256"
				},
				{
					"internalType": "uint256",
					"name": "_hardcap",
					"type": "uint256"
				},
				{
					"internalType": "uint256",
					"name": "_liquidityToLock",
					"type": "uint256"
				}
			],
			"name": "deployNewInstance",
			"outputs": [],
			"stateMutability": "payable",
			"type": "function"
		},
		{
			"inputs": [
				{
					"internalType": "uint256",
					"name": "",
					"type": "uint256"
				}
			],
			"name": "existingContracts",
			"outputs": [
				{
					"internalType": "contract IgniteIDO",
					"name": "",
					"type": "address"
				}
			],
			"stateMutability": "view",
			"type": "function"
		},
		{
			"inputs": [],
			"name": "owner",
			"outputs": [
				{
					"internalType": "address",
					"name": "",
					"type": "address"
				}
			],
			"stateMutability": "view",
			"type": "function"
		},
		{
			"inputs": [
				{
					"internalType": "uint256",
					"name": "_index",
					"type": "uint256"
				}
			],
			"name": "presaleAtIndex",
			"outputs": [
				{
					"internalType": "address",
					"name": "",
					"type": "address"
				}
			],
			"stateMutability": "view",
			"type": "function"
		},
		{
			"inputs": [],
			"name": "presalesLength",
			"outputs": [
				{
					"internalType": "uint256",
					"name": "",
					"type": "uint256"
				}
			],
			"stateMutability": "view",
			"type": "function"
		},
		{
			"inputs": [],
			"name": "renounceOwnership",
			"outputs": [],
			"stateMutability": "nonpayable",
			"type": "function"
		},
		{
			"inputs": [
				{
					"internalType": "address",
					"name": "newOwner",
					"type": "address"
				}
			],
			"name": "transferOwnership",
			"outputs": [],
			"stateMutability": "nonpayable",
			"type": "function"
		},
		{
			"inputs": [
				{
					"internalType": "address payable",
					"name": "newAddress",
					"type": "address"
				}
			],
			"name": "updateFeeAddress",
			"outputs": [],
			"stateMutability": "nonpayable",
			"type": "function"
		},
		{
			"inputs": [],
			"name": "withdrawFees",
			"outputs": [],
			"stateMutability": "nonpayable",
			"type": "function"
		}
	]
}